:020000040800F2
:10000000D817002005010008D7260008852400081D
:10001000D5260008510600088F41000800000000A6
:100020000000000000000000000000005D2B000840
:100030001D070008000000004B2A00085F2B000885
:100040001F0100081F0100081F0100081F01000810
:100050001F0100081F0100081F0100081F01000800
:100060001F0100081F0100081F010008C506000845
:100070001F0100081F0100081F0100081F010008E0
:100080001F0100081F0100081F0100081F010008D0
:10009000C54000081F0100081F0100081F010008DB
:1000A0001F0100081F0100081F0100081F010008B0
:1000B0001F0100081F0100081F0100081F010008A0
:1000C0001F0100081F0100081F0100081F01000890
:1000D0001F0100081F0100081F0100081F01000880
:1000E0001F0100081F0100081F010008DFF810D0E1
:1000F00000F0CAF90048004719480008AFF3008033
:10010000D81700200648804706480047FEE7FEE76C
:10011000FEE7FEE7FEE7FEE7FEE7FEE7FEE7FEE7B7
:10012000C92B0008ED000008202A04DB203A21FA40
:1001300002F00021704721FA02F3D040C2F1200200
:10014000914008431946704740EA01039B0703D0DA
:1001500009E008C9121F08C0042AFAD203E011F806
:10016000013B00F8013B521EF9D27047D2B201E0C8
:1001700000F8012B491EFBD270470022F6E710B5AC
:1001800013460A4604461946FFF7F0FF204610BD05
:10019000421C10F8011B0029FBD1801A70472DE981
:1001A000FE4F81EA030404F0004421F00041009472
:1001B0004FF0000B23F0004350EA01045ED052EAF6
:1001C00003045BD0C3F30A54C1F30A552C44A4F2D0
:1001D000F3340194A0FB0254C1F3130141F48011E4
:1001E000C3F3130343F4801301FB024400FB034EEB
:1001F000840A970A44EA815447EA8357A4FB0768B4
:1002000002958D0A05FB07854FEA932C04FB0C54DD
:100210002705029D4FEA065847EA1637B5EB080551
:100220006EEB070C870E920E47EA811742EA8312A3
:10023000A7FB0201B6EB0B0164EB00042B0D43EAB4
:100240000C335E1844EB1C50DA465146E7FB0201C2
:10025000C5F313044FEA0B3343EA14534FEA043255
:10026000019C43EA0603A4F10C040294009CCDE92E
:1002700000B400F0BAF803B0BDE8F08F00200146EA
:10028000F9E70EB540F2334102910021CDE90011AA
:100290000A460B4600F0A9F803B000BD20F000406C
:1002A000C10DC0F3160040F400007F2901DA0020E0
:1002B0007047962903DCC1F19601C8407047963912
:1002C0008840704701F0004330B421F0004150EA0B
:1002D000010206D00A0DA2F56072C1F31301002AD3
:1002E00002DC30BC00207047440F44EAC104C10066
:1002F000E01830BC00EBC25000F031B82DE9F05FDF
:100300000546002092469B46884606468146402484
:100310001BE02846414647462246FFF705FF534665
:100320005A46C01A914110D311461846224600F091
:10033000BDF82D1A67EB01084F4622460120002127
:1003400000F0B4F817EB00094E41201EA4F101049F
:10035000DFDC484631462A464346BDE8F09F002987
:10036000A8BF7047401C490008BF20F0010070473B
:1003700010B4B0FA80FC00FA0CF050EA010404BF9B
:1003800010BC704749B1CCF1200421FA04F411FAF1
:100390000CF118BF012121430843A3EB0C01CB1D35
:1003A0004FEA00614FEA102042BF002010BC7047A6
:1003B00000EBC35010440029A4BF10BC7047401C80
:1003C000490008BF20F0010010BC704710B5141E92
:1003D00073F1000408DA401C41F1000192185B41FE
:1003E0001A4301D120F0010010BD2DE9F04D9246D5
:1003F0009B4611B1B1FA81F202E0B0FA80F22032EC
:10040000904600F053F804460F4640EA0A0041EADD
:100410000B0153465A46084313D0114653EA0100D4
:1004200019D0C8F140025046FFF77EFE05460E4641
:1004300050465946424600F039F8084305D001209D
:1004400004E020463946BDE8F08D0020054346EA29
:10045000E0762C4337430A986305E40AA0EB0800D2
:100460000022FD0A44EA47540A3002D50020014622
:10047000E9E7010510196941DDE9084500196941FD
:10048000BDE8F04DA2E70000064C074D06E0E0682D
:1004900040F0010394E8070098471034AC42F6D3CB
:1004A000FFF728FE3852000858520008202A04DBC3
:1004B000203A00FA02F1002070479140C2F1200377
:1004C00020FA03F319439040704770B58C1810F868
:1004D000015B15F0070301D110F8013B2A1106D189
:1004E00010F8012B03E010F8016B01F8016B5B1EA3
:1004F000F9D12B0705D40023521E0DD401F8013B7E
:10050000FAE710F8013BCB1A921C03E013F8015BE9
:1005100001F8015B521EF9D5A142D8D3002070BD6D
:1005200070B5044600688168C943C9071CD1816859
:1005300021F00101816000F055FD05460FE000BF8C
:1005400000F050FD401B022809D9A06A40F01000BD
:10055000A062E06A40F00100E062012070BD206806
:100560008068C043C007EBD0002070BD10B50146C5
:10057000406A826A12F0500F05D0006A026BBDE833
:10058000104008461047816A41F400718162016899
:100590008968C1F3424107290CD1017B51B9816AB5
:1005A00021F480718162816AC90403D4816A41F0B7
:1005B0000101816200F096F910BD10B5406A816AB0
:1005C00041F040018162C16A41F00401C16200F062
:1005D00096F910BD10B5406A00F090F910BD00000A
:1005E000F8B500260446009600688168C943C9072B
:1005F00028D0816841F001018160134813490068E7
:10060000B0FBF1F000E0401E00900028FBD100F0AC
:10061000E9FC054611E000BF00F0E4FC401B0228A5
:100620000BD9A06A40F01000A062E06A40F001001F
:10063000E06284F824600120F8BD20688068C0432F
:10064000C007E9D10020F8BD9400002040420F000F
:10065000FEE70020704700207047000010B5002220
:100660000449054802F0ACFC0449034802F0A2FC2E
:10067000002010BDF00F0020B8020020080C002060
:1006800010B50146034802F095FC024802F076FCE2
:10069000002010BDB8020020094A10B5D2F8B822D7
:1006A000D2F814220AB1012010BD0A4601460448BE
:1006B00002F086FCBDE81040014802F0DFBC0000FB
:1006C000B8020020014800F075BA00007402002052
:1006D00030B590F840500124AC40C56B6C600468A4
:1006E00063604368102B036803D099600068C260A0
:1006F00030BD9A600068C16030BD000005480168E7
:1007000041F0807101600448016841F0010101601D
:1007100070470000FCED00E0001000E070477047FB
:10072000F8B500250446009590F82400012808D06B
:10073000012084F824002046FFF7F2FE060002D0D4
:100740004BE00220F8BDA06A20F4885040F002007F
:10075000A062022000F06AFF22490968B1FBF0F0B4
:10076000400000E0401E00900028FBD12046FFF72B
:1007700037FF2068816841F00801816000F032FC99
:10078000074604E000F02EFCC01B0A2811D82068A0
:1007900080680007F6D42068816841F00401816018
:1007A00000F020FC07460EE000F01CFCC01B0A28ED
:1007B00009D9A06A20F0020040F01000A06284F87D
:1007C00024500120F8BD206880684007ECD4A06A5E
:1007D00020F0020040F00100A06284F8245030466E
:1007E000F8BD000094000020F8B50024009490F8B3
:1007F00024202546012A12D0012280F824204A68AC
:100800001F23072A0DD20668776B521E02EB820265
:1008100093409F430B6893401F43776319E0022086
:10082000F8BD06680D2A0AD2376BD21F02EB82028E
:1008300093409F430B6893401F43376309E0F76A77
:100840000D3A02EB820293409F430B6893401F4393
:10085000F7620A68072306680A2A0AD3F7680A3A81
:1008600002EB420293409F438B6893401F43F76023
:1008700008E0376902EB420293409F438B68934044
:100880001F4337610A68102A01D0112A20D1124B68
:1008900002689A4217D193681B0219D4936843F4F3
:1008A000000393600968102912D10C490C4A0968A9
:1008B000B1FBF2F101EB8101490000E0491E00911A
:1008C0000029FBD104E0816A41F02001816201240A
:1008D00080F824502046F8BD0024014094000020F8
:1008E00040420F0000680349884202D102490120BA
:1008F00008707047002401400000002070477047D6
:100900002DE9F0414FF0000704003D467ED0A06A7B
:10091000002628B9E66284F82460204600F07EF8BC
:100920002046FFF7FDFDA16AC90600D420B1A06AE8
:1009300040F01000A06269E0A16A21F4885141F002
:100940000201A1626268E169237B0A4347EA43012D
:100950000A43A1684FF48077B94209D0012907D032
:100960005FF0000194F814C0BCF1010F02D00AE05E
:100970003946F7E7F3B1A36A43F02003A362E36AC1
:1009800043F00103E3622368D3F804C02CF4694CFC
:100990004CEA010CC3F804C021688B68DFF870C012
:1009A00003EA0C0313438B60A168B9420BD0012901
:1009B00009D00CE0DFF85CC0A3690CEB43330B43B8
:1009C00043F40061DFE7218A0D05A5F58015216854
:1009D000CB6A23F470032B43CB62216889680E4BEA
:1009E0001940914208D1E662A16A21F0020141F06A
:1009F0000101A162BDE8F081A06A20F0020040F090
:100A00001000A062E06A40F00100E0620120F1E71E
:100A1000FDF7E1FF00E0FFFFFE0E1FFF70B586B09F
:100A20000025064600950195029503950068194931
:100A300088422DD11849886940F40070886188691E
:100A400000F400700490886940F0040088618869AF
:100A5000694600F0040004900320009001900F48C4
:100A600000F0CAF90F4C0E48C4E900058020C4E923
:100A7000025040002061800060612020C4E906052A
:100A8000204600F041F908B1FFF749FE3462666282
:100A900006B070BD00240140001002400008014073
:100AA00008000240740200202DE9F0478946044600
:100AB0003B4900683B4F0E1D9046884201D0B8422A
:100AC00007D1306810F4702F03D001252846BDE807
:100AD000F08794F8240001280CD0012084F8240029
:100AE0002046FFF77DFD05004FF0000004D084F89C
:100AF0002400EBE70220EAE7A16A40F60162914395
:100B000041F48071A1622168B94218D1326812F4AF
:100B1000702F14D0A16A41F48011A1623168490597
:100B200005D5A16A21F4005141F48051A162A16A66
:100B3000C9040AD5E16A21F00601E16206E0A26A71
:100B400022F48012A2624968E9E7E06284F8240096
:100B5000216A15488862216A1448C862216A1448CB
:100B6000086321686FF0020008602068816841F422
:100B700080718160216843464A464C31206A00F00A
:100B8000F1F820688168C1F342410729816803D0E8
:100B900041F48011816099E741F4A001FAE7000077
:100BA00000240140002801406D050008D50500081B
:100BB000BB0500082DE9F05FC16B0C6801680B688C
:100BC000D0F840C0042202FA0CF2494DDFF824A10B
:100BD000494E4A4FDFF828B1DFF828E122422CD0F5
:100BE0005A072AD50A68920603D40A6822F004023A
:100BF0000A600168A94201D1042219E0514501D1DE
:100C0000402215E0B14202D14FF4806210E0B942B7
:100C100002D14FF480420BE0594502D14FF48022BB
:100C200006E0714502D14FF4800201E04FF080628E
:100C30002F4908394A60C16A3BE04FF0020808FAC0
:100C40000CF818EA040F4FF000094FF0010235D0FC
:100C50005FEA837832D50B689B0605D40B6823F0D6
:100C60000A030B6080F821200168A94201D1022209
:100C700019E0514501D1202215E0B14202D14FF4D3
:100C8000007210E0B94202D14FF400520BE0594516
:100C900002D14FF4003206E0714502D14FF4001248
:100CA00001E04FF00072124908394A6080F8209044
:100CB000816A00291AD0BDE8F05F0847082505FAC7
:100CC0000CF5254212D01B0710D50B6823F00E033C
:100CD0000B6090F84010C36B02FA01F15960826317
:100CE00080F8212080F82090016BE2E7BDE8F09FBA
:100CF000080002401C000240300002404400024054
:100D0000580002406C00024030B528B308C81349AF
:100D100014221944B1FBF2F18900C16310498163C7
:100D2000022141771A6843F6F0718A43D0E9001432
:100D30002143D0E902452C432143046921434469FE
:100D40002143846921431143196000214163012239
:100D500042770177084630BD012030BDF8FFFDBF66
:100D60000000024070B5044690F8200000250128DC
:100D70000CD0012084F8200094F821600020012E7E
:100D800006D084F820000225284670BD022070BDE0
:100D9000022684F82160A0632068066826F0010618
:100DA00006602046FFF794FCE06A0028206801688E
:100DB00002D041F00E0106E021F00401016020683C
:100DC000016841F00A0101602068016841F00101F9
:100DD0000160D9E770B5044600F004F90546601CCF
:100DE00002D004480078044400F0FCF8401BA04204
:100DF000FAD370BD880000202DE9F84FDFF8B891D4
:100E0000002409F1040A0AF1040B23460F270BF111
:100E1000040EC9E00125A5402A40AA427DD1674EB3
:100E2000D1F804C0ACEB0608B44532D014DCBCF1F8
:100E3000030F3AD009DCBCF1000F2AD0BCF1010F3E
:100E40001CD0BCF1020F31D11DE0BCF1110F17D045
:100E5000BCF1120F2AD119E0B8F5881F19D006DCB1
:100E6000B8F5803F15D0B8F5801F1FD111E0B8F557
:100E7000001F0ED0B8F5041F18D10AE0CB6815E0AA
:100E8000CB681B1D12E0CB6808330FE0CB680C3336
:100E90000CE08B682BB1012B4FF0080303D04561A8
:100EA00004E0042302E0056100E00023FF2A01D8EA
:100EB000064601E000F104064FEA840501D9A5F1D8
:100EC0002005D6F8008007FA05FC28EA0C0803FA8A
:100ED00005F548EA0508C6F800804D68ED0062D5C2
:100EE000374DAE6946F00106AE61AD6924F00306E8
:100EF00005F001050095334D06EB050CDCF80850B4
:100F0000A607360F07FA06F825EA0805DFF8B880C5
:100F1000404503D14FF0000817E044E0DFF8AC8013
:100F2000404502D14FF001080FE0DFF8A4804045B2
:100F300002D14FF0020808E0DFF89880404502D166
:100F40004FF0030801E04FF0040808FA06F848EAF9
:100F50000508CCF808804D68D9F80060ED034D46CF
:100F600001D5164300E096432E604D68DAF8006024
:100F7000AD03554601D5164300E096432E604D68FB
:100F8000DBF80060ED025D4601D5164300E09643B4
:100F90002E604D68DEF80060AD02754601D516433F
:100FA00000E096432E60641C0D682A46E5407FF4FD
:100FB00031AFBDE8F88F00000004014000001110BF
:100FC000001002400000014000080140000C0140F8
:100FD00000100140001401400AB10161704709048A
:100FE000FBE700000148806870470000880000208F
:100FF00002488168027811448160704788000020AF
:10100000074810B5016841F010010160032000F0AD
:1010100075F8002000F006F800F024F8002010BD5C
:101020000020024070B50D4D04464FF47A712878C7
:10103000B1FBF0F00A490968B1FBF0F001F0F9F8F2
:1010400048B9102C07D200222146501E00F036F875
:1010500000206C6070BD012070BD00008800002081
:10106000940000200C4808B5816941F001018161BC
:10107000816901F001010091C16941F08051C161B4
:10108000C06900F0805000900448416821F0E061A0
:1010900041F00071416008BD0010024000000140B5
:1010A000002809DB00F01F02012191404009800067
:1010B00000F1E020C0F8001170470000F0B40E4BC2
:1010C0001B680C46C3F30223C3F10705042D00D9A6
:1010D0000425191D072901D2002300E0DB1E01268B
:1010E00006FA05F1491E214099409E40761E1640A1
:1010F0003143F0BC03F066B80CED00E0064900F0A7
:10110000070208684FF6FF03184040EA0220034A2E
:1011100010430860704700000CED00E00000FA0585
:1011200010B50C0605D501F0070100EB4110283081
:1011300003E000EB411000F5947099B232B1012246
:1011400002730181190C4181002010BD002202733D
:10115000C180F9E7704700EB4112D0F86802D26B0A
:1011600002F03BB900EB4112D0F86802D2F83C2102
:1011700002F096B970B504460B0601F0070004EBC7
:1011800040114FF001024FF0000503D581F82920EE
:10119000283103E081F8295101F59471087094F821
:1011A0002802012808D084F82822206802F0BDFD1A
:1011B00084F82852002070BD022070BD70B504462E
:1011C00001F00F006268904201D9012070BD0B064A
:1011D00001F0070004EB40114FF001024FF0000551
:1011E00003D581F82920283103E081F8295101F540
:1011F00094718D70087094F82802012808D084F842
:101200002822206802F034FE84F82852002070BDA5
:10121000022070BD01F0070100EB4110D0F844013D
:1012200070472DE9F04104460F0601F0070004EB7A
:1012300040114FF001064FF0000503D581F82960F9
:10124000283103E081F8295101F5947108700A6191
:10125000CB704A7802B1C881022B00D10D7194F88D
:101260002802012809D084F82862206802F028FCAE
:10127000284684F82852BDE8F0810220FBE770B5CB
:101280000C4601F0070500EB4511C1E94F23002290
:10129000C1F8442181F8292181F8285101F5947180
:1012A0006207006802F039FE002070BD70B5044688
:1012B0000D4601F007006168884201D9012070BD28
:1012C00029064FF000064FF0010205D504EB40114E
:1012D00081F82920283105E004EB451181F82961C6
:1012E00001F594718A70087094F82802012807D0DB
:1012F00084F82822206802F0F7FD680702D006E093
:10130000022070BD04F50C71206802F0AFFD84F876
:101310002862002070BD70B50C4601F0070500EB97
:101320004511C1E90F2300224A64012281F82920D6
:1013300001F8285F6207006802F0EFFD002070BD31
:1013400010B50446006802F0C3FE000402D5204632
:1013500001F01AFA206802F0BBFE40050CD52068A7
:1013600030F8441F21F480610180204600F0FCF831
:101370000021204600F013F9206802F0A9FE400485
:1013800005D5206830F8441F21F480410180206891
:1013900002F09EFE800405D5206830F8441F21F439
:1013A00000510180206802F093FEC00414D520682B
:1013B00030F8401F21F004010180206830F8401F00
:1013C00021F008010180204600F0E1F8206830F8A3
:1013D000441F21F480510180206802F079FE00054D
:1013E0001FD5206830F8401F41F0080101802068B7
:1013F00030F8441F21F400610180206830F8401F5C
:1014000041F004010180206802F062FEC00405D5AD
:10141000206830F8441F21F480510180204600F0FC
:10142000F3F8206802F054FE800508D5206830F8F3
:10143000441F21F400710180204600F0ACF82068C0
:1014400002F046FEC00505D5206830F8441F21F49F
:101450008071018010BD00002DE9F04186B00400CC
:1014600004D094F82902002520B108E0012006B03C
:10147000BDE8F08184F82852204600F057F8032098
:1014800084F82902206802F0EAFC04F11001142219
:1014900088466846FEF758FE94E80F0002F043FCC9
:1014A0000227B0BB0021206802F056FE0020012672
:1014B0000DE000BF04EB401181F8296001F8280F0E
:1014C000C881CD700D614D61401CC0B28D616168F5
:1014D0008142EFD800200FE004EB401181F8295140
:1014E00081F8280181F82B51C1F83851C1F83C51DD
:1014F000401CC0B2C1F8405161688142ECD814224E
:1015000041466846FEF720FE94E80F0002F098FC82
:1015100010B184F82972A9E784F8245084F829626C
:10152000206802F08BFC0020A1E7000008B50068ED
:101530000B49884212D10B48C16941F40001C161D5
:10154000C069002200F40000009011461420FFF74B
:10155000B5FDBDE808401420FFF7A2BD08BD00009E
:10156000005C00400010024070B504468068012510
:10157000022801D0FFF7D3F82946D4F8680202F018
:1015800076F8D4F86802BDE8704002F032B8D0F8BE
:10159000680202F056B8D0F8680202F05CB810B5E4
:1015A000044690F8280201280BD0012084F8280274
:1015B00084F82410206802F0D1FD002084F828026D
:1015C00010BD022010BDD0F8682200F50C71104645
:1015D00002F059B810B5044690F82802012810D03E
:1015E000012084F8280201462046FFF7B3FD206859
:1015F00002F022FC206802F05EFD002084F8280240
:1016000010BD022010BD000010B50446D0F86802DD
:1016100002F078F8A069002804D00348016841F07E
:101620000601016010BD000010ED00E010B529A416
:1016300001461DCC86B08DE81D002AA02A4C00680A
:1016400004900020012923D002293AD010291DD16D
:1016500061682268D20119D5C1F38342C9031DF81C
:10166000020009D5616804AAC1F34041515C1F4AD8
:10167000B2FBF1F1484301E01D494843616849026A
:1016800004D440005FF00301B0FBF1F006B010BDE0
:10169000226AC2F30121012903D1920701D5C803AF
:1016A000F4E7022905D1626A920702D549F6404063
:1016B000ECE70329EAD121688903E7D54FF22440FA
:1016C000E4E700F023F96168C1F38131491C490066
:1016D000DAE7000002030405060708090A0B0C0DEF
:1016E0000E0F1010010200000010024000127A00DC
:1016F00000093D002DE9F84305460078354CC00748
:1017000054D0E0690026C00008D4E06940F0805061
:10171000E061E069012600F0805000902E480168E9
:10172000C90512D40168804641F480710160FFF759
:1017300059FC074605E000BFFFF754FCC01B6428B6
:1017400023D8D8F80000C005F6D5206A10F4407000
:1017500021D0A98801F4407181421CD0206A1F4920
:10176000012220F440700A6000220A602062C00753
:1017700011D0FFF737FC074641F2883808E000BF78
:10178000FFF730FCC11B414502D90320BDE8F883B7
:10179000206A8007F4D5206A696820F44070084305
:1017A00020621EB1E06920F08050E0612878800757
:1017B00005D56068A96820F4404008436060287837
:1017C000C00605D56068E96820F4800008436060C1
:1017D0000020DBE70010024000700040400442425D
:1017E0002DE9F0470F46050061D0434E306800F008
:1017F0000700B84209D2306820F007003843306053
:10180000306800F00700B84251D128683B4C81078E
:1018100012D5400703D5606840F4E0606060287826
:10182000000703D5606840F4605060606068A96894
:1018300020F0F000084360602878C00728D068686E
:10184000012810D02168022810D0890700292EDA3B
:10185000616821F0030101436160FFF7C3FB80462B
:1018600041F288390DE021688903EFE78901EDE74E
:10187000FFF7B8FBA0EB0801494502D90320BDE8FA
:10188000F0876068696800F00C00B0EB810FEFD161
:10189000306800F00700B8420BD9306820F007002C
:1018A00038433060306800F00700B84201D00120B2
:1018B000E5E72878400705D56068E96820F4E0602E
:1018C000084360602878000706D56068296920F41D
:1018D000605040EAC100606000F028F86168084A82
:1018E000C1F30311515CC84006490860064800680E
:1018F000FFF798FB0020C2E70020024000100240E2
:101900001E520008940000208C0000200448054965
:1019100000684968044AC1F3C221515CC84070475D
:1019200094000020001002402E52000812A185B041
:101930000FC98DE80F0014A0144A00680490516884
:10194000134801F00C03042B10D0082B0ED1C1F367
:101950008343C9031DF803000AD5516804AAC1F3E3
:101960004041515C0A4A5043B0FBF1F005B070476A
:1019700008494843FAE7000002030405060708097E
:101980000A0B0C0D0E0F1010010200000010024097
:1019900000127A0000093D002DE9F84F040070D0D4
:1019A0002078C04DC00749D06868C0F38100012885
:1019B00007D06868C0F38100022809D16868C003B5
:1019C00006D52868800339D560680028E7D035E05F
:1019D0006068B0F5803F0BD010B1B0F5A02F11D0EA
:1019E000286820F480302860286820F4802002E0F5
:1019F000286840F480302860606890B1FFF7F2FA00
:101A000006460AE0286840F480202860F0E700BF1E
:101A1000FFF7E8FA801B642873D828688003F7D59D
:101A20000CE0FFF7DFFA064605E000BFFFF7DAFA41
:101A3000801B6428F0D828688003F7D420789A4E59
:101A400080074FF001094FF0000839D5686810F0A1
:101A50000C0F07D06868C0F38100022809D16868BC
:101A6000C00306D42868800714D52069012808D14E
:101A700010E02069B0B1C6F80090FFF7B3FA07464E
:101A800005E00AE1FFF7AEFAC01B0228C4D82868B7
:101A90008007F7D52868616920F0F80040EAC100A6
:101AA00028600DE0C6F80080FFF79CFA074604E0C6
:101AB000FFF798FAC01B022823D828688007F7D4BC
:101AC000207800072CD57948A169D9B1C0F80090D9
:101AD000FFF788FA074604E0FFF784FAC01B0228E4
:101AE0000FD8686A8007F7D571484FF4FA5100683B
:101AF000B0FBF1F0009000BF0098411E0091FAD2B7
:101B00000EE080E0C0F80080FFF76CFA074604E0C2
:101B1000FFF768FAC01B022875D8686A8007F7D4F7
:101B20002078400760D5E8690027C00008D4E8693C
:101B300040F08050E861E869012700F08050009093
:101B40005C480168C90513D40168834641F480717B
:101B50000160FFF747FA824606E000BFFFF742FA4E
:101B6000A0EB0A0064284ED8DBF80000C005F5D5CC
:101B7000E06801280AD008B1052813D0286A20F0AF
:101B800001002862286A20F0040002E0286A40F080
:101B900001002862E06841F2883B98B1FFF722FA21
:101BA00082460BE0286A40F004002862EEE700BF9E
:101BB000FFF718FAA0EB0A0159455AD8286A80079E
:101BC000F6D50CE0FFF70EFA824605E0FFF70AFAB9
:101BD000A0EB0A0159454CD8286A8007F6D41FB1FA
:101BE000E86920F08050E861E06988B36968C1F372
:101BF0008101022944D00228C6F8608004D0FFF792
:101C0000F1F9044638E034E0FFF7ECF9074604E068
:101C1000FFF7E8F9C01B02282BD828688001F7D409
:101C2000206AB0F5803F05D16868A16820F40030D3
:101C300008436860D4E908010843696821F4741115
:101C400008436860C6F86090FFF7CCF9044606E0E8
:101C500025E000BFFFF7C6F9001B022809D8286855
:101C60008001F7D51BE000BFFFF7BCF9001B02287D
:101C700002D90320BDE8F88F28688001F4D40EE073
:101C80000128F7D06868226A00F48031914204D1BB
:101C9000616A00F47010884201D00120EAE7002058
:101CA000E8E7000000100240000042428004424287
:101CB000940000200070004070B5040005D000259D
:101CC000A56294F8510010B106E0012070BD84F8BF
:101CD0005050204600F02EF8022084F85100206871
:101CE000016821F040010160D4E901010843D4E911
:101CF00003121143084361690843218B01F4007109
:101D00000843E1690843216A0843A16A084321683E
:101D10000860A069042101EA104021684860206839
:101D2000C16921F40061C1616565012084F8510039
:101D3000002070BD30B585B0002400940194029459
:101D4000039400681449884223D11448816941F4FE
:101D500080518161816901F480510491816941F070
:101D60000401816180690E4D00F004000490A02000
:101D70000090022001900320039069462846FFF757
:101D80003BF84020CDE90004694628460294FFF75D
:101D900033F805B030BD00000030014000100240B3
:101DA000000801402DE9F84F044640680025984698
:101DB00016460F464FF0040BB0F5827F01D1A068A4
:101DC00088B194F85000012818D0012084F8500000
:101DD000FFF708F9814694F851004FF0000A0128F6
:101DE0000ED002257DE084F851B013460A46204605
:101DF000CDF8008000F02CF9BDE8F88F0220FBE759
:101E0000002F6DD0002E6BD084F851B0C4F854A0D0
:101E1000A763A687E687C4F830A0A4F834A0A4F886
:101E200036A0C4F840A0C4F844A0A068B0F5004FA4
:101E300004D12068016821F48041016020680168B4
:101E4000490603D4016841F040010160E068D8B15F
:101E500039E020688168C90709D0007BA16B087050
:101E6000A06B401CA063E08F401EE0870CE0FFF7F2
:101E7000B9F8A0EB0901414503D3B8F1FF3F03D006
:101E800036E0B8F1000F33D0E08F0028E1D11DE03B
:101E900020688168C90709D0C068A16B0880A06B61
:101EA000801CA063E08F401EE0870CE0FFF79AF8EB
:101EB000A0EB0901414503D3B8F1FF3F03D017E080
:101EC000B8F1000F14D0E08F0028E1D14A46414616
:101ED000204600F0BBFD08B120206065606D00B1B8
:101EE0000125012084F8510084F850A0284683E79A
:101EF0000325F6E72DE9F84F044690F85000002737
:101F00001D461646894601280DD04FF0010B84F876
:101F100050B0FFF767F8804694F85100BA460128A0
:101F200004D002278EE00220BDE8F88FB9F1000F3F
:101F30007DD0002E7BD0032084F85100C4F854A03B
:101F4000C4F83090A686E686C4F838A0A4F83CA071
:101F5000A4F83EA0C4F844A0C4F840A0A068B0F51E
:101F6000004F04D12068016841F48041016020687D
:101F70000168490603D4016841F040010160E0684E
:101F8000B0F5006F606803D030B3012E24D040E07C
:101F900008B1012E1CD1206B21680088C86006E0C2
:101FA00020688168890709D5216B0988C160206B89
:101FB000801C2063E08E401EE08609E0FFF712F8E7
:101FC000A0EB0800A84202D3681C01D031E07DB329
:101FD000E08E0028E4D11FE0206B216800780873B0
:101FE00006E020688168890709D5216B09780173AB
:101FF000206B401C2063E08E401EE08609E0FEF767
:10200000F1FFA0EB0800A84202D3681C01D010E049
:1020100075B1E08E0028E4D142462946204600F002
:1020200043FD08B120206065A06820B107E008E00A
:10203000FFE7032706E02068C16880680090606DB4
:1020400000B1012784F851B084F850A038466BE7FE
:102050002DE9F84F044690F8500000270A9E1D46CF
:1020600092468B464FF0010901280ED0012084F8DA
:102070005000FEF7B7FF804694F8510061680128D0
:102080000CD0B1F5827F07D102E00220BDE8F88FC5
:10209000A16809B9042801D00227C2E0BBF1000FF2
:1020A00027D0BAF1000F24D01DB394F851000428B2
:1020B00002D0052084F8510000206065C4F838A0E3
:1020C000E587A587C4F830B0E586A58620646064FE
:1020D00020680168490603D4016841F040010160AD
:1020E000E068B0F5006F606805D0E8B3012D46D018
:1020F0007FE0012795E008B1012D39D1206B2168DF
:102100000088C860206B801C2063E08E401EE08643
:102110002EE02068816889070FD5E18E69B1B9F199
:10212000010F0AD1216B0988C160206B801C2063DC
:10213000E08E401EE0864FF0000920688168C907E4
:102140000CD0E18F51B1C068A16B0880A06B801CDE
:10215000A063E08F401EE0874FF00109FEF742FFC9
:10216000A0EB0800B04200E009E001D3701C50D1A0
:10217000E08E0028CDD1E08F0028CAD13FE0206B4F
:10218000216800780873206B401C2063E08E401E9D
:10219000E0862EE02068816889070FD5E18E69B15D
:1021A000B9F1010F0AD1216B09780173206B401C32
:1021B0002063E08E401EE0864FF0000920688168B1
:1021C000C9070CD0E18F51B1C068A16B0870A06B3A
:1021D000401CA063E08F401EE0874FF00109FEF72E
:1021E00001FFA0EB0800B04202D3701C01D010E048
:1021F0007EB1E08E0028CDD1E08F0028CAD14246C2
:102200003146204600F050FC28B1012720206065AF
:1022100007E0032705E0A06818B92068C168806856
:102220000090012084F85100002084F850003846C6
:102230002CE710B5401EB0F1807F01D3012010BD06
:102240004FF0E02460610F21601701F0BBFF002018
:10225000A06107202061002010BD70B590F83C20DF
:10226000012A19D0012400F83C4F0222427050F894
:102270003C3C5A689D6822F070060A6849683243FF
:1022800025F0800529435A6050F83C2C9160447039
:1022900000210170084670BD022070BD00B585B0F8
:1022A0000021009101910291039100680B4988423D
:1022B00012D10B48816941F008018161806969464A
:1022C00000F0080004904FF4E070009002200190AC
:1022D00003900448FEF790FD05B000BD00080040E3
:1022E00000100240000C014070B5044690F83C001C
:1022F0000D4601280DD0012684F83C60022084F8A8
:102300003D0042B1042A18D0082A2AD00C2A4DD107
:1023100039E0022070BD206800F0BEFC20688169B1
:1023200041F0080181612068816921F00401816127
:10233000206881692A69114311E0206800F0D4FC0B
:102340002068816941F4006181612068816921F41C
:1023500080618161206881692A6941EA0221816185
:1023600024E0206800F0ECFC2068C16941F008011D
:10237000C1612068C16921F00401C1612068C1699F
:102380002A69114311E0206800F006FD2068C16948
:1023900041F40061C1612068C16921F48061C161BB
:1023A0002068C1692A6941EA0221C16184F83D605F
:1023B000002084F83C0070BD10B5040003D094F8F0
:1023C0003D0010B107E0012010BD002084F83C0062
:1023D000204600F00DF8022084F83D00211D206801
:1023E00000F016FC012084F83D00002010BD000024
:1023F00008B500680649884208D10648C16941F01D
:102400000401C161C06900F00400009008BD000033
:10241000000800400010024010B50268044631B1C7
:10242000042908D0082922D00C2908D123E0D0683B
:1024300040F0020002E0D06840F00400D0600122C9
:10244000206800F01BFC0E492068884203D1416CD3
:1024500041F4004141642068816801F007010629C8
:1024600003D0016841F001010160002010BDD06877
:1024700040F00800E2E7D06840F01000DEE700001E
:10248000002C0140FEE70000F0B500230A243025AF
:1024900037261F4611E000BFB4EB107F02D905EBD1
:1024A000107C01E006EB107C01F813C001EB430C3B
:1024B00000015B1C8CF80170DBB29342ECD3F0BDE1
:1024C0003EB500241148009401940F490294016024
:1024D0008915816004730475022505614FF460213C
:1024E0004460C161FEF70CFA00940124019469462E
:1024F00006480294FEF778F969460448CDE900459C
:10250000FEF772F93EBD000000240140AC0100203E
:10251000F0B585B000242A480094019402940394F5
:10252000816941F010018161816901F0100104911C
:10253000816941F020018161816901F020010491EC
:10254000816941F004018161816901F00401049114
:10255000816941F008018161806900F00800049000
:1025600001F0D0FD174E4FF40055002229463046A9
:10257000FEF732FD144F002218213846FEF72CFDDD
:102580001120CDE90050022569463046CDE90245CB
:10259000FEF732FC042000900C48CDE901046946A6
:1025A0003846FEF729FC1820009001AA012082E895
:1025B000310069463846FEF71FFC05B0F0BD00004B
:1025C00000100240001001400008014000002110EE
:1025D0000C480B494FF4007201604FF48271416066
:1025E00000218160C1600161C0E905121822C0E9C3
:1025F0000721416281620A21C162FFF75DBB0000D1
:1026000000300140DC01002010B58AB0002407949E
:102610001C2168460894FDF7B0FD18481649016072
:102620004821C0E9011444F62061C0E90314846123
:10263000FFF7C2FE079407A910480894FFF70DFEA4
:10264000602000904FF47A70CDE9010400226946C1
:102650000A480494FFF748FE042269460748FFF73A
:1026600043FE082269460548FFF73EFE0348FFF790
:1026700015FE0AB010BD0000000800403402002022
:1026800010B500220F49104800F080FE08B1FEF797
:1026900046F80E490C4801F05BF808B1FEF73FF828
:1026A0000B49094800F07EFC08B1FEF738F80648EF
:1026B00001F0A4F8002803D0BDE81040FEF72FB8C1
:1026C00010BD00001C000020B80200207401002092
:1026D0006C000020FEE7704770B52A4C00252020D2
:1026E000E5702070257105206070601D057028461A
:1026F00001F0D0FF012001F0E7FF0520FEF76AFBA3
:102700000C21002002F036FD0F21052002F0A5FC6F
:10271000032002F08DFC022002F064FC08B10120CD
:10272000E070062002F038FC0646002002F05AFC59
:1027300002F0E0FC00211D2002F01CFD00211C2005
:1027400002F018FD25717021072002F013FD4C20C6
:1027500002F044FCE22002F087FCE12002F084FC5D
:1027600002F0C6FB002002F017FC20F0010100205F
:1027700002F000FD1EB1FF2E01D0012070BD00202F
:1027800070BD00007C0000202DE9F05F044648F693
:102790000F7B4FF0020A4FF480684AE1B0F8441012
:1027A00011F00F0629D030F82670390479D530F8A9
:1027B000261040F68F72114041F0800120F826105B
:1027C00004EB461595F8340105F59475002820684A
:1027D00068D0297830F8212052047DD5B0F85020F7
:1027E0000AEBC1010A4408EB4201415AC1F3090155
:1027F0005FEA010971D02A89D2E0C9062DD4018887
:1028000001EA0B0141F400410180206804F1280530
:10281000B0F850202B780AEBC3010A4408EB4201C0
:10282000405AC0F309006064E16B0844E063002192
:102830002046FEF790FC94F824000028ADD0A8694B
:102840000028AAD194F82400216840F08000A1F863
:102850004C00002084F82400EBE0018804F5947516
:102860000A0520D5B0F850202B78062101EBC301D2
:102870000A4408EB4201405A04F50C71C0F3090305
:10288000EB61EA88206801F027FC2068018840F6A7
:102890008F72114041F0800101802046FEF793FEC7
:1028A000C7E0A2E058E0090455D5018840F68F72D0
:1028B000114041F0800101802168B1F850202B784F
:1028C000062000EBC300024408EB4200085A8305CF
:1028D0009B0DEB6110D001E053E065E0696959B1EF
:1028E000EA88206801F0F8FBE969686908446861D2
:1028F00000212046FEF736FC2068B0F8501008444E
:10290000296900F20C4051B13E2910D84A08C90784
:1029100000D0521C4FF6FF7101EA82210FE00188BE
:1029200021F4F8410180018841F4004107E04A099F
:10293000C90600D1521E4FF4004141EA82210180B4
:10294000206801884BF68F72114081F4405148F2A3
:102950008002114301806CE0B0F850202B780621F2
:1029600001EBC3010A4408EB4201415AC1F30901DA
:102970005FEA010924D0EA884B46696901F0ACFBA3
:102980001EE0B0F85030062202EBC1015A1808EBE5
:102990004201415AC1F309015FEA010904D06A8981
:1029A0004B46696901F098FB2878226832F82010BC
:1029B00048F68F73194048F2C003194322F82010DB
:1029C000E8694844E861686900EB09026A61AB693B
:1029D00013B12869484504D929782046FEF7C2FB7F
:1029E00003E029782046FEF74AFC380621D5216805
:1029F00004EB461031F8262002EA0B0242F40042B2
:102A000021F826202168B1F8505010F8282F0AEB41
:102A1000C2022A4408EB4202895AC1F30901C1618A
:102A200042690A44426101788369204653B1FEF746
:102A300072FC2068B0F8441009043FF5AFAE0020E6
:102A4000BDE8F09FFEF787FBF3E77047F8B5044653
:102A500040684FF48273984217D1A0684FF48065A4
:102A6000B0F5004F01D0A8420FD12068066826F0CB
:102A7000400606606068984207D1A068A84204D169
:102A800000920B460022012103E000920B46002237
:102A90008021204600F018F8002804D0606D40F036
:102AA000200060650320F8BD38B50B46009204464F
:102AB0000022802100F008F8002804D0606D40F06A
:102AC00020006065032038BD2DE9F0411D46174602
:102AD0000E460446DDF8188008E0681C06D0FEF7B4
:102AE00081FAA0EB0800A8420BD255B1206880689B
:102AF00036EA000030D00020B842EED10020BDE818
:102B0000F0812068416821F0E00141606068B0F523
:102B1000827F0BD1A068B0F5004F02D0B0F5806F76
:102B200004D12068016821F040010160A06AB0F57D
:102B3000005F09D12068016821F40051016020681C
:102B4000016841F400510160012084F85100002027
:102B500084F850000320D2E70120CDE77047FEF74C
:102B600047BA30B593B028216846FDF706FB14211B
:102B70000AA8FDF702FB002401200F941094119481
:102B8000010412948DE8130004904FF4E010CDE995
:102B90000810022507956846FEF7FEFE0F20CDE9D6
:102BA0000A056802CDE90C4002210AA80E94FEF73E
:102BB00017FE12200F90A803CDE911040FA8FEF70D
:102BC00099FD13B030BD00000D48016841F00101CE
:102BD000016041680B4A1140416001680A4A114096
:102BE0000160016821F480210160416821F4FE0147
:102BF00041604FF41F0181600449C00308607047C1
:102C0000001002400000FFF8FFFFF6FE08ED00E0B4
:102C1000F0B50268164B174C174D4FF0804798429D
:102C200005D0B84203D0A04201D0A84203D122F07F
:102C300070064A683243984205D0B84203D0A04299
:102C400001D0A84203D122F44074CA6822434C69DF
:102C500022F08002224302608A68C2620A688262AD
:102C6000984201D10969016301214161F0BD000071
:102C7000002C0140000400400008004010B501F0A5
:102C80001F030121046A99408C430462016A9A403F
:102C90001143016210BD000030B5026A22F001024A
:102CA0000262026A4368846924F073050C682C434D
:102CB00022F002058A682A430A4DA8420BD122F06D
:102CC0000805CA6823F440732A434D6922F00402C0
:102CD0001D438B692B4343608461496841630262F1
:102CE00030BD0000002C014030B5026A22F0100215
:102CF0000262026A436884690D6824F4E64444EA87
:102D000005248D6822F0200242EA05120B4DA842EC
:102D10000ED1CD6822F0800242EA05124D6923F4FB
:102D2000406343EA85038D6922F0400243EA85034C
:102D30004360846149688163026230BD002C0140B8
:102D400030B5026A22F480720262036A4268C46982
:102D500023F4007324F073050C682C438D6843EA58
:102D600005230C4DA8420ED1CD6823F4006343EA3D
:102D700005234D6922F4405242EA05128D6923F47D
:102D8000806342EA05124260C4614968C16303621C
:102D900030BD0000002C014030B5026A22F48052A0
:102DA0000262046A4268C3690D6823F4E64343EA99
:102DB00005238D6824F4005444EA0534064DA842E6
:102DC00004D14D6922F4804242EA85124260C36117
:102DD00049680164046230BD002C01402DE9F041D6
:102DE000D0F8C032D0F8B822CAB101EB810400EBB0
:102DF00084040025E6693EB103EB41139B6BB6FBEF
:102E0000F3F703FB176323B1C2F814520020BDE8A7
:102E1000F08100231A46E56100F07DFCF6E7022010
:102E2000F5E770B50546D0F8B84200F07AFBC4F873
:102E30000C02D5F8B80248B1D5F8BC12D4F8040297
:102E4000CA6804F503719047002070BD022070BD70
:102E500070B504460026812100F0B6FA0025012154
:102E60002046E56200F0B0FA82212046C4F86C5199
:102E700000F0AAFA2564D4F8B80248B1D4F8BC022C
:102E800004F52E7440688047206800F014FE256029
:102E9000304670BD10B5D0E9AE4159B194F800028A
:102EA000FF2807D08B6894F8012221469847FF201D
:102EB00084F80002002010BD0A21018000487047FC
:102EC0009C0000204321018000487047EC00002056
:102ED0004321018000487047A80000204321018061
:102EE00000487047300100202DE9F04104460026DB
:102EF000007C4FF40077012590B34023022281210A
:102F0000204600F061FB4023E562022201212046B9
:102F100000F05AFB0823032282212046C4F86C519A
:102F200000F052FB4FF40770256400F0C5FDC4F8B3
:102F3000B802F8B10546D4F8BC020068804700200A
:102F4000C5F81402C5F81802207CD5F8042298B1FF
:102F500040230121204600F043FB3046BDE8F081CC
:102F6000FFE73B4602228121204600F02DFB3B4635
:102F7000E562CAE70126F0E73B46EAE710B5D0F87C
:102F8000B81269B1027C002AD1F8042205D040238E
:102F9000012100F025FB002010BD4FF40073F7E77E
:102FA000022010BD02460220002902D00020C2F8F3
:102FB000BC127047D0F8B802C0F804120020704765
:102FC000D0F8B802C0F81022C0F8081200207047EC
:102FD0002DE9FC410546D0F8B87200208DF80000BC
:102FE000ADF80400064608780C4610F0600121D0C8
:102FF00020293BD1E288AAB10006607807D5D5F830
:10300000BC128B6839469847E288394626E087F833
:103010000002A07987F80102E2883946284600F0CC
:103020006AF828E0D5F8BC12607800228B68214647
:10303000984720E0607820B10A2809D00B2815D1E4
:1030400010E095F89C02032810D1022201A905E0A6
:1030500095F89C02032809D101226946284600F010
:1030600064F808E095F89C02032804D0214628461D
:1030700000F036F802263046BDE8FC8110B5D0F8E5
:10308000B812A1B1D1F814220AB1012010BD012259
:10309000C1F81422D1F810220263B1F8102293B2C1
:1030A000D1F80822812100F036FB002010BD02205B
:1030B00010BD10B5D0F8B42252689047002010BD62
:1030C000134610B50A46002100F08AFA002010BD10
:1030D000134610B50A46002100F01DFB002010BD6C
:1030E00010B50446802100F0FBFA2046BDE81040F0
:1030F000002100F0F5BA10B50323C0F85C21C0F838
:103100009432C0F8602113460A46002100F068FAA4
:10311000002010BD10B505210023C0F894121A46F6
:10312000194600F05DFA002010BD10B50223C261FF
:10313000C0F89432026213460A46002100F0EBFA0E
:10314000002010BD10B504210023C0F894121A46C7
:10315000194600F0E0FA002010BD000010B50A4644
:10316000024903A000F0E2F8004810BD080A002060
:1031700043444320436F6E66696700001220088055
:10318000004870473C00002010B50A46024903A0E1
:1031900000F0CCF8004810BD080A0020434443204A
:1031A000496E7465726661636500000004200880E2
:1031B000004870473800002010B50A46024903A0B5
:1031C00000F0B4F8004810BD080A002053544D69BF
:1031D00063726F656C656374726F6E696373000010
:1031E00010B50A46024903A000F0A0F8004810BD3F
:1031F000080A002053544D333220566972747561A9
:103200006C20436F6D506F727400000010B51A206F
:1032100008800A480168001D0468001D006808183D
:1032200009D008220649FFF72FF905490422103179
:103230002046FFF729F90248801E10BDE8F7FF1F5E
:1032400052000020F8B504460020ADF80000488880
:103250000D46010A082948D2DFE801F047040917A2
:1032600047473C45D4F8B012207C0A6819E0207C1E
:1032700002260028D4F8B40205D0C16A68468847FF
:10328000014646703EE0816AF8E7C0B206282CD2BB
:10329000DFE800F0030A1014181CD4F8B0024268EA
:1032A00005E0694690471CE0D4F8B0028268E2B1BC
:1032B000207CF6E7D4F8B002C268F8E7D4F8B00290
:1032C0000269F4E7D4F8B0024269F0E7D4F8B0023A
:1032D0008269ECE7207C40B9D4F8B402416B6846BF
:1032E000884701460EE0207C20B129462046FFF7A2
:1032F000F7FEF8BDD4F8B402016B68468847014672
:1033000007204870BDF8000048B1EA8852B18242F7
:1033100000D90246ADF800202046FFF706FFE888F6
:103320000028E6D12046FFF70DFFF8BD70B5002359
:1033300000281ED00446002502E06D1CEDB2641C7E
:103340002678002EF9D1022404EB4504148012786B
:10335000CA545B1C0322CA5400245B1C06E0CA54F6
:103360005B1CDAB28C54521CD3B2401C0278002A87
:10337000F5D170BD01004FF0000004D0012901D04B
:10338000022901D0022070470120704710B580B19A
:10339000D0F8B43213B10023C0F8B43209B1C0F888
:1033A000B012012180F89C12027000F0BFF80020DA
:1033B00010BD022010BD10B5D0F8C002FDF7FEFE12
:1033C000BDE81040FFF7D6BF10B5D0F8C002FDF73A
:1033D000D1FEBDE81040FFF7CDBF2DE9F041174603
:1033E000044651B1D4F8B40242691AB194F89C026F
:1033F000032851D00220BDE8F081D4F89432002592
:1034000004F11400022B03D0042B3AD0C3B33CE0E8
:10341000D0E903639E4207D9F11AC1608AB23946E6
:103420002046FFF755FE12E08068B0FBF3F103FB86
:10343000110199B9984211D3D4F8981288420DD24B
:10344000002211462046FFF743FEC4F8985200239D
:103450001A461946204600F0C3F816E0D4F8B40224
:10346000C16829B194F89C02032801D120468847FD
:103470008021204600F034F92046FFF74BFE04E09F
:10348000FFE78021204600F02BF994F8A0020128E4
:1034900004D184F8A05201E0204690470020AAE71A
:1034A00070B51546044649B1D4F8B40282691AB120
:1034B00094F89C02032830D0022070BDD4F89412F6
:1034C00004F5AA70032902D005291ED027E0D0E90F
:1034D00003218A420BD9531AC3600846834200D3A2
:1034E00003469AB229462046FFF7EAFD17E0D4F8D2
:1034F000B402016929B194F89C02032801D1204645
:1035000088472046FFF71EFE09E000200146C4F868
:103510009402204600F0E4F801E0204690470020A5
:1035200070BDD0F8C002FDF775BE000010B50446AE
:103530001C481D49C0F86842C4F8C0020160082157
:1035400041600221816000218161C1610162FDF75A
:1035500083FF08B1FDF7E3F80022D4F8C002182376
:10356000114604F53074FDF7DBFD5823002280215D
:103570002068FDF7D5FDC023002281212068FDF7DA
:10358000CFFD4FF48873002201212068FDF7C8FDAC
:103590004FF48073002282212068FDF7C1FD0020D6
:1035A00010BD00009C070020005C00400A06D0F817
:1035B000C00201F07F0100EB411002D590F82A0013
:1035C000704790F82A01704710B51C461346D0F892
:1035D000C0022246FDF725FEBDE81040FFF7CABE37
:1035E00010B5D0F8C002FDF74AFEBDE81040FFF765
:1035F000C1BE70B50022044640231146FFF7E4FF28
:1036000040260125C4F8646133460022802120460B
:10361000C4F85851FFF7D8FF6662A56184F89C5240
:103620000020C4F894026060C4F8A402D4F8B80280
:1036300028B1D4F8B4020021426820469047002007
:1036400070BD90F89C12042903D190F89D1280F867
:103650009C120020704710B590F89C12032904D1E9
:10366000D0F8B412C96901B18847002010BD0174B7
:103670000020704710B5D0F8C002FDF790FFBDE8FC
:103680001040FFF777BE70B5044600F52A70054676
:1036900000F04AF80120C4F89402B4F8AE02C4F86D
:1036A000980294F8A80210F01F010AD001290DD049
:1036B000022910D000F08001204600F011F800200F
:1036C00070BD2946204600F09EF8F8E729462046BE
:1036D00000F0CAF9F3E72946204600F01DF9EEE7AD
:1036E00010B5D0F8C002FDF7E1FDBDE81040FFF7CE
:1036F00041BE10B5D0F8C002FDF76CFFBDE8104028
:10370000FFF738BE90F89C1280F89D12042180F8D3
:103710009C120020704710B5D0F8C002FDF7FBFDE9
:10372000BDE81040FFF726BE0A7802704A78427062
:103730008A78CB7802EB032242800A794B7902EB3C
:10374000032282808A79C97902EB0121C180704706
:103750000246002011B1C2F8B4127047022070472F
:1037600010B5D0F8B42202241AB11268904700B9FB
:103770000024204610BD000070B50E461E4D89780D
:1037800004462970012931D894F89C0202280BD0F4
:1037900003280FD031462046FFF7A2FC29782046A7
:1037A000BDE87040FFF785BCD9B10320616084F8A3
:1037B0009C0209E071B16068884212D0C1B2204613
:1037C000FFF777FC297861602046FFF7C9FF0228E0
:1037D0000CD006E0022084F89C0220466160FFF7CE
:1037E00068FC2046BDE87040FFF7ACBC314620467F
:1037F000BDE87040FFF774BC9800002010B5FFF7DB
:1038000078FF002010BD2DE9F0410A78002612F063
:10381000600208D0202A01D0402A70D1D0F8B4220A
:10382000926890476DE04B78002201250A2B66D202
:10383000DFE803F0405D6557650805652C29FFF753
:1038400001FD5EE004468888D8B9C888C8B94888B0
:10385000802816D200F07F0794F89C02032810D02D
:1038600084F89E7239462046FFF704FF2046FFF792
:1038700069FC1FB1022084F89C0242E084F89C524B
:103880003FE020463BE0FFF777FF3AE0CB88012B93
:1038900035D190F89C32012B04D0022B02D0032B9F
:1038A0002DD104E08260012200F1080116E001221E
:1038B000011D13E090F89C22012A03D0022A01D0B6
:1038C000032A1CD1CA88022A19D1C560D0F8A412D3
:1038D00009B10321C160022200F10C01FFF725FCB0
:1038E0000FE0498801290CD1C0F8A45211E090F8EA
:1038F0009C32012B08D0022B06D0032B04D0FFF7FB
:10390000EFFB3046BDE8F08149880129F9D1C0F8C4
:10391000A422FFF717FCF4E72DE9F0410A4604461C
:1039200010780027097910F060030AD0202B01D00D
:10393000402B50D1D4F8B4021146836820469847F2
:103940008FE0C0F34110012806D05078D0B3012891
:103950002AD003283FD107E0D4F8B4021146836887
:103960002046BDE8F041184794F89C02022802D096
:10397000032872D10AE071B380296ED02046FFF788
:10398000AFFE80212046FFF7ABFE6AE0508838B9D1
:1039900031B1802904D0D08810B92046FFF7A0FEAD
:1039A0002046FFF7CFFB5CE094F89C020228E2D0AF
:1039B000032852D1508898BB4806F1D02046FFF723
:1039C000FAFCEDE7FFE794F89C020026022803D0FA
:1039D000032842D112E040E009B180293DD1080618
:1039E00001F07F0000EB800004EB800101D5143171
:1039F00001E001F5AA7102220E602AE0080601F03A
:103A00000F0000EB800004EB80000AD5806920B332
:103A100001F07F0000EB800004EB800514350BE023
:103A20001FE0D0F85801C0B101F07F0000EB80002A
:103A300004EB800505F5AA7541B1802906D0204622
:103A4000FFF7B4FD10B10120286000E02E600222D3
:103A500029462046FFF769FB03E011462046FFF7A1
:103A60003FFB3846BDE8F08170B5054608780C4646
:103A700010F0600003D0202801D0402816D195F81E
:103A80009C02012803D0022801D003280ED12079FE
:103A900001280BD8D5F8B402826828469047E188FF
:103AA000014306D12846FFF74DFB02E02846FFF709
:103AB00017FB002070BD7047004870477C05002050
:103AC0002DE9F0470C784FF0000C30F8243048F620
:103AD0008F121340CA78002A7DD0012A7CD0022A96
:103AE00003D0032A79D04FF0010C48F2800213432F
:103AF00020F824300D7830F8254048F68F731C40AC
:103B00002C43144320F825400F7B48F6BF744BF636
:103B10008F7948F2C0054CF28006EFB391F800802F
:103B2000C24630F8287048F280181F4047EA08075C
:103B300020F82A70B0F8507091F80080074407EB25
:103B40000817B1F8088028F00108A7F80084B0F839
:103B5000507091F80080074407EB0817B1F80A800D
:103B600028F00108A7F808844F7891F80080002F0A
:103B700030F828704FEA47477ED0002F05DA30F83A
:103B800028701F40374320F828700F7830F82780BE
:103B90005FEA486809D500E033E030F8278008EA9A
:103BA000030848EA050820F827800F7830F82750E6
:103BB0001D40354320F82750CB780D78012B30F885
:103BC000253003EA040301D083F02003134320F8D7
:103BD00025300B7802E00BE010E00CE030F8231009
:103BE00001EA0901114320F823106046BDE8F0877F
:103BF00043F4007379E743F4C06376E743F48063EA
:103C000073E74F7827B3B0F850600F78064406EB9F
:103C10000716CF8827F00107A6F800740F7830F850
:103C20002760760605D530F827601E402E4320F821
:103C30002760CB78012B06D00B7830F82310214079
:103C400081F02001CEE70B7830F823102140C9E73E
:103C5000B0F850400D78044404EB0514CD8825F0ED
:103C60000105A4F80854B0F850400D78044404EB62
:103C7000051404F20C4400E030E00D6955B13E2D0E
:103C800010D86F08ED0700D07F1C4FF6FF7505EACE
:103C900087250FE0258825F4F8452580258845F4FB
:103CA000004507E06F09ED0600D17F1E4FF4004587
:103CB00045EA872525800D7830F82540640405D530
:103CC00030F825401C40344320F825400B7830F86C
:103CD000231001EA090181F4405183E7002F05DA3E
:103CE00030F828701F40374320F828700E7830F8DD
:103CF00026707F0605D530F826701F402F4320F828
:103D000026700F7830F827601E402E4320F8276079
:103D10000D7830F8253003EA090383F44053134348
:103D200020F825308FE7002070472DE9F04391F807
:103D30000C804F780A7848F6BF7C4BF68F7948F2B2
:103D4000800348F2C0054CF2800648F68F74B8F143
:103D5000000F28D0002F30F822704FEA474748D094
:103D6000002F05DA30F822702740374320F8227000
:103D70000A7830F822707F0605D530F82270274087
:103D80002F4320F822700D7830F82520224032434E
:103D900020F825200C7830F8242002EA0C021A437F
:103DA00020F824201AE07FB130F82260760605D58D
:103DB00030F8226026402E4320F822600A7830F83E
:103DC000221001EA0C010EE030F822506D0405D5F6
:103DD00030F822502540354320F822500A7830F838
:103DE000221001EA0901194320F822100020BDE841
:103DF000F083002F05DA30F822702740374320F88F
:103E000022700A7830F82260760605D530F82260F4
:103E100026402E4320F822600E7830F826202240DB
:103E20002A4320F826200C7830F8242002EA0902E0
:103E30001A4320F82420C1E7002070470020704773
:103E400000B50121A0F840100021A0F84010A0F812
:103E50004410A0F8501000F02EF9002000BD30F8FA
:103E6000401F21F43F41018000207047002070472F
:103E700030B50A7BB2BB4A7848F68F7548F28004A9
:103E8000C2B10B7830F82320520607D530F8232032
:103E90002A4048F2C0052A4320F82320CA78012A84
:103EA00020D00A7830F8221048F6BF73194081F00C
:103EB000200114E00A7830F822305B0407D530F88E
:103EC00022302B404CF280052B4320F822300A7818
:103ED00030F822104BF68F73194081F44051214382
:103EE00020F82210002030BD10B54A780978002A49
:103EF00048F2800330F8212005D048F6BF742240F4
:103F000082F0100204E04BF68F74224082F480525B
:103F10001A4320F82120002010BDF0B50E460546BA
:103F200091F801C00022097B3469B06948F280072A
:103F3000BCF1010F04D0A0424FD9001BB0614EE08C
:103F4000A04202D9001BB06101E00446B26169B130
:103F5000307835F820104906B5F85010294401EBA7
:103F6000001012D5A0F80C44728911E0A3B2F288B7
:103F70002846716900F0F8F8B5F850003178284407
:103F800000EB0110A0F804441EE0A0F804443289BC
:103F9000A3B22846716900F0E7F8707848F68F718F
:103FA00010B1012807D00FE0327835F82200084020
:103FB00048F2C00105E0327835F8220008404CF2A2
:103FC0008001084325F82200317835F8210048F6B1
:103FD000BF72104080F0300068E00446B2614FF6D6
:103FE000FF724FF4004381B3BCF1000F15D027E0FE
:103FF000018821F4F8410180018841F400410AE080
:104000003E2C3ED86108E30700D0491C02EA81211A
:1040100001E043EA8121018040E0B5F850003178A9
:10402000284400EB011000F204407CB13E2C15D86E
:1040300061085FEAC47C00D0491C02EA812101804A
:10404000707810B1012821D028E00FE0018821F418
:10405000F8410180018841F40041F0E761095FEA1D
:10406000C46C00D1491E43EA8121E8E7B5F850004D
:104070003178284400EB011000F20C40002CBFD135
:10408000B6E76109E206C4D1491EC2E7B5F850108F
:104090004819317800EB0110A0F80C44317835F85C
:1040A00021004BF68F72104080F44050384325F8C1
:1040B00021000020F0BD30F8401F41F43F41018055
:1040C000002070470148FDF73BB900009C07002025
:1040D000B0F844007047000010B500EB42005C08E7
:1040E00000F5806009D000BF30F8042B01F8012BE7
:1040F000120A01F8012B641EF6D1DA0701D00088FC
:10410000087010BD7FB54FF4805500240120009544
:10411000CDE9010402200F4E039069463046FCF7BA
:104120006BFE002229463046FCF756FF00214FF473
:10413000FA65491C89B2A942FBD30194694630460D
:104140000294FCF759FE0020401C80B2A842FBD329
:104150007FBD0000000801400020704711B9802198
:10416000A0F84C100020704710B55B1C00EB42001B
:104170005B0800F5806009D011F8012B11F8014BA4
:1041800042EA042220F8042B5B1EF5D110BDFEE7A5
:104190000FB47CB50C0009AD01D0611E00E0002118
:1041A000CDE90001064B6A462946089800F02AF836
:1041B000002C02D0009A002111707CBC5DF814FB29
:1041C0005B4600080907090E002804DB00F1E02027
:1041D00080F80014704700F00F0000F1E02080F834
:1041E000141D704702E008C8121F08C1002AFAD146
:1041F00070477047002001E001C1121F002AFBD167
:10420000704700002DE9FF4F8DB00F460546002690
:1042100006E025280BD0DDE90F1290476D1C761CB7
:1042200028780028F5D111B03046BDE8F08F002481
:10423000A246A1460122E94900E0044315F8013FE6
:10424000203B02FA03F00842F7D128782A2810D040
:104250006FF02F022878A0F13001092914D80AEB59
:104260008A0102EB410144F0020400EB010A6D1CDB
:10427000F0E701CF5FEA000A03D544F40054CAF125
:10428000000A44F002046D1C28782E2817D115F876
:10429000010F44F004042A280ED06FF02F02287872
:1042A000A0F1300109290AD809EB890102EB41018B
:1042B00000EB01096D1CF2E757F8049B6D1C287890
:1042C0006C280FD006DC4C2817D068280DD06A283F
:1042D00014D104E0742810D07A280FD10DE044F4F2
:1042E00000140AE044F4801401E044F440146978B6
:1042F000814202D104F580146D1C6D1C28786E2853
:104300001ED00CDC632830D004DC00288BD0582869
:1043100011D19FE0642867D069280CD164E073282C
:104320002DD004DC6F2872D0702804D194E0752859
:104330006ED078286DD0DDE90F129047761C4BE1E6
:10434000C4F30250022806D0032809D0042801CF64
:1043500009D0066040E101CFF117C0E900613BE1FF
:1043600001CF068038E1067036E117F8040B8DF8AE
:10437000000000208DF80100EB46012003E057F813
:1043800004BB4FF0FF3061074FF0000102D40DE095
:1043900008F10101884649450FDA8045F8DB1BF832
:1043A00008100029F4D108E008F101018846814293
:1043B000FADB1BF808100029F6D1DDE90F23AAEB80
:1043C00008008146214600F031F9304400EB080630
:1043D00004E0DDE90F121BF8010B9047B8F101086A
:1043E000F7D221464846F2E00A21C4F302524FF0C8
:1043F000000B0891022A04D001CFC117032A09D06B
:104400000AE0FF1D27F00707F7E8020108E02CE0AB
:104410001EE01FE000B2C117042A01D140B2C1174B
:10442000021E71F1000206DA0023D0EB030063EBF9
:1044300001012D2202E0220504D52B228DF8242033
:10444000012203E0E20701D02022F7E7904653E083
:104450000A210BE0102109E010214FF0000B44F07D
:1044600004044FF00809089103E008214FF0000B05
:104470000891C4F30252022A04D001CF0021032A7A
:1044800006D006E0FF1D27F00707F7E8020103E06A
:1044900080B2042A00D1C0B24FF0000822072BD509
:1044A0002A78702A07D0DDF820C08CF0100C5CEA66
:1044B0000B0C05D00EE040228DF82420012208E0EC
:1044C00050EA010306D030238DF824308DF82520E2
:1044D00002229046089B83F0080353EA0B030BD19A
:1044E00050EA010201D1620706D530228DF824205E
:1044F0004FF00108A9F101092A78582A04D038A2FE
:104500000B9208AA0A920BE03AA2F9E75B46089AD6
:10451000FBF7F4FE0B9B9B5C0A9A521E0A921370E7
:1045200050EA0102F2D10A98ADEB000000F1200B35
:10453000600702D524F4803401E04FF00109D94529
:1045400002DDA9EB0B0000E0002000EB0B01414471
:104550000890AAEB010AE00306D4DDE90F23214607
:10456000504600F063F806444FF0000908E009A93E
:1045700011F80900DDE90F12904709F10109761CD5
:10458000C145F4DBE0030CD5DDE90F23214650469D
:1045900000F04CF8064404E0DDE90F1230209047AB
:1045A000761C0899481E08900029F5DC08E00A9856
:1045B0000A990078491C0A91DDE90F129047761C90
:1045C000BBF10001ABF1010BF1DC21465046DDE906
:1045D0000F2300F019F806446D1C21E6092801009C
:1045E0003031323334353637383961626364656669
:1045F000000000003031323334353637383941422B
:1046000043444546000000002DE9F04104460025E2
:104610001E461746880404D405E039462020B047DA
:104620006D1C641EF9D52846BDE8F0812DE9F041E6
:10463000044600251E469046C80301D5302700E0F9
:104640002027880404D505E041463846B0476D1C54
:10465000641EF9D52846BDE8F0814A68002A06D0D4
:104660000A68531C0B6010704868401E4860704711
:1046700010B50446172000F08FFCC00701D00020C1
:1046800010BD24B100F0BAF8C0F342002070012040
:1046900010BD0000024608210148FCF79DBC000047
:1046A0000008014010B50446022000F075FC0549E1
:1046B0000A5D0121914020EA0101BDE8104002207D
:1046C00000F058BD0C52000810B5024610210448F5
:1046D000FCF782FCBDE81040052000F003B80000A4
:1046E000000801400649074A0968B1FBF2F141435D
:1046F00005480022426042688A42FCD370470000AD
:104700009400002040420F00001000E010B51D2072
:1047100000F042FC40F006011D2000F02BFD1C20A3
:1047200000F03AFC40F003011C2000F023FD024998
:104730000120087110BD00007C00002070B500242D
:10474000204600F029FC00F00C05012000F024FCBC
:1047500005F00801014304D0680701D5022400E0F8
:104760000124204670BD052000F016BC10B50620BF
:1047700000F012FC00F02800202803D0082803D005
:10478000002010BD022010BD012010BD3EB500204C
:104790008DF80400FFF798FF60208DF808004FF4B3
:1047A0007A74012301AA02A90C480094FDF750FC79
:1047B000012301AAFF2109480094FDF749FC0120CB
:1047C000FFF782FF9DF80400202806D9E22000F0C0
:1047D0004BFC0220FCF7FEFA00203EBDDC0100206D
:1047E00010B5062000F0D8FBC0F3410010BD00005A
:1047F00001480078704700007C000020FF2000F096
:1048000033BC10B5032000F0C7FB401E022801D8BE
:10481000012010BD002010BDACB0FCF7F1FBFBF790
:104820006DFFFEF79EF9FDF773FEFDF7D1FEFDF774
:1048300027FFFE48416941F00101416140690022C2
:1048400000F00100009011460B20FCF737FC0B2014
:10485000FCF726FCFDF734FEFDF7D6FE0021F448F8
:10486000FDF7DAFD0421F248FDF7D6FD0821F048F6
:10487000FDF7D2FDDFF8BC834FF4C871C8F8001013
:1048800008F1040940F62821C9F80010E8488838E2
:10489000FBF746FFE6480222E7498838FCF704F9AF
:1048A000FFF7AFFF0546FDF717FF0446FFF72EFFA2
:1048B0000B2000F093FBE14AE823012000F0E8FA26
:1048C00000F0EAFB4FF4FA60FCF784FA802101A8BB
:1048D000FBF753FC0DB1DAA300E0DAA3DBA2402121
:1048E00001A8FFF755FC01A8FBF752FC81B201A813
:1048F000FBF7D2FE4FF4FA752846FCF76BFA641EFC
:10490000FE2C01D2CEA300E0CEA3D4A2402101A868
:10491000FFF73EFC01A8FBF73BFC81B201A8FBF7C7
:10492000BBFEFE2C7DD2FFF769FF0346CEA24021DD
:1049300001A8FFF72DFC01A8FBF72AFC81B201A812
:10494000FBF7AAFE2846FCF745FAFFF749FF0446A5
:104950000346CAA2402101A8FFF71AFC01A8FBF7F1
:1049600017FC81B201A8FBF797FE2846FCF732FA44
:1049700034B1012C07D0022C08D0032C09D00CE054
:104980000D21C3A007E00D21C5A004E00E21C8A0A1
:1049900001E00D21CAA0FBF77FFE2846FCF71AFABA
:1049A000FFF7E1FE03460090C9A2402101A8FFF7EE
:1049B000EFFB01A8FBF7ECFB81B201A8FBF76CFE53
:1049C0002846FCF707FAFFF7D1FE04460346C7A2C4
:1049D000402101A8FFF7DCFB01A8FBF7D9FB81B25E
:1049E00001A8FBF759FE2846FCF7F4F9022C37D052
:1049F000012C4FF00C0136D0C2A000BFFBF74CFEDB
:104A00002846FCF7E7F9FFF7F3FE0346C1A2402171
:104A100001A8FFF7BDFB01A8FBF7BAFB81B201A813
:104A200000E03EE0FBF738FE2846FCF7D3F9FFF73D
:104A300085FE04460346BCA2402101A8FFF7A8FB5F
:104A400001A8FBF7A5FB81B201A8FBF725FE2846CC
:104A5000FCF7C0F94CB1012C0AD0022C0BD00EE0AF
:104A60000E21B7A0CAE7BAA0C8E71321BCA004E092
:104A70000C21C0A001E00D21C2A0FBF70DFE2846CD
:104A8000FCF7A8F901221146104600F0EDF96A4C36
:104A9000DFF8A0B10025A41E4FF4487A0BF1080BF3
:104AA0000DE02846FCF796F9BAA2402101A8FFF7CD
:104AB0006FFB01A8FBF76CFB81B201A8DDE72021A9
:104AC00021A8FBF75AFB8DF8A850207870B3257009
:104AD000594E3088FBF7D5FBB84FB94B3A46FBF738
:104AE0005EFB7A07B74BFBF75AFB0022B64BFBF78E
:104AF00056FBFBF7E7FB60617088FBF7C2FB3A46A9
:104B0000AF4BFBF74CFB7A07AE4BFBF748FB0022A1
:104B1000AD4BFBF744FBFBF7D5FBA06144480222F9
:104B200031468838FBF7C0FF358075802AA8FFF72B
:104B30009FFD002878D0A069FBF7B0FB3E4960706C
:104B40000122491E9DF8A80000F0F0FA9DF8A80087
:104B5000E0B10128B3D109219CA0FBF79DFDFFF72F
:104B600015FE014621A800F0D4F99DF884004D28D7
:104B7000A5D19DF885005628A1D19DF88600612811
:104B80009DD19DF88A00642805D016E0092192A0E5
:104B9000FBF782FD93E79DF88B0000EB800040005F
:104BA000A0609DF88C0000EB80004000E0609DF864
:104BB0008D0000EB8000400020612189A089FF2248
:104BC000014401F5C871A0F6282089B2404286B29E
:104BD00029910B4600969DF88700012100F03AF9D3
:104BE00087B200969DF88800FF220121299B00F0E2
:104BF00031F986B240F6980000909DF8890053463E
:104C0000FF22012100F026F981B2A068A0F69802E7
:104C1000524202EBD27200EB620000F59672B24291
:104C200003DA00F5FA70DDE0EFE0E5E000100240A5
:104C3000340200203408004002000020E2F0F0E8D6
:104C40004F4B00004E4F54204F4B0000436F6E6E91
:104C500065637465643A2025730D0A00496E6974B2
:104C60003A2025730D0A00005374617475733A205D
:104C7000307825303278200D0A00000050415F4C1A
:104C80006576656C3A20307825303278200A00004D
:104C9000524632345F50415F4D494E0D0A000000CC
:104CA000524632345F50415F4C4F570D0A000000AE
:104CB000524632345F50415F484947480D0A000070
:104CC000524632345F50415F4D41580D0A0000009A
:104CD0004368616E6E656C3A2030782530327820FA
:104CE000E28496202564200D0A000000446174616E
:104CF0005F526174653A20307825303278200D0A91
:104D000000000000524632345F314D4250530D0ACC
:104D1000000000005061796C6F61645F53697A65CF
:104D20003A202564200D0A004352435F4C656E67AC
:104D300074683A20307825303278200D0A0000005F
:104D4000524632345F3235304B4250530D0A000028
:104D5000524632345F324D4250530D0A000000007B
:104D6000524632345F4352435F44495341424C45BB
:104D7000440D0A00524632345F4352435F380D0AF5
:104D800000000000524632345F4352435F31360D1B
:104D90000A0000004D6F64756C65206973206E6FAA
:104DA0007420636F6E6E6563746564206F72206437
:104DB000656665637469766500000000B4D934E700
:104DC0000C684A3FEB511140000024405069706567
:104DD0002031200D0A000000706970652030200D20
:104DE0000A000000B04207DDA7F6B8304242C8F81A
:104DF0000020C9F8007005E0A6F5C860C8F80000FA
:104E0000C9F80060CBF8001059E6FCF7EBF806464D
:104E10004FF47A7715E000BFFCF7E4F8801BB84246
:104E200009D9FCF7DFF8801BB0F57A6F03D2CBF815
:104E300000A0012200E000224FF400510448FCF7DA
:104E4000CBF82AA8FFF714FC0028DDD1E4E7000026
:104E50000010014010B5401A029CE41A6043511A38
:104E600090FBF1F0184410BD70B5064614460D468F
:104E7000002000F091F8290141EA461141EA84112D
:104E8000BDE8704020F070000143002000F072B9CE
:104E90007FB5154E154D040006D0062C23D8022CE4
:104EA00009D2305D6A7808E010486A7802A9401D8E
:104EB000FBF74AF9F5E7305D012202A900F080F91D
:104EC00009482978801D005D00F054F9022000F0A7
:104ED00063F80549891F0A5D012191400843C1B269
:104EE000022000F047F97FBD125200087C0000202C
:104EF00010B5002000F050F8810709D440F00201FD
:104F0000002000F037F9BDE810400520FBF762BF34
:104F100010BD10B500F006F87021BDE81040072064
:104F200000F028B92DE9FC410C4619490646002736
:104F30000878844200D90446097909B1002000E0CC
:104F4000001BC5B261208DF800000020FFF7BCFBFC
:104F50006423012269460F48FCF7CCFF64232246F4
:104F600031460C48FCF71EFF002407E08DF8044092
:104F70006423012201A90748FCF714FF6D1EEDB25E
:104F8000F4D20120FFF7A0FB3846BDE8FC81000009
:104F90007C000020DC0100203EB500F01F008DF8F1
:104FA000080000208DF80400FFF78EFB4FF47A74A0
:104FB000012301AA02A908480094FDF749F801233A
:104FC00001AAFF2104480094FDF742F80120FFF7F1
:104FD0007BFB9DF804003EBDDC010020014605205E
:104FE00000F0C8B870B5064600250620FFF7D4FFCC
:104FF00020F028040D485521022E817002D0012E88
:1050000004D007E044F020049B2102E044F00804AF
:10501000412181702146062000F0ACF80620FFF700
:10502000BBFFA04200D10125284670BD7C000020B6
:1050300010B504460620FFF7AFFF00F0F801032C7F
:1050400001D9072003E0012000EB4400C0B2014376
:10505000BDE81040062000F08DB800F00F0060F3AE
:105060001F11042000F086B801B582B000208DF831
:105070000400FFF729FB4FF47A700090012301AA86
:1050800002A90448FCF7E4FF0120FFF71DFB9DF88F
:1050900004000EBDDC01002010B5FFF729FF002041
:1050A000FFF77AFF40F00101002000F063F8702163
:1050B000072000F05FF80120FFF7ECFA0C480078B9
:1050C00038B10B48401F411D42780A2000F078F8A3
:1050D00002E00020FFF7E6FA1D20FFF75DFF8007E2
:1050E00004D5BDE81040E120FFF7BEBF10BD0000B1
:1050F0008100002038B550208DF800000020FFF717
:10510000E3FA4FF47A742346012269460648FCF715
:10511000F1FE2346012273210348FCF7EBFE012038
:10512000FFF7D2FA38BD0000DC010020F8B50C46CC
:10513000202A00D3202200F0070040F0A8008DF8BC
:10514000000015460020FFF7BFFA4FF47A76334689
:10515000012269460648FCF7CDFE33462A46214621
:105160000348FCF7C7FE0120FFF7AEFAF8BD0000C8
:10517000DC01002003B583B000F01F00002140F0E7
:1051800020008DF808008DF804100846FFF79CFAFF
:1051900064200090012301AA02A90848FCF758FFE7
:1051A0004FF47A73012204A90448FCF7A3FE0120FE
:1051B000FFF78AFA9DF8040005B000BDDC0100206D
:1051C0003EB50D4600F01F00002140F020008DF894
:1051D000080014468DF804100846FFF775FA64209D
:1051E0000090012301AA02A90748FCF731FF6423BC
:1051F000224629460448FCF77DFE0120FFF764FAA9
:105200009DF804003EBD0000DC0100200001020307
:1052100004050A0B0C0D0E0F1112131415160000C5
:105220000000000000000102030406070809000056
:105230000000010203040000585200080000002092
:10524000AC010000CA0400081C530008AC01002097
:105250002C160000F4410008720103124006137D71
:10526000311B08AD041AB9041AE104130D321B08EE
:105270005D081A89041704030904120114020202CA
:105280001640830440571D020102034D031A1A03FE
:10529000135D061B0857041A53041A8104C1298898
:1052A00082105324F4130A062A029B291C1C0902AB
:1052B0004363111DC03209042D1A020B1305241675
:1052C0001001052401100901042402020524061717
:1052D0000107058203081C10090499320A1D0705FD
:1052E0000102432C070581070938442A40072A8117
:1052F00007112B0907440A3B044413E92E1B0851EC
:105300000413D12F42081A950C13DD2D1B08230816
:0C531000C11AD1102AC51C19041AB904D6
:04000005080000ED02
:00000001FF
