:020000040800F2
:10000000701A0020050100088B2B0008A5260008A7
:10001000892B00085906000843460008000000002C
:100020000000000000000000000000001130000887
:100030002507000800000000FF2E0008133000080C
:100040001F0100081F0100081F0100081F01000810
:100050001F0100081F0100081F0100081F01000800
:100060001F0100081F0100081F010008CD0600083D
:100070001F0100081F0100081F0100081F010008E0
:100080001F0100081F0100081F0100081F010008D0
:10009000794500081F0100081F0100081F01000822
:1000A0001F0100081F0100081F0100081F010008B0
:1000B0001F0100081F0100081F0100081F010008A0
:1000C0001F0100081F0100081F0100081F01000890
:1000D0001F0100081F0100081F0100081F01000880
:1000E0001F0100081F0100081F010008DFF810D0E1
:1000F00000F0DCF900480047914B0008AFF30080A6
:10010000701A00200648804706480047FEE7FEE7D1
:10011000FEE7FEE7FEE7FEE7FEE7FEE7FEE7FEE7B7
:100120007D300008ED000008202A04DB203A21FA87
:1001300002F00021704721FA02F3D040C2F1200200
:10014000914008431946704740EA01039B0703D0DA
:1001500009E008C9121F08C0042AFAD203E011F806
:10016000013B00F8013B521EF9D27047D2B201E0C8
:1001700000F8012B491EFBD270470022F6E710B5AC
:1001800013460A4604461946FFF7F0FF204610BD05
:10019000421C10F8011B0029FBD1801A70472DE981
:1001A000FE4F81EA030404F0004421F00041009472
:1001B0004FF0000B23F0004350EA01045ED052EAF6
:1001C00003045BD0C3F30A54C1F30A552C44A4F2D0
:1001D000F3340194A0FB0254C1F3130141F48011E4
:1001E000C3F3130343F4801301FB024400FB034EEB
:1001F000840A970A44EA815447EA8357A4FB0768B4
:1002000002958D0A05FB07854FEA932C04FB0C54DD
:100210002705029D4FEA065847EA1637B5EB080551
:100220006EEB070C870E920E47EA811742EA8312A3
:10023000A7FB0201B6EB0B0164EB00042B0D43EAB4
:100240000C335E1844EB1C50DA465146E7FB0201C2
:10025000C5F313044FEA0B3343EA14534FEA043255
:10026000019C43EA0603A4F10C040294009CCDE92E
:1002700000B400F0CCF803B0BDE8F08F00200146D8
:10028000F9E796230022114600F084B80EB540F23B
:10029000334102910021CDE900110A460B4600F0DE
:1002A000B6F803B000BD00F0004220F00040C10DE0
:1002B000C0F3160040F400007F2901DA00207047E7
:1002C000962903DCC1F19601C84001E096398840C7
:1002D000002AF4D04042704720F00040C10DC0F326
:1002E000160040F400007F2901DA002070479629AB
:1002F00003DCC1F19601C8407047963988407047C9
:1003000001F0004330B421F0004150EA010206D070
:100310000A0DA2F56072C1F31301002A02DC30BCA1
:1003200000207047440F44EAC104C100E01830BC0B
:1003300000EBC25000F025B830B50B460146002056
:100340002022012409E021FA02F59D4205D303FA97
:1003500002F5491B04FA02F52844151EA2F1010218
:10036000F1DC30BD202A04DB203A00FA02F1002043
:1003700070479140C2F1200320FA03F319439040E3
:1003800070470029A8BF7047401C490008BF20F0F3
:100390000100704710B4B0FA80FC00FA0CF050EA8B
:1003A000010404BF10BC704749B1CCF1200421FA0C
:1003B00004F411FA0CF118BF012121430843A3EB07
:1003C0000C01CB1D4FEA00614FEA102042BF002014
:1003D00010BC704700EBC35010440029A4BF10BCF0
:1003E0007047401C490008BF20F0010010BC704756
:1003F00010B5141E73F1000408DA401C41F100012D
:1004000092185B411A4301D120F0010010BD2DE983
:10041000F04D92469B4611B1B1FA81F202E0B0FA7A
:1004200080F220329046FFF79DFF04460F4640EAD7
:100430000A0041EA0B0153465A46084313D01146BD
:1004400053EA010019D0C8F140025046FFF76CFE94
:1004500005460E46504659464246FFF783FF08437D
:1004600005D0012004E020463946BDE8F08D00208B
:10047000054346EAE0762C4337430A986305E40ACD
:10048000A0EB08000022FD0A44EA47540A3002D5D6
:1004900000200146E9E7010510196941DDE9084539
:1004A00000196941BDE8F04DA2E70000064C074D78
:1004B00006E0E06840F0010394E807009847103434
:1004C000AC42F6D3FFF716FE905C0008B05C000863
:1004D00070B58C1810F8015B15F0070301D110F806
:1004E000013B2A1106D110F8012B03E010F8016B33
:1004F00001F8016B5B1EF9D12B0705D40023521EB6
:100500000DD401F8013BFAE710F8013BCB1A921C1D
:1005100003E013F8015B01F8015B521EF9D5A1421B
:10052000D8D3002070BD000070B504460068816813
:10053000C943C9071CD1816821F00101816000F025
:1005400021FE05460FE000BF00F01CFE401B022804
:1005500009D9A06A40F01000A062E06A40F00100F2
:10056000E062012070BD20688068C043C007EBD006
:10057000002070BD10B50146406A826A12F0500F2B
:1005800005D0006A026BBDE8104008461047816A3A
:1005900041F40071816201688968C1F34241072911
:1005A0000CD1017B51B9816A21F480718162816A29
:1005B000C90403D4816A41F00101816200F096F917
:1005C00010BD10B5406A816A41F040018162C16A84
:1005D00041F00401C16200F096F910BD10B5406A07
:1005E00000F090F910BD0000F8B500260446009612
:1005F00000688168C943C90728D0816841F00101BA
:100600008160134813490068B0FBF1F000E0401E20
:1006100000900028FBD100F0B5FD054611E000BFB9
:1006200000F0B0FD401B02280BD9A06A40F010007A
:10063000A062E06A40F00100E06284F824600120DA
:10064000F8BD20688068C043C007E9D10020F8BD2C
:100650008000002040420F00FEE70020704700208D
:100660007047000010B500220449054802F002FF5F
:100670000449034802F0F8FE002010BD8812002053
:1006800050050020A00E002010B50146034802F0DE
:10069000EBFE024802F0CCFE002010BD5005002009
:1006A000094A10B5D2F8B822D2F814220AB10120B2
:1006B00010BD0A460146044802F0DCFEBDE81040C9
:1006C000014802F035BF000050050020014800F04D
:1006D00035BB00000C05002030B590F840500124D7
:1006E000AC40C56B6C60046863604368102B0368A2
:1006F00003D099600068C26030BD9A600068C16034
:1007000030BD00000548016841F080710160044877
:10071000016841F00101016070470000FCED00E05C
:10072000001000E070477047F8B5002504460095BA
:1007300090F82400012808D0012084F824002046E5
:10074000FFF7F2FE060002D04BE00220F8BDA06ADF
:1007500020F4885040F00200A062022001F036F838
:1007600022490968B1FBF0F0400000E0401E009013
:100770000028FBD12046FFF737FF2068816841F051
:100780000801816000F0FEFC074604E000F0FAFC7E
:10079000C01B0A2811D8206880680007F6D420689A
:1007A000816841F00401816000F0ECFC07460EE036
:1007B00000F0E8FCC01B0A2809D9A06A20F002005A
:1007C00040F01000A06284F824500120F8BD206899
:1007D00080684007ECD4A06A20F0020040F00100DD
:1007E000A06284F824503046F8BD0000800000204C
:1007F000F8B50024009490F824202546012A12D050
:10080000012280F824204A681F23072A0DD2066897
:10081000776B521E02EB820293409F430B6893401A
:100820001F43776319E00220F8BD06680D2A0AD23B
:10083000376BD21F02EB820293409F430B689340B9
:100840001F43376309E0F76A0D3A02EB82029340D7
:100850009F430B6893401F43F7620A6807230668AB
:100860000A2A0AD3F7680A3A02EB420293409F43EE
:100870008B6893401F43F76008E0376902EB420240
:1008800093409F438B6893401F4337610A68102A47
:1008900001D0112A20D1124B02689A4217D19368D5
:1008A0001B0219D4936843F400039360096810296C
:1008B00012D10C490C4A0968B1FBF2F101EB81013C
:1008C000490000E0491E00910029FBD104E0816A43
:1008D00041F020018162012480F824502046F8BDB7
:1008E000002401408000002040420F0000680349BE
:1008F000884202D10249012008707047002401405B
:100900000A000020704770472DE9F0414FF00007C2
:1009100004003D467ED0A06A002628B9E66284F82D
:100920002460204600F07EF82046FFF7FDFDA16A16
:10093000C90600D420B1A06A40F01000A06269E0AE
:10094000A16A21F4885141F00201A1626268E16963
:10095000237B0A4347EA43010A43A1684FF48077A7
:10096000B94209D0012907D05FF0000194F814C002
:10097000BCF1010F02D00AE03946F7E7F3B1A36AF0
:1009800043F02003A362E36A43F00103E3622368B8
:10099000D3F804C02CF4694C4CEA010CC3F804C031
:1009A00021688B68DFF870C003EA0C0313438B6087
:1009B000A168B9420BD0012909D00CE0DFF85CC076
:1009C000A3690CEB43330B4343F40061DFE7218A57
:1009D0000D05A5F580152168CB6A23F470032B4320
:1009E000CB62216889680E4B1940914208D1E662BA
:1009F000A16A21F0020141F00101A162BDE8F0818C
:100A0000A06A20F0020040F01000A062E06A40F00E
:100A10000100E0620120F1E7FDF7E1FF00E0FFFFE8
:100A2000FE0E1FFF70B586B00025064600950195A5
:100A3000029503950068204988423BD11F49886987
:100A400040F400708861886900F40070049088693F
:100A500040F004008861886900F00400049088690F
:100A600040F0080088618869032400F008000490C1
:100A7000009469460194124800F082FA0094694695
:100A80001048019400F07CFA104C0F48C4E90005AE
:100A90008020C4E902504000206180006061202075
:100AA000C4E90605204600F0F3F908B1FFF73BFE64
:100AB0003462666206B070BD00240140001002403E
:100AC00000080140000C0140080002400C05002015
:100AD0002DE9F047894604463B4900683B4F0E1D0F
:100AE0009046884201D0B84207D1306810F4702F88
:100AF00003D001252846BDE8F08794F8240001289A
:100B00000CD0012084F824002046FFF76DFD05007D
:100B10004FF0000004D084F82400EBE70220EAE75D
:100B2000A16A40F60162914341F48071A16221689B
:100B3000B94218D1326812F4702F14D0A16A41F46E
:100B40008011A1623168490505D5A16A21F40051DF
:100B500041F48051A162A16AC9040AD5E16A21F079
:100B60000601E16206E0A26A22F48012A2624968EC
:100B7000E9E7E06284F82400216A15488862216A66
:100B80001448C862216A1448086321686FF00200A3
:100B900008602068816841F4807181602168434663
:100BA0004A464C31206A00F0A1F920688168C1F3FF
:100BB00042410729816803D041F48011816099E79F
:100BC00041F4A001FAE700000024014000280140A0
:100BD00075050008DD050008C305000870B504466A
:100BE00090F8240001280DD0012084F8240020462C
:100BF000FFF7FAFC02004FF0000005D084F8240053
:100C0000104670BD022070BDA16A40F60163994391
:100C100041F48071A162224D23682249AB4218D170
:100C20000E6816F4702F14D0A66A46F48016A662D9
:100C30000E68760505D5A66A26F4005646F4805659
:100C4000A662A66AF6040AD5E66A26F00606E662F9
:100C500006E0A66A26F48016A6625E68E9E7E0620E
:100C600084F824006FF0020018602068436843F0A5
:100C70002003436020688368C3F34243072B05D1F8
:100C8000A84208D1096811F4702F04D0816841F49A
:100C900080118160B4E7816841F4A001F9E70000A8
:100CA000002801400424014010B5044690F82400B7
:100CB000012807D0012084F824002046FFF734FCE7
:100CC00010B10EE0022010BD2068816821F480710F
:100CD0008160206A00F00EF8A16A30B141F0400155
:100CE000A162002184F8241010BD21F4885141F044
:100CF0000101F5E710B590F821100022022905D076
:100D00000421816380F82020012010BD01680B6858
:100D100023F00E030B6001680B6823F001030B60E6
:100D200090F84030C46B012101FA03F3636080F84E
:100D3000211080F82020104610BD00002DE9F05F42
:100D4000C16B0C6801680B68D0F840C0042202FA3D
:100D50000CF2494DDFF824A1494E4A4FDFF828B183
:100D6000DFF828E122422CD05A072AD50A689206D9
:100D700003D40A6822F004020A600168A94201D182
:100D8000042219E0514501D1402215E0B14202D1BF
:100D90004FF4806210E0B94202D14FF480420BE080
:100DA000594502D14FF4802206E0714502D14FF43B
:100DB000800201E04FF080622F4908394A60C16A21
:100DC0003BE04FF0020808FA0CF818EA040F4FF065
:100DD00000094FF0010235D05FEA837832D50B6805
:100DE0009B0605D40B6823F00A030B6080F82120D2
:100DF0000168A94201D1022219E0514501D1202206
:100E000015E0B14202D14FF4007210E0B94202D1B4
:100E10004FF400520BE0594502D14FF4003206E086
:100E2000714502D14FF4001201E04FF000721249F7
:100E300008394A6080F82090816A00291AD0BDE8FC
:100E4000F05F0847082505FA0CF5254212D01B076C
:100E500010D50B6823F00E030B6090F84010C36BA5
:100E600002FA01F15960826380F8212080F8209015
:100E7000016BE2E7BDE8F09F080002401C00024061
:100E80003000024044000240580002406C00024022
:100E900030B528B308C8134914221944B1FBF2F144
:100EA0008900C16310498163022141771A6843F6C2
:100EB000F0718A43D0E900142143D0E902452C4364
:100EC0002143046921434469214384692143114337
:100ED000196000214163012242770177084630BD45
:100EE000012030BDF8FFFDBF0000024070B5044690
:100EF00090F82000002501280CD0012084F8200063
:100F000094F821600020012E06D084F820000225EC
:100F1000284670BD022070BD022684F82160A063BF
:100F20002068066826F0010606602046FFF7D4FB1D
:100F3000E06A00282068016802D041F00E0106E056
:100F400021F0040101602068016841F00A0101609C
:100F50002068016841F001010160D9E770B50446DD
:100F600000F010F90546601C02D0044800780444E3
:100F700000F008F9401BA042FAD370BD84000020A5
:100F80002DE9F84FDFF8B891002409F1040A0AF1BD
:100F9000040B23460F270BF1040EC9E00125A540E1
:100FA0002A40AA427DD1674ED1F804C0ACEB0608B6
:100FB000B44532D014DCBCF1030F3AD009DCBCF1EB
:100FC000000F2AD0BCF1010F1CD0BCF1020F31D1AF
:100FD0001DE0BCF1110F17D0BCF1120F2AD119E09E
:100FE000B8F5881F19D006DCB8F5803F15D0B8F5E4
:100FF000801F1FD111E0B8F5001F0ED0B8F5041FF7
:1010000018D10AE0CB6815E0CB681B1D12E0CB6855
:1010100008330FE0CB680C330CE08B682BB1012B4D
:101020004FF0080303D0456104E0042302E00561AA
:1010300000E00023FF2A01D8064601E000F1040683
:101040004FEA840501D9A5F12005D6F8008007FAFA
:1010500005FC28EA0C0803FA05F548EA0508C6F875
:1010600000804D68ED0062D5374DAE6946F001064F
:10107000AE61AD6924F0030605F001050095334D1E
:1010800006EB050CDCF80850A607360F07FA06F841
:1010900025EA0805DFF8B880404503D14FF0000885
:1010A00017E044E0DFF8AC80404502D14FF0010882
:1010B0000FE0DFF8A480404502D14FF0020808E0BD
:1010C000DFF89880404502D14FF0030801E04FF06F
:1010D000040808FA06F848EA0508CCF808804D68C4
:1010E000D9F80060ED034D4601D5164300E0964364
:1010F0002E604D68DAF80060AD03554601D5164301
:1011000000E096432E604D68DBF80060ED025D461E
:1011100001D5164300E096432E604D68DEF800606E
:10112000AD02754601D5164300E096432E60641C5F
:101130000D682A46E5407FF431AFBDE8F88F000026
:1011400000040140000011100010024000000140A6
:1011500000080140000C0140001001400014014053
:101160008068084000D001207047C2680A4201D060
:1011700041617047016170470AB10161704709041C
:10118000FBE70000014880687047000084000020F1
:101190000248816802781144816070478400002011
:1011A000074810B5016841F010010160032000F00C
:1011B00075F8002000F006F800F024F8002010BDBB
:1011C0000020024070B50D4D04464FF47A71287826
:1011D000B1FBF0F00A490968B1FBF0F001F0F9F851
:1011E00048B9102C07D200222146501E00F036F8D4
:1011F00000206C6070BD012070BD000084000020E4
:10120000800000200C4808B5816941F0010181612E
:10121000816901F001010091C16941F08051C16112
:10122000C06900F0805000900448416821F0E061FE
:1012300041F00071416008BD001002400000014013
:10124000002809DB00F01F020121914040098000C5
:1012500000F1E020C0F8001170470000F0B40E4B20
:101260001B680C46C3F30223C3F10705042D00D904
:101270000425191D072901D2002300E0DB1E0126E9
:1012800006FA05F1491E214099409E40761E1640FF
:101290003143F0BC03F0F0B90CED00E0064900F07A
:1012A000070208684FF6FF03184040EA0220034A8D
:1012B00010430860704700000CED00E00000FA05E4
:1012C00010B50C0605D501F0070100EB41102830E0
:1012D00003E000EB411000F5947099B232B10122A5
:1012E00002730181190C4181002010BD002202739C
:1012F000C180F9E7704700EB4112D0F86802D26B69
:1013000002F0C5BA00EB4112D0F86802D2F83C21D5
:1013100002F020BB70B504460B0601F0070004EB99
:1013200040114FF001024FF0000503D581F829204C
:10133000283103E081F8295101F59471087094F87F
:101340002802012808D084F82822206802F047FFEC
:1013500084F82852002070BD022070BD70B504468C
:1013600001F00F006268904201D9012070BD0B06A8
:1013700001F0070004EB40114FF001024FF00005AF
:1013800003D581F82920283103E081F8295101F59E
:1013900094718D70087094F82802012808D084F8A0
:1013A0002822206802F0BEFF84F82852002070BD79
:1013B000022070BD01F0070100EB4110D0F844019C
:1013C00070472DE9F04104460F0601F0070004EBD9
:1013D00040114FF001064FF0000503D581F8296058
:1013E000283103E081F8295101F5947108700A61F0
:1013F000CB704A7802B1C881022B00D10D7194F8EC
:101400002802012809D084F82862206802F0B2FD81
:10141000284684F82852BDE8F0810220FBE770B529
:101420000C4601F0070500EB4511C1E94F230022EE
:10143000C1F8442181F8292181F8285101F59471DE
:101440006207006802F0C3FF002070BD70B504465B
:101450000D4601F007006168884201D9012070BD86
:1014600029064FF000064FF0010205D504EB4011AC
:1014700081F82920283105E004EB451181F8296124
:1014800001F594718A70087094F82802012807D039
:1014900084F82822206802F081FF680702D006E065
:1014A000022070BD04F50C71206802F039FF84F849
:1014B0002862002070BD70B50C4601F0070500EBF6
:1014C0004511C1E90F2300224A64012281F8292035
:1014D00001F8285F6207006802F079FF002070BD04
:1014E00010B50446006803F04DF8000402D520460C
:1014F00001F0A4FB206803F045F840050CD52068F6
:1015000030F8441F21F480610180204600F0FCF88F
:101510000021204600F013F9206803F033F840045E
:1015200005D5206830F8441F21F4804101802068EF
:1015300003F028F8800405D5206830F8441F21F412
:1015400000510180206803F01DF8C00414D5206804
:1015500030F8401F21F004010180206830F8401F5E
:1015600021F008010180204600F0E1F8206830F801
:10157000441F21F480510180206803F003F8000526
:101580001FD5206830F8401F41F008010180206815
:1015900030F8441F21F400610180206830F8401FBA
:1015A00041F004010180206802F0ECFFC00405D581
:1015B000206830F8441F21F480510180204600F05B
:1015C000F3F8206802F0DEFF800508D5206830F8C7
:1015D000441F21F400710180204600F0ACF820681F
:1015E00002F0D0FFC00505D5206830F8441F21F473
:1015F0008071018010BD00002DE9F04186B004002B
:1016000004D094F82902002520B108E0012006B09A
:10161000BDE8F08184F82852204600F057F80320F6
:1016200084F82902206802F074FE04F110011422EB
:1016300088466846FEF788FD94E80F0002F0CDFD6D
:101640000227B0BB0021206802F0E0FF0020012645
:101650000DE000BF04EB401181F8296001F8280F6C
:10166000C881CD700D614D61401CC0B28D61616853
:101670008142EFD800200FE004EB401181F829519E
:1016800081F8280181F82B51C1F83851C1F83C513B
:10169000401CC0B2C1F8405161688142ECD81422AC
:1016A00041466846FEF750FD94E80F0002F022FE26
:1016B00010B184F82972A9E784F8245084F82962CB
:1016C000206802F015FE0020A1E7000008B50068C0
:1016D0000B49884212D10B48C16941F40001C16134
:1016E000C069002200F40000009011461420FFF7AA
:1016F000B5FDBDE808401420FFF7A2BD08BD0000FD
:10170000005C00400010024070B50446806801256E
:10171000022801D0FFF707F82946D4F8680202F042
:1017200000FAD4F86802BDE8704002F0BCB9D0F805
:10173000680202F0E0B9D0F8680202F0E6B910B52C
:10174000044690F8280201280BD0012084F82802D2
:1017500084F82410206802F05BFF002084F828023F
:1017600010BD022010BDD0F8682200F50C711046A3
:1017700002F0E3B910B5044690F82802012810D011
:10178000012084F8280201462046FFF7B3FD2068B7
:1017900002F0ACFD206802F0E8FE002084F8280288
:1017A00010BD022010BD000010B50446D0F868023C
:1017B00002F002FAA069002804D00348016841F051
:1017C0000601016010BD000010ED00E010B529A475
:1017D00001461DCC86B08DE81D002AA02A4C006869
:1017E00004900020012923D002293AD010291DD1CC
:1017F00061682268D20119D5C1F38342C9031DF87B
:10180000020009D5616804AAC1F34041515C1F4A36
:10181000B2FBF1F1484301E01D49484361684902C8
:1018200004D440005FF00301B0FBF1F006B010BD3E
:10183000226AC2F30121012903D1920701D5C8030D
:10184000F4E7022905D1626A920702D549F64040C1
:10185000ECE70329EAD121688903E7D54FF2244058
:10186000E4E700F023F96168C1F38131491C4900C4
:10187000DAE7000002030405060708090A0B0C0D4D
:101880000E0F1010010200000010024000127A003A
:1018900000093D002DE9F84305460078354CC007A6
:1018A00054D0E0690026C00008D4E06940F08050C0
:1018B000E061E069012600F0805000902E48016848
:1018C000C90512D40168804641F480710160FFF7B8
:1018D00059FC074605E000BFFFF754FCC01B642815
:1018E00023D8D8F80000C005F6D5206A10F440705F
:1018F00021D0A98801F4407181421CD0206A1F497F
:10190000012220F440700A6000220A602062C007B1
:1019100011D0FFF737FC074641F2883808E000BFD6
:10192000FFF730FCC11B414502D90320BDE8F88315
:10193000206A8007F4D5206A696820F44070084363
:1019400020621EB1E06920F08050E06128788007B5
:1019500005D56068A96820F4404008436060287895
:10196000C00605D56068E96820F48000084360601F
:101970000020DBE7001002400070004040044242BB
:101980002DE9F0470F46050061D0434E306800F066
:101990000700B84209D2306820F0070038433060B1
:1019A000306800F00700B84251D128683B4C8107ED
:1019B00012D5400703D5606840F4E0606060287885
:1019C000000703D5606840F4605060606068A968F3
:1019D00020F0F000084360602878C00728D06868CD
:1019E000012810D02168022810D0890700292EDA9A
:1019F000616821F0030101436160FFF7C3FB80468A
:101A000041F288390DE021688903EFE78901EDE7AC
:101A1000FFF7B8FBA0EB0801494502D90320BDE858
:101A2000F0876068696800F00C00B0EB810FEFD1BF
:101A3000306800F00700B8420BD9306820F007008A
:101A400038433060306800F00700B84201D0012010
:101A5000E5E72878400705D56068E96820F4E0608C
:101A6000084360602878000706D56068296920F47B
:101A7000605040EAC100606000F028F86168084AE0
:101A8000C1F30311515CC84006490860064800686C
:101A9000FFF798FB0020C2E7002002400010024040
:101AA000145C0008800000208800002004480549DC
:101AB00000684968044AC1F3C221515CC8407047BC
:101AC0008000002000100240245C000812A185B0B4
:101AD0000FC98DE80F0014A0144A006804905168E3
:101AE000134801F00C03042B10D0082B0ED1C1F3C6
:101AF0008343C9031DF803000AD5516804AAC1F342
:101B00004041515C0A4A5043B0FBF1F005B07047C8
:101B100008494843FAE700000203040506070809DC
:101B20000A0B0C0D0E0F10100102000000100240F5
:101B300000127A0000093D002DE9F84F040070D032
:101B40002078C04DC00749D06868C0F381000128E3
:101B500007D06868C0F38100022809D16868C00313
:101B600006D52868800339D560680028E7D035E0BD
:101B70006068B0F5803F0BD010B1B0F5A02F11D048
:101B8000286820F480302860286820F4802002E053
:101B9000286840F480302860606890B1FFF7F2FA5E
:101BA00006460AE0286840F480202860F0E700BF7D
:101BB000FFF7E8FA801B642873D828688003F7D5FC
:101BC0000CE0FFF7DFFA064605E000BFFFF7DAFAA0
:101BD000801B6428F0D828688003F7D420789A4EB8
:101BE00080074FF001094FF0000839D5686810F000
:101BF0000C0F07D06868C0F38100022809D168681B
:101C0000C00306D42868800714D52069012808D1AC
:101C100010E02069B0B1C6F80090FFF7B3FA0746AC
:101C200005E00AE1FFF7AEFAC01B0228C4D8286815
:101C30008007F7D52868616920F0F80040EAC10004
:101C400028600DE0C6F80080FFF79CFA074604E024
:101C5000FFF798FAC01B022823D828688007F7D41A
:101C6000207800072CD57948A169D9B1C0F8009037
:101C7000FFF788FA074604E0FFF784FAC01B022842
:101C80000FD8686A8007F7D571484FF4FA51006899
:101C9000B0FBF1F0009000BF0098411E0091FAD215
:101CA0000EE080E0C0F80080FFF76CFA074604E021
:101CB000FFF768FAC01B022875D8686A8007F7D456
:101CC0002078400760D5E8690027C00008D4E8699B
:101CD00040F08050E861E869012700F080500090F2
:101CE0005C480168C90513D40168834641F48071DA
:101CF0000160FFF747FA824606E000BFFFF742FAAD
:101D0000A0EB0A0064284ED8DBF80000C005F5D52A
:101D1000E06801280AD008B1052813D0286A20F00D
:101D200001002862286A20F0040002E0286A40F0DE
:101D300001002862E06841F2883B98B1FFF722FA7F
:101D400082460BE0286A40F004002862EEE700BFFC
:101D5000FFF718FAA0EB0A0159455AD8286A8007FC
:101D6000F6D50CE0FFF70EFA824605E0FFF70AFA17
:101D7000A0EB0A0159454CD8286A8007F6D41FB158
:101D8000E86920F08050E861E06988B36968C1F3D0
:101D90008101022944D00228C6F8608004D0FFF7F0
:101DA000F1F9044638E034E0FFF7ECF9074604E0C7
:101DB000FFF7E8F9C01B02282BD828688001F7D468
:101DC000206AB0F5803F05D16868A16820F4003032
:101DD00008436860D4E908010843696821F4741174
:101DE00008436860C6F86090FFF7CCF9044606E047
:101DF00025E000BFFFF7C6F9001B022809D82868B4
:101E00008001F7D51BE000BFFFF7BCF9001B0228DB
:101E100002D90320BDE8F88F28688001F4D40EE0D1
:101E20000128F7D06868226A00F48031914204D119
:101E3000616A00F47010884201D00120EAE70020B6
:101E4000E8E70000001002400000424280044242E5
:101E5000800000200070004070B5040005D000250F
:101E6000A56294F8510010B106E0012070BD84F81D
:101E70005050204600F02EF8022084F851002068CF
:101E8000016821F040010160D4E901010843D4E96F
:101E900003121143084361690843218B01F4007167
:101EA0000843E1690843216A0843A16A084321689D
:101EB0000860A069042101EA104021684860206898
:101EC000C16921F40061C1616565012084F8510098
:101ED000002070BD30B585B00024009401940294B8
:101EE000039400681449884223D11448816941F45D
:101EF00080518161816901F480510491816941F0CF
:101F00000401816180690E4D00F004000490A0205E
:101F10000090022001900320039069462846FFF7B5
:101F20002FF84020CDE90004694628460294FFF7C7
:101F300027F805B030BD000000300140001002401D
:101F4000000801402DE9F84F0446406800259846F6
:101F500016460F464FF0040BB0F5827F01D1A06802
:101F600088B194F85000012818D0012084F850005E
:101F7000FFF708F9814694F851004FF0000A012854
:101F80000ED002257DE084F851B013460A46204663
:101F9000CDF8008000F02CF9BDE8F88F0220FBE7B7
:101FA000002F6DD0002E6BD084F851B0C4F854A02F
:101FB000A763A687E687C4F830A0A4F834A0A4F8E5
:101FC00036A0C4F840A0C4F844A0A068B0F5004F03
:101FD00004D12068016821F4804101602068016813
:101FE000490603D4016841F040010160E068D8B1BE
:101FF00039E020688168C90709D0007BA16B0870AF
:10200000A06B401CA063E08F401EE0870CE0FFF750
:10201000B9F8A0EB0901414503D3B8F1FF3F03D064
:1020200036E0B8F1000F33D0E08F0028E1D11DE099
:1020300020688168C90709D0C068A16B0880A06BBF
:10204000801CA063E08F401EE0870CE0FFF79AF849
:10205000A0EB0901414503D3B8F1FF3F03D017E0DE
:10206000B8F1000F14D0E08F0028E1D14A46414674
:10207000204600F045FF08B120206065606D00B18A
:102080000125012084F8510084F850A0284683E7F8
:102090000325F6E72DE9F84F044690F85000002795
:1020A0001D461646894601280DD04FF0010B84F8D5
:1020B00050B0FFF767F8804694F85100BA460128FF
:1020C00004D002278EE00220BDE8F88FB9F1000F9E
:1020D0007DD0002E7BD0032084F85100C4F854A09A
:1020E000C4F83090A686E686C4F838A0A4F83CA0D0
:1020F000A4F83EA0C4F844A0C4F840A0A068B0F57D
:10210000004F04D12068016841F4804101602068DB
:102110000168490603D4016841F040010160E068AC
:10212000B0F5006F606803D030B3012E24D040E0DA
:1021300008B1012E1CD1206B21680088C86006E020
:1021400020688168890709D5216B0988C160206BE7
:10215000801C2063E08E401EE08609E0FFF712F845
:10216000A0EB0800A84202D3681C01D031E07DB387
:10217000E08E0028E4D11FE0206B2168007808730E
:1021800006E020688168890709D5216B0978017309
:10219000206B401C2063E08E401EE08609E0FEF7C5
:1021A000F1FFA0EB0800A84202D3681C01D010E0A8
:1021B00075B1E08E0028E4D142462946204600F061
:1021C000CDFE08B120206065A06820B107E008E0DE
:1021D000FFE7032706E02068C16880680090606D13
:1021E00000B1012784F851B084F850A038466BE75D
:1021F0002DE9F84F044690F8500000270A9E1D462E
:1022000092468B464FF0010901280ED0012084F838
:102210005000FEF7B7FF804694F85100616801282E
:102220000CD0B1F5827F07D102E00220BDE8F88F23
:10223000A16809B9042801D00227C2E0BBF1000F50
:1022400027D0BAF1000F24D01DB394F85100042810
:1022500002D0052084F8510000206065C4F838A041
:10226000E587A587C4F830B0E586A586206460645C
:1022700020680168490603D4016841F0400101600B
:10228000E068B0F5006F606805D0E8B3012D46D076
:102290007FE0012795E008B1012D39D1206B21683D
:1022A0000088C860206B801C2063E08E401EE086A2
:1022B0002EE02068816889070FD5E18E69B1B9F1F8
:1022C000010F0AD1216B0988C160206B801C20633B
:1022D000E08E401EE0864FF0000920688168C90743
:1022E0000CD0E18F51B1C068A16B0880A06B801C3D
:1022F000A063E08F401EE0874FF00109FEF742FF28
:10230000A0EB0800B04200E009E001D3701C50D1FE
:10231000E08E0028CDD1E08F0028CAD13FE0206BAD
:10232000216800780873206B401C2063E08E401EFB
:10233000E0862EE02068816889070FD5E18E69B1BB
:10234000B9F1010F0AD1216B09780173206B401C90
:102350002063E08E401EE0864FF00009206881680F
:10236000C9070CD0E18F51B1C068A16B0870A06B98
:10237000401CA063E08F401EE0874FF00109FEF78C
:1023800001FFA0EB0800B04202D3701C01D010E0A6
:102390007EB1E08E0028CDD1E08F0028CAD1424620
:1023A0003146204600F0DAFD28B101272020606583
:1023B00007E0032705E0A06818B92068C1688068B5
:1023C0000090012084F85100002084F85000384625
:1023D0002CE710B5401EB0F1807F01D3012010BD65
:1023E0004FF0E02460610F21601702F045F90020F2
:1023F000A06107202061002010BD70B590F83C203E
:10240000012A19D0012400F83C4F0222427050F8F2
:102410003C3C5A689D6822F070060A68496832435D
:1024200025F0800529435A6050F83C2C9160447097
:1024300000210170084670BD022070BD00B585B056
:102440000021009101910291039100680B4988429B
:1024500012D10B48816941F00801816180696946A8
:1024600000F0080004904FF44070009002200190AA
:1024700003900448FEF784FD05B000BD000800404D
:1024800000100240000C014070B5044690F83C007A
:102490000D4601280DD0012684F83C60022084F806
:1024A0003D0042B1042A18D0082A2AD00C2A4DD166
:1024B00039E0022070BD206800F048FE2068816984
:1024C00041F0080181612068816921F00401816186
:1024D000206881692A69114311E0206800F05EFEDE
:1024E0002068816941F4006181612068816921F47B
:1024F00080618161206881692A6941EA02218161E4
:1025000024E0206800F076FE2068C16941F00801EF
:10251000C1612068C16921F00401C1612068C169FD
:102520002A69114311E0206800F090FE2068C1691B
:1025300041F40061C1612068C16921F48061C16119
:102540002068C1692A6941EA0221C16184F83D60BD
:10255000002084F83C0070BD10B5040003D094F84E
:102560003D0010B107E0012010BD002084F83C00C0
:10257000204600F00DF8022084F83D00211D20685F
:1025800000F0A0FD012084F83D00002010BD0000F7
:1025900008B500680649884208D10648C16941F07B
:1025A0000401C161C06900F00400009008BD000092
:1025B000000800400010024010B50268044631B126
:1025C000042908D0082922D00C2908D123E0D0689A
:1025D00040F0020002E0D06840F00400D060012228
:1025E000206800F0A5FD0E492068884203D1416CA7
:1025F00041F4004141642068816801F00701062927
:1026000003D0016841F001010160002010BDD068D5
:1026100040F00800E2E7D06840F01000DEE700007C
:10262000002C014010B50268044631B1042908D0DD
:1026300008292CD00C2908D12DE0D06820F0020008
:1026400002E0D06820F00400D0600022206800F092
:102650006FFD134B41F2111220689110984209D17D
:10266000036A134206D1036A0B4203D1436C23F47D
:10267000004343642068036A134206D1026A0A4297
:1026800003D1016821F001010160002010BDD06874
:1026900020F00800D8E7D06820F01000D4E7000050
:1026A000002C0140FEE70000F0B500230A2430258D
:1026B00037261F4611E000BFB4EB107F02D905EBAF
:1026C000107C01E006EB107C01F813C001EB430C19
:1026D00000015B1C8CF80170DBB29342ECD3F0BDBF
:1026E0002DE9F0410024074E25464FF4FC770121E7
:1026F000002000F0F9F83555641CBC42F7DBBDE85A
:10270000F0810000A401002010B50C4640F08000CC
:10271000002100F0E9F844F04000BDE8104000213D
:1027200000F0E2B810B5154C0022A1882068FEF731
:1027300023FDA18801222068FEF71EFD0021212033
:1027400000F0D2F80021B82000F0CEF800210420DB
:1027500000F0CAF80021142000F0C6F80021202063
:1027600000F0C2F800210C2000F0BEF8FFF7B8FF1F
:10277000A4F5FE71002081F8F80110BDA00300202F
:10278000024900B1012081F8F8017047A40100203E
:1027900010B50B46044611461846FFF7B5FF02E098
:1027A000641C00F005F820780028F9D110BD000065
:1027B00070B50D490B4E00EB4000002401EB4005C5
:1027C00096F8F801012805EB040010F8C00C01D1BF
:1027D000C043C0B2012100F087F8641C062CEFDB77
:1027E00070BD0000A4010020D45900082DE9F0417B
:1027F0000025104C07460126C5F1070106FA01F035
:10280000384201D0012200E00022A18BA069FEF72E
:10281000B3FCA18C0122206AFEF7AEFCA18C002241
:10282000206AFEF7A9FC6D1CEDB2082DE4D3BDE8CB
:10283000F0810000A0030020014A90609181704760
:10284000A0030020014A106291847047A003002079
:10285000014A106191827047A0030020014A9061F3
:1028600091837047A0030020014A10609180704757
:10287000A003002070B51E461446FFF745FF0A2549
:10288000062E30D2DFE806F02F261D130B0342F28E
:102890001070B4FBF0F03030C0B2FFF789FF4FF496
:1028A0007A70B4FBF0F03030C0B2FFF781FF6420E3
:1028B000B4FBF0F0B0FBF5F105FB11003030FFF791
:1028C00077FFB4FBF5F0B0FBF5F105FB11003030FC
:1028D000FFF76EFFB4FBF5F005FB1040BDE870405C
:1028E0003030FFF765BF70BD70B50C4C0A0005466F
:1028F000A18A206900D00122FEF73EFCA1890022B6
:10290000A068FEF739FC2846FFF770FFA189A06890
:10291000BDE870400122FEF72FBC0000A00300209C
:102920003EB50024194800940194174902940160AF
:102930008915816004730475042505614FF46021D5
:102940004460C161FDF7E0FF0094012401946946F1
:102950000E480294FDF74CFF0220CDE90040694685
:102960000A48FDF745FF08200090032001906946C2
:102970000648FDF73DFF0920CDE9000569460348FB
:10298000FDF736FF3EBD0000002401404404002056
:102990002DE9F04786B000243A480094019402944F
:1029A0000394816941F010018161816901F0100196
:1029B0000491816941F020018161816901F0200168
:1029C0000491816941F004018161816901F0040190
:1029D0000491816941F008018161806900F008007B
:1029E000049001F0E9FDDFF8A0804FF400550022CB
:1029F00029464046FEF7C0FBDFF8909048F21C07DE
:102A0000002239464846FEF7B7FBDFF884A00022D3
:102A1000F8215046FEF7B0FB01AA112002260095CE
:102A200082E8510069464046FEF7AAFAA80001254F
:102A30008DE8310069464046FEF7A2FA00970396FA
:102A4000CDE9015469464846FEF79AFAA8028DE896
:102A5000310069465046FEF793FA4FF4C0608DE8A6
:102A6000310069464846FEF78BFAF820CDE90005AB
:102A7000CDE9024669465046FEF782FA06B0BDE847
:102A8000F0870000001002400010014000080140E3
:102A9000000C01400C480B494FF4007201604FF4E8
:102AA0008271416000218160C1600161C0E905124D
:102AB0001822C0E90721416281620A21C162FFF741
:102AC000CBB90000003001407404002010B58AB07A
:102AD000002407941C2168460894FDF74EFB144817
:102AE000124901604821C0E90114FA21C0E9031428
:102AF0008461FFF731FD079407A90D480894FFF79B
:102B00007CFC602000907D20CDE90104082269460C
:102B100007480494FFF7B8FC0C2269460448FFF705
:102B2000B3FC0348FFF78AFC0AB010BD0008004060
:102B3000CC04002010B500220F49104800F080FEA0
:102B400008B1FDF7F0FD0E490C4801F05BF808B143
:102B5000FDF7E9FD0B49094800F07EFC08B1FDF7DF
:102B6000E2FD064801F0A4F8002803D0BDE81040BB
:102B7000FDF7D9BD10BD0000200000205005002049
:102B80006C01002070000020FEE7704770B52A4CF1
:102B900000252020E5702070257105206070601DE3
:102BA0000570284601F03EFE012001F043FE05209D
:102BB000FEF7D4F90C21002002F0C0FE0F21052001
:102BC00002F049FC032002F031FC022002F008FC74
:102BD00008B10120E070062002F010FA064600203D
:102BE00002F0FEFB02F006FE00211D2002F0A6FE10
:102BF00000211C2002F0A2FE25717021072002F0A6
:102C00009DFE4C2002F0E8FBE22002F0CBFDE1202B
:102C100002F0C8FD02F09EF9002002F0EFF920F06A
:102C20000101002002F08AFE1EB1FF2E01D001201A
:102C300070BD002070BD0000000000202DE9F05F95
:102C4000044648F60F7B4FF0020A4FF480684AE1D1
:102C5000B0F8441011F00F0629D030F8267039046E
:102C600079D530F8261040F68F72114041F080017E
:102C700020F8261004EB461595F8340105F59475F7
:102C80000028206868D0297830F8212052047DD5AA
:102C9000B0F850200AEBC1010A4408EB4201415A46
:102CA000C1F309015FEA010971D02A89D2E0C9069E
:102CB0002DD4018801EA0B0141F400410180206814
:102CC00004F12805B0F850202B780AEBC3010A4420
:102CD00008EB4201405AC0F309006064E16B08440C
:102CE000E06300212046FEF706FB94F8240000284C
:102CF000ADD0A8690028AAD194F82400216840F03A
:102D00008000A1F84C00002084F82400EBE001884A
:102D100004F594750A0520D5B0F850202B780621CB
:102D200001EBC3010A4408EB4201405A04F50C715F
:102D3000C0F30903EB61EA88206801F027FC2068F2
:102D4000018840F68F72114041F0800101802046D9
:102D5000FEF709FDC7E0A2E058E0090455D5018857
:102D600040F68F72114041F0800101802168B1F876
:102D700050202B78062000EBC300024408EB4200F1
:102D8000085A83059B0DEB6110D001E053E065E02C
:102D9000696959B1EA88206801F0F8FBE969686956
:102DA0000844686100212046FEF7ACFA2068B0F8BC
:102DB00050100844296900F20C4051B13E2910D846
:102DC0004A08C90700D0521C4FF6FF7101EA822160
:102DD0000FE0018821F4F8410180018841F40041AD
:102DE00007E04A09C90600D1521E4FF4004141EAEA
:102DF00082210180206801884BF68F72114081F496
:102E0000405148F28002114301806CE0B0F850203C
:102E10002B78062101EBC3010A4408EB4201415A19
:102E2000C1F309015FEA010924D0EA884B466969C8
:102E300001F0ACFB1EE0B0F85030062202EBC101FD
:102E40005A1808EB4201415AC1F309015FEA01092E
:102E500004D06A894B46696901F098FB287822689A
:102E600032F8201048F68F73194048F2C003194316
:102E700022F82010E8694844E861686900EB09021B
:102E80006A61AB6913B12869484504D9297820469D
:102E9000FEF738FA03E029782046FEF7C0FA380634
:102EA00021D5216804EB461031F8262002EA0B02F6
:102EB00042F4004221F826202168B1F8505010F861
:102EC000282F0AEBC2022A4408EB4202895AC1F3B6
:102ED0000901C16142690A4442610178836920465F
:102EE00053B1FEF7E8FA2068B0F8441009043FF542
:102EF000AFAE0020BDE8F09FFEF7FDF9F3E77047A5
:102F0000F8B5044640684FF48273984217D1A06820
:102F10004FF48065B0F5004F01D0A8420FD1206872
:102F2000066826F0400606606068984207D1A068EF
:102F3000A84204D100920B460022012103E0009236
:102F40000B4600228021204600F018F8002804D00B
:102F5000606D40F0200060650320F8BD38B50B4679
:102F6000009204460022802100F008F8002804D0D6
:102F7000606D40F020006065032038BD2DE9F04110
:102F80001D4617460E460446DDF8188008E0681C0A
:102F900006D0FEF7F7F8A0EB0800A8420BD255B117
:102FA0002068806836EA000030D00020B842EED1B8
:102FB0000020BDE8F0812068416821F0E001416017
:102FC0006068B0F5827F0BD1A068B0F5004F02D0E9
:102FD000B0F5806F04D12068016821F040010160E4
:102FE000A06AB0F5005F09D12068016821F40051A2
:102FF00001602068016841F400510160012084F8FB
:103000005100002084F850000320D2E70120CDE7D2
:103010007047FEF7BDB830B593B028216846FDF77C
:10302000ACF814210AA8FDF7A8F8002401200F9499
:1030300010941194010412948DE8130004904FF43D
:10304000E010CDE90810022507956846FEF774FDEB
:103050000F20CDE90A056802CDE90C4002210AA83B
:103060000E94FEF78DFC12200F90A803CDE91104F9
:103070000FA8FEF70FFC13B030BD00000D4801682B
:1030800041F00101016041680B4A11404160016853
:103090000A4A11400160016821F480210160416801
:1030A00021F4FE0141604FF41F0181600449C00317
:1030B00008607047001002400000FFF8FFFFF6FEB6
:1030C00008ED00E0F0B50268164B174C174D4FF0B5
:1030D0008047984205D0B84203D0A04201D0A84210
:1030E00003D122F070064A683243984205D0B842B4
:1030F00003D0A04201D0A84203D122F44074CA6890
:1031000022434C6922F08002224302608A68C26234
:103110000A688262984201D1096901630121416113
:10312000F0BD0000002C01400004004000080040F9
:1031300010B501F01F030121046A99408C43046219
:10314000016A9A401143016210BD000030B5026A65
:1031500022F001020262026A4368846924F0730566
:103160000C682C4322F002058A682A430A4DA842C3
:103170000BD122F00805CA6823F440732A434D6935
:1031800022F004021D438B692B434360846149682C
:103190004163026230BD0000002C014030B5026A7C
:1031A00022F010020262026A436884690D6824F406
:1031B000E64444EA05248D6822F0200242EA051222
:1031C0000B4DA8420ED1CD6822F0800242EA0512D2
:1031D0004D6923F4406343EA85038D6922F0400280
:1031E00043EA85034360846149688163026230BDBC
:1031F000002C014030B5026A22F480720262036A38
:103200004268C46923F4007324F073050C682C43EE
:103210008D6843EA05230C4DA8420ED1CD6823F4F6
:10322000006343EA05234D6922F4405242EA051245
:103230008D6923F4806342EA05124260C4614968E3
:10324000C163036230BD0000002C014030B5026A4A
:1032500022F480520262046A4268C3690D6823F452
:10326000E64343EA05238D6824F4005444EA053418
:10327000064DA84204D14D6922F4804242EA8512EB
:103280004260C36149680164046230BD002C0140A2
:103290002DE9F041D0F8C032D0F8B822CAB101EB24
:1032A000810400EB84040025E6693EB103EB411381
:1032B0009B6BB6FBF3F703FB176323B1C2F8145201
:1032C0000020BDE8F08100231A46E56100F07DFC96
:1032D000F6E70220F5E770B50546D0F8B84200F0F1
:1032E0007AFBC4F80C02D5F8B80248B1D5F8BC1284
:1032F000D4F80402CA6804F503719047002070BD39
:10330000022070BD70B504460026812100F0B6FA97
:10331000002501212046E56200F0B0FA8221204616
:10332000C4F86C5100F0AAFA2564D4F8B80248B188
:10333000D4F8BC0204F52E7440688047206800F081
:1033400014FE2560304670BD10B5D0E9AE4159B1CC
:1033500094F80002FF2807D08B6894F801222146D8
:103360009847FF2084F80002002010BD0A21018048
:1033700000487047940000204321018000487047B6
:10338000E40000204321018000487047A000002095
:103390004321018000487047280100202DE9F041B9
:1033A00004460026007C4FF40077012590B34023AB
:1033B00002228121204600F061FB4023E5620222C7
:1033C0000121204600F05AFB0823032282212046D7
:1033D000C4F86C5100F052FB4FF40770256400F004
:1033E000C5FDC4F8B802F8B10546D4F8BC020068BF
:1033F00080470020C5F81402C5F81802207CD5F8D3
:10340000042298B140230121204600F043FB3046BE
:10341000BDE8F081FFE73B4602228121204600F013
:103420002DFB3B46E562CAE70126F0E73B46EAE7AB
:1034300010B5D0F8B81269B1027C002AD1F8042284
:1034400005D04023012100F025FB002010BD4FF4E2
:103450000073F7E7022010BD02460220002902D0C7
:103460000020C2F8BC127047D0F8B802C0F80412AD
:1034700000207047D0F8B802C0F81022C0F8081237
:10348000002070472DE9FC410546D0F8B8720020B5
:103490008DF80000ADF80400064608780C4610F0E0
:1034A000600121D020293BD1E288AAB100066078D2
:1034B00007D5D5F8BC128B6839469847E28839465B
:1034C00026E087F80002A07987F80102E2883946F1
:1034D000284600F06AF828E0D5F8BC12607800228F
:1034E0008B682146984720E0607820B10A2809D0EF
:1034F0000B2815D110E095F89C02032810D1022268
:1035000001A905E095F89C02032809D1012269462A
:10351000284600F064F808E095F89C02032804D0DF
:103520002146284600F036F802263046BDE8FC81E8
:1035300010B5D0F8B812A1B1D1F814220AB1012007
:1035400010BD0122C1F81422D1F810220263B1F893
:10355000102293B2D1F80822812100F036FB00201E
:1035600010BD022010BD10B5D0F8B42252689047AB
:10357000002010BD134610B50A46002100F08AFA5B
:10358000002010BD134610B50A46002100F01DFBB7
:10359000002010BD10B50446802100F0FBFA204643
:1035A000BDE81040002100F0F5BA10B50323C0F8C3
:1035B0005C21C0F89432C0F8602113460A4600210D
:1035C00000F068FA002010BD10B505210023C0F8F6
:1035D00094121A46194600F05DFA002010BD10B58D
:1035E0000223C261C0F89432026213460A460021E7
:1035F00000F0EBFA002010BD10B504210023C0F844
:1036000094121A46194600F0E0FA002010BD00009E
:1036100010B50A46024903A000F0E2F8004810BDC8
:10362000A00C002043444320436F6E66696700008E
:1036300012200880004870474000002010B50A465C
:10364000024903A000F0CCF8004810BDA00C0020F7
:1036500043444320496E74657266616365000000EF
:1036600004200880004870473C00002010B50A463E
:10367000024903A000F0B4F8004810BDA00C0020DF
:1036800053544D6963726F656C656374726F6E69D4
:103690006373000010B50A46024903A000F0A0F8C9
:1036A000004810BDA00C002053544D333220566901
:1036B000727475616C20436F6D506F7274000000FE
:1036C00010B51A2008800A480168001D0468001D12
:1036D0000068081809D008220649FEF7E5FF0549E9
:1036E000042210312046FEF7DFFF0248801E10BD85
:1036F000E8F7FF1F56000020F8B504460020ADF89B
:10370000000048880D46010A082948D2DFE801F088
:103710004704091747473C45D4F8B012207C0A6893
:1037200019E0207C02260028D4F8B40205D0C16A32
:1037300068468847014646703EE0816AF8E7C0B2B5
:1037400006282CD2DFE800F0030A1014181CD4F865
:10375000B002426805E0694690471CE0D4F8B00228
:103760008268E2B1207CF6E7D4F8B002C268F8E7DC
:10377000D4F8B0020269F4E7D4F8B0024269F0E785
:10378000D4F8B0028269ECE7207C40B9D4F8B402E6
:10379000416B6846884701460EE0207C20B12946EF
:1037A0002046FFF7F7FEF8BDD4F8B402016B684677
:1037B0008847014607204870BDF8000048B1EA88F4
:1037C00052B1824200D90246ADF800202046FFF7F0
:1037D00006FFE8880028E6D12046FFF70DFFF8BD78
:1037E00070B5002300281ED00446002502E06D1CA1
:1037F000EDB2641C2678002EF9D1022404EB4504B6
:1038000014801278CA545B1C0322CA5400245B1C27
:1038100006E0CA545B1CDAB28C54521CD3B2401C72
:103820000278002AF5D170BD01004FF0000004D0ED
:10383000012901D0022901D00220704701207047E0
:1038400010B580B1D0F8B43213B10023C0F8B4324F
:1038500009B1C0F8B012012180F89C12027000F08A
:10386000BFF8002010BD022010BD10B5D0F8C00276
:10387000FDF774FDBDE81040FFF7D6BF10B5D0F8D6
:10388000C002FDF747FDBDE81040FFF7CDBF2DE9B1
:10389000F0411746044651B1D4F8B40242691AB156
:1038A00094F89C02032851D00220BDE8F081D4F89E
:1038B0009432002504F11400022B03D0042B3AD0DB
:1038C000C3B33CE0D0E903639E4207D9F11AC1605B
:1038D0008AB239462046FFF755FE12E08068B0FBF9
:1038E000F3F103FB110199B9984211D3D4F898125E
:1038F00088420DD2002211462046FFF743FEC4F84D
:10390000985200231A461946204600F0C3F816E0E4
:10391000D4F8B402C16829B194F89C02032801D1FB
:10392000204688478021204600F034F92046FFF7E2
:103930004BFE04E0FFE78021204600F02BF994F8CD
:10394000A002012804D184F8A05201E0204690474B
:103950000020AAE770B51546044649B1D4F8B40270
:1039600082691AB194F89C02032830D0022070BDFD
:10397000D4F8941204F5AA70032902D005291ED0A8
:1039800027E0D0E903218A420BD9531AC3600846C5
:10399000834200D303469AB229462046FFF7EAFD48
:1039A00017E0D4F8B402016929B194F89C02032805
:1039B00001D1204688472046FFF71EFE09E000207F
:1039C0000146C4F89402204600F0E4F801E02046E5
:1039D0009047002070BDD0F8C002FDF7EBBC00009E
:1039E00010B504461C481D49C0F86842C4F8C0021E
:1039F0000160082141600221816000218161C16173
:103A00000162FDF7F9FD08B1FCF78DFE0022D4F844
:103A1000C0021823114604F53074FDF751FC5823F9
:103A2000002280212068FDF74BFCC0230022812169
:103A30002068FDF745FC4FF48873002201212068BF
:103A4000FDF73EFC4FF48073002282212068FDF7D1
:103A500037FC002010BD0000340A0020005C00404C
:103A60000A06D0F8C00201F07F0100EB411002D538
:103A700090F82A00704790F82A01704710B51C464C
:103A80001346D0F8C0022246FDF79BFCBDE810406B
:103A9000FFF7CABE10B5D0F8C002FDF7C0FCBDE804
:103AA0001040FFF7C1BE70B5002204464023114606
:103AB000FFF7E4FF40260125C4F864613346002285
:103AC00080212046C4F85851FFF7D8FF6662A561EF
:103AD00084F89C520020C4F894026060C4F8A402E8
:103AE000D4F8B80228B1D4F8B402002142682046C4
:103AF0009047002070BD90F89C12042903D190F8E3
:103B00009D1280F89C120020704710B590F89C120E
:103B1000032904D1D0F8B412C96901B18847002043
:103B200010BD01740020704710B5D0F8C002FDF739
:103B300006FEBDE81040FFF777BE70B5044600F5FD
:103B40002A70054600F04AF80120C4F89402B4F83F
:103B5000AE02C4F8980294F8A80210F01F010AD02F
:103B600001290DD0022910D000F08001204600F07C
:103B700011F8002070BD2946204600F09EF8F8E7B5
:103B80002946204600F0CAF9F3E72946204600F00E
:103B90001DF9EEE710B5D0F8C002FDF757FCBDE8FF
:103BA0001040FFF741BE10B5D0F8C002FDF7E2FDAE
:103BB000BDE81040FFF738BE90F89C1280F89D12C7
:103BC000042180F89C120020704710B5D0F8C00284
:103BD000FDF771FCBDE81040FFF726BE0A780270C1
:103BE0004A7842708A78CB7802EB032242800A79C5
:103BF0004B7902EB032282808A79C97902EB012199
:103C0000C18070470246002011B1C2F8B41270475B
:103C10000220704710B5D0F8B42202241AB11268FD
:103C2000904700B90024204610BD000070B50E4634
:103C30001E4D897804462970012931D894F89C02D8
:103C400002280BD003280FD031462046FFF7A2FCF4
:103C500029782046BDE87040FFF785BCD9B1032024
:103C6000616084F89C0209E071B16068884212D0FA
:103C7000C1B22046FFF777FC297861602046FFF744
:103C8000C9FF02280CD006E0022084F89C022046DE
:103C90006160FFF768FC2046BDE87040FFF7ACBCF0
:103CA00031462046BDE87040FFF774BC900000200C
:103CB00010B5FFF778FF002010BD2DE9F0410A781C
:103CC000002612F0600208D0202A01D0402A70D1CC
:103CD000D0F8B422926890476DE04B78002201251D
:103CE0000A2B66D2DFE803F0405D6557650805657D
:103CF0002C29FFF701FD5EE004468888D8B9C88802
:103D0000C8B94888802816D200F07F0794F89C0232
:103D1000032810D084F89E7239462046FFF704FF2E
:103D20002046FFF769FC1FB1022084F89C0242E0A4
:103D300084F89C523FE020463BE0FFF777FF3AE0F3
:103D4000CB88012B35D190F89C32012B04D0022B6B
:103D500002D0032B2DD104E08260012200F1080182
:103D600016E00122011D13E090F89C22012A03D0E5
:103D7000022A01D0032A1CD1CA88022A19D1C5609F
:103D8000D0F8A41209B10321C160022200F10C0194
:103D9000FFF725FC0FE0498801290CD1C0F8A45297
:103DA00011E090F89C32012B08D0022B06D0032B97
:103DB00004D0FFF7EFFB3046BDE8F08149880129C8
:103DC000F9D1C0F8A422FFF717FCF4E72DE9F04180
:103DD0000A46044610780027097910F060030AD0DB
:103DE000202B01D0402B50D1D4F8B4021146836867
:103DF000204698478FE0C0F34110012806D0507844
:103E0000D0B301282AD003283FD107E0D4F8B40268
:103E1000114683682046BDE8F041184794F89C029B
:103E2000022802D0032872D10AE071B380296ED033
:103E30002046FFF7AFFE80212046FFF7ABFE6AE089
:103E4000508838B931B1802904D0D08810B92046C3
:103E5000FFF7A0FE2046FFF7CFFB5CE094F89C0242
:103E60000228E2D0032852D1508898BB4806F1D0EE
:103E70002046FFF7FAFCEDE7FFE794F89C020026E6
:103E8000022803D0032842D112E040E009B1802982
:103E90003DD1080601F07F0000EB800004EB8001BB
:103EA00001D5143101E001F5AA7102220E602AE069
:103EB000080601F00F0000EB800004EB80000AD53B
:103EC000806920B301F07F0000EB800004EB8005E7
:103ED00014350BE01FE0D0F85801C0B101F07F00AD
:103EE00000EB800004EB800505F5AA7541B180293F
:103EF00006D02046FFF7B4FD10B10120286000E095
:103F00002E60022229462046FFF769FB03E0114696
:103F10002046FFF73FFB3846BDE8F08170B5054607
:103F200008780C4610F0600003D0202801D040280B
:103F300016D195F89C02012803D0022801D003284D
:103F40000ED1207901280BD8D5F8B4028268284612
:103F50009047E188014306D12846FFF74DFB02E078
:103F60002846FFF717FB002070BD704700487047D8
:103F7000140800202DE9F0470C784FF0000C30F8C1
:103F8000243048F68F121340CA78002A7DD0012AC7
:103F90007CD0022A03D0032A79D04FF0010C48F2DA
:103FA0008002134320F824300D7830F8254048F67D
:103FB0008F731C402C43144320F825400F7B48F698
:103FC000BF744BF68F7948F2C0054CF28006EFB310
:103FD00091F80080C24630F8287048F280181F40DF
:103FE00047EA080720F82A70B0F8507091F800806E
:103FF000074407EB0817B1F8088028F00108A7F874
:104000000084B0F8507091F80080074407EB08175F
:10401000B1F80A8028F00108A7F808844F7891F8D1
:104020000080002F30F828704FEA47477ED0002FDD
:1040300005DA30F828701F40374320F828700F78D1
:1040400030F827805FEA486809D500E033E030F8AF
:10405000278008EA030848EA050820F827800F7837
:1040600030F827501D40354320F82750CB780D7885
:10407000012B30F8253003EA040301D083F020033C
:10408000134320F825300B7802E00BE010E00CE041
:1040900030F8231001EA0901114320F8231060468B
:1040A000BDE8F08743F4007379E743F4C06376E733
:1040B00043F4806373E74F7827B3B0F850600F780C
:1040C000064406EB0716CF8827F00107A6F8007410
:1040D0000F7830F82760760605D530F827601E4047
:1040E0002E4320F82760CB78012B06D00B7830F8D0
:1040F0002310214081F02001CEE70B7830F8231007
:104100002140C9E7B0F850400D78044404EB051491
:10411000CD8825F00105A4F80854B0F850400D787A
:10412000044404EB051404F20C4400E030E00D6993
:1041300055B13E2D10D86F08ED0700D07F1C4FF60B
:10414000FF7505EA87250FE0258825F4F8452580C9
:10415000258845F4004507E06F09ED0600D17F1E74
:104160004FF4004545EA872525800D7830F8254035
:10417000640405D530F825401C40344320F8254020
:104180000B7830F8231001EA090181F4405183E7EC
:10419000002F05DA30F828701F40374320F82870C8
:1041A0000E7830F826707F0605D530F826701F404F
:1041B0002F4320F826700F7830F827601E402E43DA
:1041C00020F827600D7830F8253003EA090383F4DE
:1041D0004053134320F825308FE7002070472DE926
:1041E000F04391F80C804F780A7848F6BF7C4BF684
:1041F0008F7948F2800348F2C0054CF2800648F6F9
:104200008F74B8F1000F28D0002F30F822704FEAD9
:10421000474748D0002F05DA30F82270274037434F
:1042200020F822700A7830F822707F0605D530F821
:10423000227027402F4320F822700D7830F8252077
:104240002240324320F825200C7830F8242002EA5E
:104250000C021A4320F824201AE07FB130F82260C3
:10426000760605D530F8226026402E4320F82260DD
:104270000A7830F8221001EA0C010EE030F82250E2
:104280006D0405D530F822502540354320F82250E2
:104290000A7830F8221001EA0901194320F82210A7
:1042A0000020BDE8F083002F05DA30F822702740A7
:1042B000374320F822700A7830F82260760605D558
:1042C00030F8226026402E4320F822600E7830F825
:1042D000262022402A4320F826200C7830F824207B
:1042E00002EA09021A4320F82420C1E7002070479F
:1042F0000020704700B50121A0F840100021A0F86F
:104300004010A0F84410A0F8501000F02EF9002042
:1043100000BD30F8401F21F43F410180002070476C
:104320000020704730B50A7BB2BB4A7848F68F75DB
:1043300048F28004C2B10B7830F82320520607D52A
:1043400030F823202A4048F2C0052A4320F82320D1
:10435000CA78012A20D00A7830F8221048F6BF73B4
:10436000194081F0200114E00A7830F822305B0413
:1043700007D530F822302B404CF280052B4320F833
:1043800022300A7830F822104BF68F73194081F4EE
:104390004051214320F82210002030BD10B54A784A
:1043A0000978002A48F2800330F8212005D048F629
:1043B000BF74224082F0100204E04BF68F7422405A
:1043C00082F480521A4320F82120002010BDF0B55D
:1043D0000E46054691F801C00022097B3469B06998
:1043E00048F28007BCF1010F04D0A0424FD9001B56
:1043F000B0614EE0A04202D9001BB06101E004466A
:10440000B26169B1307835F820104906B5F850101E
:10441000294401EB001012D5A0F80C44728911E078
:10442000A3B2F2882846716900F0F8F8B5F8500098
:104430003178284400EB0110A0F804441EE0A0F8F5
:1044400004443289A3B22846716900F0E7F8707815
:1044500048F68F7110B1012807D00FE0327835F897
:104460002200084048F2C00105E0327835F8220009
:1044700008404CF28001084325F82200317835F8D5
:10448000210048F6BF72104080F0300068E004461A
:10449000B2614FF6FF724FF4004381B3BCF1000FDD
:1044A00015D027E0018821F4F8410180018841F40A
:1044B00000410AE03E2C3ED86108E30700D0491CC9
:1044C00002EA812101E043EA8121018040E0B5F860
:1044D00050003178284400EB011000F204407CB118
:1044E0003E2C15D861085FEAC47C00D0491C02EA62
:1044F00081210180707810B1012821D028E00FE0DF
:10450000018821F4F8410180018841F40041F0E77D
:1045100061095FEAC46C00D1491E43EA8121E8E7E2
:10452000B5F850003178284400EB011000F20C403F
:10453000002CBFD1B6E76109E206C4D1491EC2E72B
:10454000B5F850104819317800EB0110A0F80C4470
:10455000317835F821004BF68F72104080F44050CE
:10456000384325F821000020F0BD30F8401F41F409
:104570003F410180002070470148FCF7B1BF0000B7
:10458000340A0020B0F844007047000010B500EB7A
:1045900042005C0800F5806009D000BF30F8042BB1
:1045A00001F8012B120A01F8012B641EF6D1DA077B
:1045B00001D00088087010BD7FB54FF480550024ED
:1045C00001200095CDE9010402200F4E03906946B9
:1045D0003046FCF7D5FC002229463046FCF7CCFDDE
:1045E00000214FF4FA65491C89B2A942FBD301941A
:1045F000694630460294FCF7C3FC0020401C80B2A0
:10460000A842FBD37FBD0000000801400020704796
:1046100011B98021A0F84C100020704710B55B1C28
:1046200000EB42005B0800F5806009D011F8012B17
:1046300011F8014B42EA042220F8042B5B1EF5D14D
:1046400010BDFEE70FB47CB50C0009AD01D0611EB2
:1046500000E00021CDE90001064B6A462946089892
:1046600000F02AF8002C02D0009A002111707CBCC6
:104670005DF814FB0D4800080907090E002804DB4B
:1046800000F1E02080F80014704700F00F0000F106
:10469000E02080F8141D704702E008C8121F08C10E
:1046A000002AFAD170477047002001E001C1121FB3
:1046B000002AFBD1704700002DE9FF4F89B09B46CF
:1046C0000446002506E025280BD05A460B99904752
:1046D000641C6D1C20780028F5D10DB02846BDE87B
:1046E000F08F0027B8460122474900E0074314F83D
:1046F000013F203B02FA03F00842F7D120782E2830
:1047000019D114F8010F47F004072A280ED06FF0D2
:104710002F022078A0F1300109290CD808EB88017C
:1047200002EB410100EB0108641CF2E70A98641CEB
:1047300050F8048B0A9020780028CED0642808D046
:10474000692806D075281ED05A460B9990476D1CD3
:1047500058E00A994FF00A0901C90A91002802DAC3
:1047600040422D2102E0390504D52B218DF820107F
:10477000012103E0F90704D02021F7E78A4608AEBB
:104780000DE00021FAE70A994FF00A0901C90A91E0
:10479000F7E74946FBF7D0FD303106F8011D002848
:1047A000F7D1ADEB060000F12009780701D44FF0F6
:1047B0000108C84502DDA8EB090000E000208046A2
:1047C000002706E008A85A46C05D0B9990476D1C6B
:1047D0007F1C5745F6DB04E030205A460B99904782
:1047E0006D1CB8F10001A8F10108F5DC05E016F830
:1047F000010B5A460B9990476D1CB9F10001A9F1C4
:104800000109F4DC641C65E7092801004A68002AF4
:1048100006D00A68531C0B6010704868401E486040
:1048200070470000024608210148FCF7A5BC0000C3
:104830000008014010B5024610210448FCF79CFC1A
:10484000BDE81040052000F003B80000000801405A
:104850000649074A0968B1FBF2F1414305480022C5
:10486000426042688A42FCD370470000800000200A
:1048700040420F00001000E010B51D2000F0BEFB0C
:1048800040F006011D2001F059F81C2000F0B6FB95
:1048900040F003011C2001F051F802490120087189
:1048A00010BD0000000000202DE9F0418CB0002276
:1048B0000A2180A0FDF76CFF202101A8FBF75DFC19
:1048C0007F4C207800287CD0002727707D48FCF79B
:1048D000EBF9FF2604F10E050096688840F6FF7894
:1048E00001234246002100F06FFAE071009628880B
:1048F00001234246002100F067FA20720096E88802
:1049000001234246002100F05FFA6072A888FBF79D
:10491000BDFC6D4A6D4BFBF742FCB2076C4BFBF7DD
:104920003EFC00226B4BFBF73AFCFBF7E9FC06462A
:104930000122002168A0FDF72BFF2A880423012112
:104940001220FDF797FF01222B2164A0FDF720FF25
:104950006A88042301213C20FDF78CFF02220021FC
:104960005FA0FDF715FFAA88042302211220FDF79E
:1049700081FF02222B215BA0FDF70AFFEA880423B6
:1049800002213C20FDF776FF0322002156A0FDF70F
:10499000FFFE3046FBF7A0FC82B2032319461E201F
:1049A000FDF768FF03222B2151A0FDF7F1FE042241
:1049B000002151A0FDF7ECFE4D208DF8040056209B
:1049C00000E043E08DF8050061208DF80600E079F5
:1049D0008DF80700207A8DF80800E07808B1607A39
:1049E00000E001208DF8090032208DF80A008DF8D2
:1049F000287001A8FBF7CCFBC1B201A800F04AFF68
:104A0000B8B300F088F8B8B101210AA800F0B3FAF1
:104A10009DF828000A21B0FBF1F0FBF732FCFBF710
:104A20005BFC82B2032319464120FDF723FF0422D9
:104A30002D2133A0FDF7ACFE2F806F80AF80EF807B
:104A40001F4904220E311F48FCF742F8DFF8B480FA
:104A50004FF400414046FCF783FB06464FF480616B
:104A60002948FCF77DFB0546A07A4FF4005728B192
:104A70000EE0FFE704222D2124A0DBE7012E07D161
:104A8000E078394680F00100E0704046FCF76DFBAD
:104A9000A672E07A48B9012D07D1E078394680F056
:104AA0000100E0704046FCF760FBE5720CB0BDE829
:104AB000F0810000466C69676874204D6F64650082
:104AC0000A00002044040020B4D934E70C684A3FAF
:104AD000F5280C400000244041313A0041323A00B0
:104AE00041333A0041343A00564261743A000000C2
:104AF0004261743A000000005369676E616C3A00CD
:104B00005965730000100140000C01404E6F000019
:104B1000FF2000F047BE10B5172000F06FFA40F3F9
:104B20000000401C10BD10B5032000F067FA401EC5
:104B3000022801D8012010BD002010BD2DE9F0474A
:104B4000FCF720FB0546114C4FF4FA774FF4004672
:104B50004FF480684FF4007909E000BFFCF712FBC6
:104B6000401BB84203D931462046FCF7FEFA4146C5
:104B70002046FCF7F5FA002805D149462046FCF707
:104B8000EFFA0028EAD0BDE8F087000000080140F5
:104B9000424D08B580212846FDF766FE4021284693
:104BA000FDF74AFE20212846FDF752FE1021284637
:104BB000FDF754FE08212846FDF744FEFCF7F0FA05
:104BC000FBF7A0FD4FF4004631463548FCF7C8FA24
:104BD000344C2F153946A0722846FCF7C1FA324DE5
:104BE000E07239462846FCF7BBFA2073691528465F
:104BF000FCF7B6FA6073FEF70EFAFDF7C9FEFDF793
:104C000049FFFDF797FF2948416941F001014161E2
:104C10004069002200F00100009011460B20FCF7D3
:104C20001DFB0B20FCF70CFBFDF77AFEFDF74EFF9A
:104C3000FFF779FFFDF7AAFFFFF71EFE0B2000F03C
:104C4000CBFB1B48E82100F071F901221146104608
:104C500000F0C4F81748FBF767FD042204F10E01C9
:104C60001448FBF735FF1348FBF7B8FF11480C2138
:104C70008830FDF7A1FC5020FCF770F90D480C219D
:104C80008830FDF7CFFCFDF74DFD00223146284668
:104C9000FCF772FA607800F0B5F8FBE7000C014011
:104CA000001001400A0000200008014000100240EE
:104CB000E2F0F0E84404002010B5044600221E2172
:104CC00035A0FDF765FD012C21D0022C30D0032C3E
:104CD00044D0042C5ED10122172131A0FDF758FDEC
:104CE0000222172130A0FDF753FD0322172131A026
:104CF000FDF74EFD0120FDF743FD042217212FA0F3
:104D0000FDF746FDBDE810400020FDF739BD01204C
:104D1000FDF736FD0122172121A0FDF739FD002006
:104D2000FDF72EFD022217211FA0FDF731FD0FE038
:104D3000012217211AA0FDF72BFD0120FDF720FD10
:104D40000222172118A0FDF723FD0020FDF718FD12
:104D50000322172117A0FDF71BFD14E001221721E4
:104D60000FA0FDF715FD022217210FA0FDF710FD82
:104D70000120FDF705FD032217210EA0FDF708FD18
:104D80000020FDF7FDFC0422BDE8104017210BA018
:104D9000FDF7FEBC10BD00004D454E550000000063
:104DA000466C69676874000053657474696E677354
:104DB0000000000053656E736F727300536F6D6572
:104DC0007468696E6773000010B5401A029CE41A9B
:104DD0006043511A90FBF1F0184410BD70B50646BF
:104DE00014460D46002000F009F9290141EA461158
:104DF00041EA8411BDE8704020F0700001430020BA
:104E000000F09CBD2DE9F05F444C4FF0010B0028F1
:104E100056D001285BD0022866D003284ED16DE021
:104E20004FF400414046FCF79BF906464F46494681
:104E30003B48FCF795F90546394657465046FCF77E
:104E40008FF94FF400713846FCF78AF9A07A70B9EF
:104E5000012E0CD1A078401CC0B2A070042801D94A
:104E600084F802B04FF400514046FCF77EF9A67278
:104E7000E07A70B9012D0CD1A078401E10F0FF002F
:104E8000A07001D10420A0704FF400514046FCF7FF
:104E90006CF9E572A078FFF70FFFFFF74FFE00F007
:104EA000C5FC0028BCD0A578FDF71AFC002DB7D0B2
:104EB000012D0CD0022D17D0032D1FD0BDE8F09F7F
:104EC0004FF48069DFF85CA0DFF85C80A8E7FFF7AB
:104ED000EBFC00F0ABFC20B184F802B00020E070E5
:104EE00013E0FFF72BFEF2E700F0BCFA00F09EFCA7
:104EF00008B1022008E0FFF721FEF5E700F0A0F876
:104F000000F094FC38B10320A070FDF7E9FBBDE888
:104F1000F05FFFF713BEFFF711FEEFE70A00002076
:104F2000000C0140000801400010014013B5084C7E
:104F300069460A20627800F027FD627869461020F1
:104F400000F022FD2178112000F0F8FC1CBD0000CB
:104F50000000002010B5002000F050F8810709D4AF
:104F600040F00201002000F0E9FCBDE810400520FF
:104F7000FBF7F4BF10BD10B500F006F87021BDE8D6
:104F80001040072000F0DABC2DE9FC410C4619491D
:104F9000064600270878844200D90446097909B1F9
:104FA000002000E0001BC5B261208DF80000002049
:104FB000FFF740FC6423012269460F48FDF76AF8B9
:104FC0006423224631460C48FCF7BCFF002407E06E
:104FD0008DF804406423012201A90748FCF7B2FFC1
:104FE0006D1EEDB2F4D20120FFF724FC3846BDE877
:104FF000FC81000000000020740400203EB500F099
:105000001F008DF8080000208DF80400FFF712FC47
:105010004FF47A74012301AA02A908480094FDF70D
:10502000E7F8012301AAFF2104480094FDF7E0F806
:105030000120FFF7FFFB9DF804003EBD7404002033
:105040002DE9F04F91B04FF40041BE48FCF788F8CD
:1050500080464FF480642146BB48FCF781F8214626
:10506000BA4C83462046FCF77BF882466115204601
:10507000FCF776F88146202104A8FBF77EF8B44CB3
:1050800020780025E8B32570B248FBF70DFE4FF4F9
:10509000807704F10E0600977088012340F6FF72B6
:1050A0000021FFF791FEE07100973088012340F660
:1050B000FF720021FFF788FE20720097F08801231D
:1050C00040F6FF720021FFF77FFE6072B088FBF7A9
:1050D000DDF8A14AA14BFBF762F84FF04042A04B2C
:1050E000FBF75DF800229F4BFBF759F8FBF708F937
:1050F000074635807580B580F58004223146954895
:1051000000E001E0FBF7E4FC0022114696A0FDF769
:105110003FFB0423627900212820FDF7ABFB01222D
:10512000002193A0FDF734FB0423227901212820DC
:10513000FDF7A0FB0222002190A0FDF729FB04232C
:10514000A27902212820FDF795FB032200218DA0E2
:10515000FDF71EFB3846FBF7BFF882B20323194662
:105160001E20FDF787FB03222B2188A0FDF710FBF3
:105170000422002187A0FDF70BFB4D208DF81000C5
:1051800056208DF8110061208DF81200E0798DF81D
:105190001300207A8DF8140001208DF8150064208A
:1051A0008DF8160020798DF8170060798DF81800B9
:1051B000A0798DF819008DF8305004A8FAF7E8FFAF
:1051C000C1B204A800F066FB002851D0FFF7A3FC91
:1051D00070B301210CA8FFF7CEFE9DF830000A2124
:1051E000B0FBF1F0FBF74DF80646FBF775F882B21D
:1051F000032319464120FDF73DFB3046FBF753F8EA
:1052000000EB80004300534864A240217C38FFF744
:1052100019FA50487C38FAF7BBFF81B24D487C3808
:10522000FBF73EFA04222D215FA000BFFDF7B0FA84
:105230009DF814009DF817309DF816209DF8151064
:105240008DE80F0043489DF8133058A23F217C3869
:10525000FFF7F8F93F487C38FAF79AFF81B23D48EA
:105260007C38FBF71DFAA07A4FF4005620B111E00C
:1052700004222D2157A0D9E7B8F1010F0AD12079D6
:105280003146401D20712F48FBF76FFF20798C2895
:1052900000D9257184F80A80E07A68B9BBF1010F62
:1052A0000AD120793146401F20712648FBF75DFF67
:1052B00020798C2800D9257184F80BB0207BE0B9C7
:1052C000BAF1010F19D14FF480611F48FBF748FF75
:1052D00038B16079401DC0B260713C2809D9657150
:1052E00007E0A079401DC0B2A0713C2801D91E2062
:1052F000A07131461348FBF738FF84F80CA0607B9F
:10530000D8B9B9F1010F18D14FF480610E48FBF7FD
:1053100027FF38B16079401FC0B260713C2808D9BE
:10532000657106E0A079401FC0B2A0713C2800D989
:10533000A57131460348FBF718FF84F80D9011B0B2
:10534000BDE8F08F00100140000C01400008014052
:105350000A00002044040020B4D934E70C684A3F16
:10536000F5280C400000244053656E73313A00006C
:105370005375627472696D3A0000000053656E7374
:1053800032000000564261743A0000004261743AF3
:10539000000000005369676E616C3A004261743A24
:1053A000202564200D0A00005965730041444331F3
:1053B0002058313A25642059313A256420204D3A4D
:1053C00025642043683A25642073756274723A2517
:1053D000640A00004E6F00000146052000F0AEBADE
:1053E00070B5064600250620FFF708FE20F02804C9
:1053F0000D485521022E817002D0012E04D007E005
:1054000044F020049B2102E044F008044121817013
:105410002146062000F092FA0620FFF7EFFDA04299
:1054200000D10125284670BD0000002010B50446BB
:105430000620FFF7E3FD00F0F801032C01D9072057
:1054400003E0012000EB4400C0B20143BDE810407E
:10545000062000F073BA00F00F0060F31F11042063
:1054600000F06CBA2DE9F04F95B020210BA8FAF7A7
:1054700084FE4FF40041A948FBF772FE00B1012001
:1054800082464FF480642146A548FBF769FE00B1CF
:1054900001202146A34C81462046FBF761FE00B166
:1054A000012080464FF400712046FBF759FE08B1F9
:1054B000012700E000279C4D287800287ED04FF07F
:1054C000000B85F800B0FF2605F10E0400966088F9
:1054D000012340F6FF725946FFF776FCE87100960B
:1054E0002088012340F6FF720021FFF76DFC28722F
:1054F0000096E088012340F6FF720021FFF764FC6C
:105500006872A088FAF7C2FE884A894BFAF747FE0C
:10551000B207884BFAF743FE0022874BFAF73FFEAB
:10552000FAF7EEFE00908548FBF7BEFB002211461D
:1055300083A0FDF72DF92288042300211E20FDF70A
:1055400099F90122002180A0FDF722F96288042345
:1055500001211E20FDF78EF9022200217CA0FDF71B
:1055600017F9A288042302211E20FDF783F90322E4
:10557000002179A0FDF70CF9E288042303211E2005
:10558000FDF778F90322002175A0FDF701F90098D5
:10559000FAF7A2FE82B2032319461E20FDF76AF92C
:1055A00003222B2170A0FDF7F3F80422002170A044
:1055B000FDF7EEF84D208DF82C0000E0ABE0562012
:1055C0008DF82D0061208DF82E00E8798DF82F00E0
:1055D000287A8DF8300001208DF8310064208DF894
:1055E000320028798DF8330068798DF83400A87975
:1055F0008DF835008DF84CB00BA8FAF7C9FDC1B293
:105600000BA800F047F958B3FFF785FA38B301212A
:1056100013A8FFF7B0FC9DF84C000A21B0FBF1F095
:10562000FAF72FFE0190FAF757FE82B203231946CC
:105630004120FDF71FF904222D214FA0FDF7A8F806
:105640003E484EA240217C38FEF7FCFF3B487C38A8
:10565000FAF79EFD81B239487C38FBF721F805E066
:1056600036484AA240217C38FEF7ECFF33487C38AC
:10567000FAF78EFD81B231487C38FBF711F804222D
:105680002D2146A0FDF784F80198FAF70CFE00EBF7
:10569000800046000098FAF706FE9DF835109DF848
:1056A00034209DF83330CDE9092187F00107CDE999
:1056B000077388F0010289F00101CDE905128AF033
:1056C0000103CDE903636A7A9DF8301000EB800096
:1056D00000914000CDE9012018489DF82F30304A54
:1056E00078217C38FEF7AEFF14487C38FAF750FD7D
:1056F00081B212487C38FAF7D3FFA4F800B0A4F8BE
:1057000002B0A4F804B0A4F806B0074904220E3190
:105710000A48FBF7DDF915B0BDE8F08F0010014035
:10572000000C0140000801400A000020B4D934E711
:105730000C684A3FF5280C40000024404404002037
:10574000414443313A000000414443323A000000F2
:10575000414443333A000000414443343A000000DE
:10576000564261743A0000004261743A0000000041
:105770005369676E616C3A00596573005369676ECF
:10578000616C3A20596573200D0A00005369676EF9
:10579000616C3A204E6F6F200D0A00004E6F0000C2
:1057A0002C5C000801B582B000208DF80400FFF7E2
:1057B00041F84FF47A700090012301AA02A904482D
:1057C000FCF716FD0120FFF735F89DF804000EBD2B
:1057D0007404002010B51C460AB1B02200E0A022DB
:1057E00000F074F8002C04D0BDE810400120FFF751
:1057F00019B810BD38B550208DF800000020FFF713
:1058000019F84FF47A742346012269460648FCF7DA
:1058100041FC2346012273210348FCF73BFC012095
:10582000FFF708F838BD0000740400202DE9F047A8
:10583000FBF7A8FC4FF4806605464FF47A79134CC9
:105840007701DFF84C8014E0FBF79CFC401B4845D7
:105850000FD9454631462046FBF782FC012805D189
:1058600039462846FBF77CFC0128F3D00120BDE82F
:10587000F08731462046FBF773FC28B9394640468D
:10588000FBF76EFC0028DFD00020F0E7000C0140A1
:105890000010014010B501231A46FFF79BFF00BF1F
:1058A000FFF736F910F0300FFAD00020FEF7BAFFFC
:1058B0007021072000F042F8C00604D5E120FFF770
:1058C00071FF002010BD012010BD0000FEB50027B3
:1058D0008DF80820174A8DF804700646107881422A
:1058E00000D301460C46117909B1002000E0001BED
:1058F000C5B20020FEF79EFF64200090012301AA9C
:1059000002A90D48FCF774FC64232246314604E0EA
:1059100064238DF80070012269460748FCF7BAFB42
:105920006D1EEDB2F4D20120FEF784FF9DF8040055
:10593000FEBD0000000000207404002003B583B009
:1059400000F01F00002140F020008DF808008DF8C5
:1059500004100846FEF76EFF64200090012301AAA0
:1059600002A90848FCF744FC4FF47A73012204A909
:105970000448FCF78FFB0120FEF75CFF9DF8040054
:1059800005B000BD740400203EB50D4600F01F00B8
:10599000002140F020008DF8080014468DF8041016
:1059A0000846FEF747FF64200090012301AA02A9E0
:1059B0000748FCF71DFC6423224629460448FCF7EF
:1059C00069FB0120FEF736FF9DF804003EBD000094
:1059D000740400200000000000000000005F0000D0
:1059E00000000700070000147F147F1400242A7FA2
:1059F0002A12002313086462003649552250000021
:105A00000503000000001C224100000041221C0090
:105A10000014083E08140008083E08080000503032
:105A2000000000080808080800006060000000206E
:105A300010080402003E5149453E0000427F4000EC
:105A4000004261514946002141454B310018141272
:105A50007F10002745454539003C4A49493000013F
:105A60007109050300364949493600064949291E8E
:105A700000003636000000005636000000081422F0
:105A800041000014141414140000412214080002F0
:105A90000151090600324979413E007E1111117E03
:105AA000007F49494936003E41414122007F414142
:105AB000221C007F49494941007F09090901003E34
:105AC0004149497A007F0808087F0000417F410072
:105AD000002040413F01007F08142241007F4040E8
