:020000040800F2
:10000000001B002005010008733400087D2F000844
:10001000713400087D090008035400080000000046
:10002000000000000000000000000000713900081E
:10003000490A000800000000393800087339000838
:100040001F0100081F0100081F0100081F01000810
:100050001F0100081F0100081F0100081F01000800
:100060001F0100081F0100081F010008F109000816
:100070001F0100081F0100081F0100081F010008E0
:100080001F0100081F0100081F0100081F010008D0
:10009000395300081F0100081F0100081F01000854
:1000A0001F0100081F0100081F0100081F010008B0
:1000B0001F0100081F0100081F0100081F010008A0
:1000C0001F0100081F0100081F0100081F01000890
:1000D0001F0100081F0100081F0100081F01000880
:1000E0001F0100081F0100081F010008DFF810D0E1
:1000F00000F064FB004800479D600008AFF30080FB
:10010000001B00200648804706480047FEE7FEE740
:10011000FEE7FEE7FEE7FEE7FEE7FEE7FEE7FEE7B7
:10012000DD390008ED000008202A04DB203A21FA1E
:1001300002F00021704721FA02F3D040C2F1200200
:10014000914008431946704740EA01039B0703D0DA
:1001500009E008C9121F08C0042AFAD203E011F806
:10016000013B00F8013B521EF9D27047D2B201E0C8
:1001700000F8012B491EFBD270470022F6E710B5AC
:1001800013460A4604461946FFF7F0FF204610BD05
:10019000421C10F8011B0029FBD1801A70472DE981
:1001A000FE4F804681EA0300C00F0C46009021F00C
:1001B000004123F00045B8EB0200A94105D24046BA
:1001C000214690461C460B46024623F00040104351
:1001D00047D0270DC7F30A00C3F30A510290401A13
:1001E000019040286BDAC3F3130040F4801B0098A1
:1001F000924620B10023D2EB030A63EB0B0B01986C
:100200005946C0F14002504600F0F3F906460D464B
:1002100050465946019A00F0FBF910EB0800614185
:10022000002487EA115284EAE7731A4340D0009A07
:1002300062B3019A012A4FEA075215DC001B61EBF9
:1002400002014FF0004202EA0752CDE90042001CD1
:1002500041F5801132462B4600F032FA03B0BDE87A
:10026000F08F40462146F9E7001B61EB0201001CBC
:1002700041F5801300185B412018A2F5001747EBE9
:10028000030140EAD570B6196D4111E06D084FEADF
:10029000360645EAC0754FEA0752001B61EB0201C2
:1002A000001C41F5801149084FEA30000019514106
:1002B00032462B4603B0BDE8F04F00F0F2B900988B
:1002C000012240000023D0EB020263EBE0730098B0
:1002D00021464FEAE074B8EB000061EB0401E9E766
:1002E00083F000435BE781F0004158E72DE9FE4FC2
:1002F00081EA030404F0004421F0004100944FF02F
:10030000000B23F0004350EA01045ED052EA0304DC
:100310005BD0C3F30A54C1F30A552C44A4F2F3345E
:100320000194A0FB0254C1F3130141F48011C3F303
:10033000130343F4801301FB024400FB034E840AC1
:10034000970A44EA815447EA8357A4FB0768029559
:100350008D0A05FB07854FEA932C04FB0C542705F7
:10036000029D4FEA065847EA1637B5EB08056EEBD3
:10037000070C870E920E47EA811742EA8312A7FB09
:100380000201B6EB0B0164EB00042B0D43EA0C33C6
:100390005E1844EB1C50DA465146E7FB0201C5F3F8
:1003A00013044FEA0B3343EA14534FEA0432019C1F
:1003B00043EA0603A4F10C040294009CCDE900B4C6
:1003C00000F07EF903B0BDE8F08F00200146F9E7A8
:1003D0002DE9F04D81EA030404F0004B21F00045C3
:1003E00014464FF0000A23F0004150EA050220D0E5
:1003F00054EA01021DD0C5F30A570246C5F31303A0
:10040000C1F31300C1F30A5640F4801543F480137E
:10041000A7EB0608101BD64608F2FD3873EB050063
:1004200002D308F1010801E092185B41B8F1000F16
:1004300003DA00200146BDE8F08D00204FF4801162
:10044000064684460EE0171B73EB050705D3121B07
:1004500063EB050306434CEA010C49084FEA300000
:1004600092185B4150EA0107EDD152EA030012D025
:1004700082EA040083EA0501084305D0101BAB4162
:1004800006D20122002306E000224FF0004302E0E2
:100490006FF0010253101AEB06004CEB085110EB01
:1004A0000A0041EB0B01BDE8F04D00F0FAB89623CD
:1004B0000022114600F0C7B80EB540F23341029158
:1004C0000021CDE900110A460B4600F0F9F803B00F
:1004D00000BD00F0004220F00040C10DC0F3160046
:1004E00040F400007F2901DA00207047962903DCE0
:1004F000C1F19601C84001E096398840002AF4D045
:100500004042704720F00040C10DC0F3160040F497
:1005100000007F2901DA00207047962903DCC1F131
:100520009601C840704796398840704701F00043F3
:1005300030B421F0004150EA010206D00A0DA2F5C4
:100540006072C1F31301002A02DC30BC0020704746
:10055000440F44EAC104C100E01830BC00EBC250B3
:1005600000F068B830B50B46014600202022012477
:1005700009E021FA02F59D4205D303FA02F5491B71
:1005800004FA02F52844151EA2F10102F1DC30BD87
:100590002DE9F05F0546002092469B4688460646B8
:1005A000814640241BE02846414647462246FFF745
:1005B000BBFD53465A46C01A914110D31146184606
:1005C000224600F016F82D1A67EB01084F46224626
:1005D0000120002100F00DF817EB00094E41201E0C
:1005E000A4F10104DFDC484631462A464346BDE813
:1005F000F09F202A04DB203A00FA02F10020704725
:100600009140C2F1200320FA03F319439040704750
:10061000202A06DBCB17203A41FA02F043EAE073C6
:1006200006E041FA02F3D040C2F1200291400843B3
:10063000194670470029A8BF7047401C490008BFF1
:1006400020F00100704710B4B0FA80FC00FA0CF002
:1006500050EA010404BF10BC704749B1CCF120043A
:1006600021FA04F411FA0CF118BF012121430843C7
:10067000A3EB0C01CB1D4FEA00614FEA102042BFF3
:10068000002010BC704700EBC35010440029A4BFE9
:1006900010BC7047401C490008BF20F0010010BC8E
:1006A000704710B5141E73F1000408DA401C41F1C4
:1006B000000192185B411A4301D120F0010010BDE6
:1006C0002DE9F04D92469B4611B1B1FA81F202E05C
:1006D000B0FA80F220329046FFF78BFF04460F46B7
:1006E00040EA0A0041EA0B0153465A46084313D038
:1006F000114653EA010019D0C8F140025046FFF7F5
:1007000013FD05460E46504659464246FFF771FF17
:10071000084305D0012004E020463946BDE8F08DAD
:100720000020054346EAE0762C4337430A986305E8
:10073000E40AA0EB08000022FD0A44EA47540A300C
:1007400002D500200146E9E7010510196941DDE9FC
:10075000084500196941BDE8F04DA2E7C1F30A520E
:10076000C1F3130140F2FF3341F480119A4202DADF
:1007700000200146704740F233439A42A2F23342CE
:1007800002DC5242FFF7D0BCFFF733BF30B5041E86
:1007900071F1000404DB4FF00044404264EB0101BE
:1007A000141E73F1000405DB1C464FF00043524257
:1007B00063EB0403994208BF904230BD064C074DDD
:1007C00006E0E06840F0010394E807009847103421
:1007D000AC42F6D3FFF78EFCDC710008FC71000818
:1007E00070B58C1810F8015B15F0070301D110F8F3
:1007F000013B2A1106D110F8012B03E010F8016B20
:1008000001F8016B5B1EF9D12B0705D40023521EA2
:100810000DD401F8013BFAE710F8013BCB1A921C0A
:1008200003E013F8015B01F8015B521EF9D5A14208
:10083000D8D3002070BD000070B504460068816800
:10084000C943C90717D1816821F00101816000F017
:1008500039FE05460AE000BF00F034FE401B0228C6
:1008600004D920688068C043C00706D0206880682B
:10087000C043C007F0D0002070BDA06A40F0100057
:10088000A062E06A40F00100E062012070BD10B596
:100890000146406A826A12F0500F05D0006A026B6E
:1008A000BDE8104008461047816A41F4007181623A
:1008B00001688968C1F3424107290CD1017B51B914
:1008C000816A21F480718162816AC90403D4816ADA
:1008D00041F00101816200F0A3F910BD10B5406A3A
:1008E000816A41F040018162C16A41F00401C16244
:1008F00000F0A3F910BD10B5406A00F09DF910BDDD
:10090000F8B500260446009600688168C943C90707
:100910002DD0816841F001018160164816490068B8
:10092000B0FBF1F000E0401E00900028FBD100F089
:10093000C9FD054616E000BF00F0C4FD401B0228BB
:1009400010D920688068C043C0070BD0A06A40F06F
:100950001000A062E06A40F00100E06284F82460C8
:100960000120F8BD20688068C043C007E4D10020A2
:10097000F8BD00007C00002040420F00FEE7002090
:10098000704700207047000010B500220449054858
:1009900003F020FA0449034803F016FA002010BDC2
:1009A000141300205C0500202C0F002010B5014618
:1009B000034803F009FA024803F0EAF9002010BDE9
:1009C0005C050020094A10B5D2F8B822D2F81422EA
:1009D0000AB1012010BD0A460146044803F0FAF9A5
:1009E000BDE81040014803F053BA00005C05002048
:1009F000014800F043BB00001805002030B590F816
:100A000040500124AC40C56B6C600468636043686F
:100A1000102B036803D099600068C26030BD9A60F3
:100A20000068C16030BD00000548016841F0807178
:100A300001600448016841F0010101607047000055
:100A4000FCED00E0001000E070477047F8B50025AD
:100A50000446009590F82400012808D0012084F86D
:100A600024002046FFF7E8FE060002D053E00220F3
:100A7000F8BDA06A20F4885040F00200A062022075
:100A800001F08CFA26490968B1FBF0F0400000E063
:100A9000401E00900028FBD12046FFF731FF206860
:100AA000816841F00801816000F00CFD074608E014
:100AB00000F008FDC01B0A2803D9206880680007E1
:100AC00015D4206880680007F2D42068816841F05E
:100AD0000401816000F0F6FC074612E000F0F2FC31
:100AE000C01B0A280DD920688068400709D5A06A74
:100AF00020F0020040F01000A06284F82450012091
:100B0000F8BD206880684007E8D4A06A20F00200A1
:100B100040F00100A06284F824503046F8BD000087
:100B20007C000020F8B50024009490F8242025468D
:100B3000012A12D0012280F824204A681F23072AA4
:100B40000DD20668776B521E02EB820293409F43E0
:100B50000B6893401F43776319E00220F8BD0668D5
:100B60000D2A0AD2376BD21F02EB820293409F43B9
:100B70000B6893401F43376309E0F76A0D3A02EBB5
:100B8000820293409F430B6893401F43F7620A68B9
:100B9000072306680A2A0AD3F7680A3A02EB4202D8
:100BA00093409F438B6893401F43F76008E0376989
:100BB00002EB420293409F438B6893401F4337618F
:100BC0000A68102A01D0112A20D1124B02689A42D9
:100BD00017D193681B0219D4936843F40003936000
:100BE0000968102912D10C490C4A0968B1FBF2F1CD
:100BF00001EB8101490000E0491E00910029FBD171
:100C000004E0816A41F020018162012480F82450CF
:100C10002046F8BD002401407C00002040420F0027
:100C200000680349884202D10249012008707047D8
:100C3000002401400A000020704770472DE9F04170
:100C40004FF0000704003D467ED0A06A002628B978
:100C5000E66284F82460204600F07EF82046FFF724
:100C6000EBFDA16AC90600D420B1A06A40F01000D3
:100C7000A06269E0A16A21F4885141F00201A162F9
:100C80006268E169237B0A4347EA43010A43A1689A
:100C90004FF48077B94209D0012907D05FF00001F5
:100CA00094F814C0BCF1010F02D00AE03946F7E70E
:100CB000F3B1A36A43F02003A362E36A43F00103A4
:100CC000E3622368D3F804C02CF4694C4CEA010CAD
:100CD000C3F804C021688B68DFF870C003EA0C0316
:100CE00013438B60A168B9420BD0012909D00CE0F5
:100CF000DFF85CC0A3690CEB43330B4343F40061A2
:100D0000DFE7218A0D05A5F580152168CB6A23F45C
:100D100070032B43CB62216889680E4B19409142C6
:100D200008D1E662A16A21F0020141F00101A1624D
:100D3000BDE8F081A06A20F0020040F01000A0623F
:100D4000E06A40F00100E0620120F1E7FDF7E1FF19
:100D500000E0FFFFFE0E1FFF70B586B000250646BF
:100D600000950195029503950068214988423CD180
:100D70002049886940F400708861886900F4007037
:100D80000490886940F004008861886900F00400DC
:100D90000490886940F0080088618869032400F0A5
:100DA000080004900720CDE900046946124800F0CD
:100DB00087FA009469461148019400F081FA114CB9
:100DC0000F48C4E900058020C4E9025040002061BA
:100DD000800060612020C4E90605204600F0F8F993
:100DE00008B1FFF732FE3462666206B070BD0000E3
:100DF000002401400010024000080140000C0140A6
:100E000008000240180500202DE9F04789460446F5
:100E10003B4900683B4F0E1D9046884201D0B842C6
:100E200007D1306810F4702F03D001252846BDE8A3
:100E3000F08794F8240001280CD0012084F82400C5
:100E40002046FFF75DFD05004FF0000004D084F858
:100E50002400EBE70220EAE7A16A40F60162914331
:100E600041F48071A1622168B94218D1326812F44C
:100E7000702F14D0A16A41F48011A1623168490534
:100E800005D5A16A21F4005141F48051A162A16A03
:100E9000C9040AD5E16A21F00601E16206E0A26A0E
:100EA00022F48012A2624968E9E7E06284F8240033
:100EB000216A15488862216A1448C862216A144868
:100EC000086321686FF0020008602068816841F4BF
:100ED00080718160216843464A464C31206A00F0A7
:100EE000A5F920688168C1F342410729816803D0D0
:100EF00041F48011816099E741F4A001FAE7000014
:100F000000240140002801408F080008F70800086D
:100F1000DD08000870B5044690F8240001280DD0C3
:100F2000012084F824002046FFF7EAFC02004FF07D
:100F3000000005D084F82400104670BD022070BD6A
:100F4000A16A40F60163994341F48071A162224D88
:100F500023682249AB4218D10E6816F4702F14D0C2
:100F6000A66A46F48016A6620E68760505D5A66ABE
:100F700026F4005646F48056A662A66AF6040AD500
:100F8000E66A26F00606E66206E0A66A26F4801601
:100F9000A6625E68E9E7E06284F824006FF0020070
:100FA00018602068436843F020034360206883682A
:100FB000C3F34243072B05D1A84208D1096811F4B5
:100FC000702F04D0816841F480118160B4E781689A
:100FD00041F4A001F9E70000002801400424014089
:100FE00010B5044690F82400012807D0012084F8A9
:100FF00024002046FFF720FC10B113E0022010BDB2
:1010000021688A6822F480728A60216A91F821201E
:10101000022A07D1084600F00EF8A16A30B141F06B
:101020004001A162002184F8241010BD21F48851F0
:1010300041F00101F5E710B590F8211000220229D6
:1010400005D00421816380F82020012010BD0168B3
:101050000B6823F00E030B6001680B6823F001039B
:101060000B6090F84030C46B012101FA03F3636018
:1010700080F8211080F82020104610BD2DE9F05F87
:10108000C16B0C6801680B68D0F840C0042202FAFA
:101090000CF2494DDFF824A1494E4A4FDFF828B140
:1010A000DFF828E122422CD05A072AD50A68920696
:1010B00003D40A6822F004020A600168A94201D13F
:1010C000042219E0514501D1402215E0B14202D17C
:1010D0004FF4806210E0B94202D14FF480420BE03D
:1010E000594502D14FF4802206E0714502D14FF4F8
:1010F000800201E04FF080622F4908394A60C16ADE
:101100003BE04FF0020808FA0CF818EA040F4FF021
:1011100000094FF0010235D05FEA837832D50B68C1
:101120009B0605D40B6823F00A030B6080F821208E
:101130000168A94201D1022219E0514501D12022C2
:1011400015E0B14202D14FF4007210E0B94202D171
:101150004FF400520BE0594502D14FF4003206E043
:10116000714502D14FF4001201E04FF000721249B4
:1011700008394A6080F82090816A00291AD0BDE8B9
:10118000F05F0847082505FA0CF5254212D01B0729
:1011900010D50B6823F00E030B6090F84010C36B62
:1011A00002FA01F15960826380F8212080F82090D2
:1011B000016BE2E7BDE8F09F080002401C0002401E
:1011C0003000024044000240580002406C000240DF
:1011D00030B528B308C8134914221944B1FBF2F101
:1011E0008900C16310498163022141771A6843F67F
:1011F000F0718A43D0E900142143D0E902452C4321
:1012000021430469214344692143846921431143F3
:10121000196000214163012242770177084630BD01
:10122000012030BDF8FFFDBF0000024070B504464C
:1012300090F82000002501280CD0012084F820001F
:1012400094F821600020012E06D084F820000225A9
:10125000284670BD022070BD022684F82160A0637C
:101260002068066826F0010606602046FFF7C6FBE8
:10127000E06A00282068016802D041F00E0106E013
:1012800021F0040101602068016841F00A01016059
:101290002068016841F001010160D9E770B504469A
:1012A00000F010F90546601C02D0044800780444A0
:1012B00000F008F9401BA042FAD370BD8000002066
:1012C0002DE9F84FDFF8B891002409F1040A0AF17A
:1012D000040B23460F270BF1040EC9E00125A5409E
:1012E0002A40AA427DD1674ED1F804C0ACEB060873
:1012F000B44532D014DCBCF1030F3AD009DCBCF1A8
:10130000000F2AD0BCF1010F1CD0BCF1020F31D16B
:101310001DE0BCF1110F17D0BCF1120F2AD119E05A
:10132000B8F5881F19D006DCB8F5803F15D0B8F5A0
:10133000801F1FD111E0B8F5001F0ED0B8F5041FB3
:1013400018D10AE0CB6815E0CB681B1D12E0CB6812
:1013500008330FE0CB680C330CE08B682BB1012B0A
:101360004FF0080303D0456104E0042302E0056167
:1013700000E00023FF2A01D8064601E000F1040640
:101380004FEA840501D9A5F12005D6F8008007FAB7
:1013900005FC28EA0C0803FA05F548EA0508C6F832
:1013A00000804D68ED0062D5374DAE6946F001060C
:1013B000AE61AD6924F0030605F001050095334DDB
:1013C00006EB050CDCF80850A607360F07FA06F8FE
:1013D00025EA0805DFF8B880404503D14FF0000842
:1013E00017E044E0DFF8AC80404502D14FF001083F
:1013F0000FE0DFF8A480404502D14FF0020808E07A
:10140000DFF89880404502D14FF0030801E04FF02B
:10141000040808FA06F848EA0508CCF808804D6880
:10142000D9F80060ED034D4601D5164300E0964320
:101430002E604D68DAF80060AD03554601D51643BD
:1014400000E096432E604D68DBF80060ED025D46DB
:1014500001D5164300E096432E604D68DEF800602B
:10146000AD02754601D5164300E096432E60641C1C
:101470000D682A46E5407FF431AFBDE8F88F0000E3
:101480000004014000001110001002400000014063
:1014900000080140000C0140001001400014014010
:1014A0008068084000D001207047C26821EA02032A
:1014B0000A4043EA0241016170470AB10161704785
:1014C0000904FBE7014880687047000080000020A5
:1014D00002488168027811448160704780000020D2
:1014E000074810B5016841F010010160032000F0C9
:1014F00075F8002000F006F800F024F8002010BD78
:101500000020024070B50D4D04464FF47A712878E2
:10151000B1FBF0F00A490968B1FBF0F001F067FB9C
:1015200048B9102C07D200222146501E00F036F890
:1015300000206C6070BD012070BD000080000020A4
:101540007C0000200C4808B5816941F001018161EF
:10155000816901F001010091C16941F08051C161CF
:10156000C06900F0805000900448416821F0E061BB
:1015700041F00071416008BD0010024000000140D0
:10158000002809DB00F01F02012191404009800082
:1015900000F1E020C0F8001170470000F0B40E4BDD
:1015A0001B680C46C3F30223C3F10705042D00D9C1
:1015B0000425191D072901D2002300E0DB1E0126A6
:1015C00006FA05F1491E214099409E40761E1640BC
:1015D0003143F0BC03F030BF0CED00E0064900F0F1
:1015E000070208684FF6FF03184040EA0220034A4A
:1015F00010430860704700000CED00E00000FA05A1
:1016000010B50C0607D501F0070101EB810100EBD5
:10161000C100283005E001EB810100EBC10000F5BD
:10162000B47099B232B1012202730181190C418167
:10163000002010BD00220273C180F9E7704701EB62
:10164000810200EBC202D0F8E802D26B02F0CFBDFB
:1016500001EB810200EBC202D0F8E802D2F87C2153
:1016600002F028BE70B504460B0601F0070000EB3F
:10167000800104EBC1014FF001024FF0000503D5DA
:1016800081F82920283103E081F8695101F5B4710E
:10169000087094F8A802012808D084F8A8222068CD
:1016A00003F048FA84F8A852002070BD022070BDF3
:1016B00070B5044601F00F006268904201D9012024
:1016C00070BD0B0601F0070000EB800104EBC101C7
:1016D0004FF001024FF0000503D581F82920283191
:1016E00003E081F8695101F5B4718D70087094F8C8
:1016F000A802012808D084F8A822206803F0B7FACD
:1017000084F8A852002070BD022070BD2DE9F05F62
:1017100004685FEA424C0B788D69B4F850C04FF012
:1017200000064BF68F7948F2800A48F68F7B48F224
:10173000C00E4FF480672AD54FF0020808EBC308AB
:10174000C44407EB4C07E45BC4F30904A54203D38C
:101750002D1B8D6101D00BE08E61066836F8235099
:1017600005EA090585F4005545EA0A0526F82350DF
:10177000520609D50D78036833F8252002EA0B02DA
:1017800042EA0E0223F8252084B30A8929E04FF0AB
:10179000060808EBC308C44407EB4C07E45BC4F33A
:1017A0000904A54203D32D1B8D6101D00BE08E618E
:1017B000066836F8235005EA090585F4005545EA20
:1017C0000A0526F82350520609D40B78056835F827
:1017D000232002EA0B0242EA0E0225F823202CB154
:1017E0004A8949690068234603F0B0FD2046BDE8F8
:1017F000F09F2DE9F05F054600680C465FEA426CF9
:1018000016468B692278B0F850C048F68F774CF2B4
:1018100080094FF6FF7B4FF4004E4FF4806A4FF083
:1018200000017BD54FF0020808EBC208E0440AEB48
:10183000480C30F80C00C0F30900834211D91B1A80
:10184000A3610FD0730407D52E6836F822303B40D1
:1018500043EA090326F8223094F82420012A50D0C4
:101860004EE1A161607810B1012813D01AE0286818
:10187000B0F85030184400EB0210B0F8042422F401
:10188000F842A0F80424B0F8042442F40042A0F87E
:10189000042407E02868B0F85030184400EB021028
:1018A000A0F804146278286812B1012A11D018E057
:1018B000B0F850100844217800EB0110B0F80C1477
:1018C00021F4F841A0F80C14B0F80C1441F40041D4
:1018D00005E0B0F850201044227800EB0210A0F888
:1018E0000C1421782846FFF7AAFE7004B8D5217899
:1018F0002A6832F82100384040EA090022F8210025
:10190000FEE0626902446261E2690244E2612369C5
:10191000226A9A4203D31846111A04E038E084F888
:1019200024100AB110462162617811B1012923D037
:101930002BE02968B1F850201144227801EB021104
:1019400001F2044148B13E280FD84208C30700D035
:10195000521C0BEA82220A8017E00A8822F4F8421D
:101960000A800A8842F40042F5E74209C30600D122
:10197000521E4EEA8222EEE72968B1F85020114447
:10198000227801EB0211A1F8040483B22289B3E0AA
:101990004FF0060808EBC208E0440AEB480C30F8A8
:1019A0000C00C0F30900834211D31B1AA3610FD0AE
:1019B000730407D42E6836F822303B4043EA09030B
:1019C00026F8223094F82420012A50D098E0A16112
:1019D000607810B1012813D01AE02868B0F85030B0
:1019E000184400EB0210B0F8042422F4F842A0F8E6
:1019F0000424B0F8042442F40042A0F8042407E0D0
:101A00002868B0F85030184400EB0210A0F8041415
:101A10006278286812B1012A11D018E0B0F850108D
:101A20000844217800EB0110B0F80C1421F4F841BF
:101A3000A0F80C14B0F80C1441F4004105E0B0F823
:101A400050201044227800EB0210A0F80C142178EA
:101A50002846FFF7F4FD700452D42278296831F843
:101A60002200384040EA090021F8220048E062697B
:101A700002446261E2690244E2612369226A9A4295
:101A800003D31846111A216204E00AB110462162FC
:101A900084F824106278296812B1012A22D029E042
:101AA000B1F850201144227801EB021101F20C41EF
:101AB00048B13E280FD84208C30700D0521C0BEA99
:101AC00082220A8016E00A8822F4F8420A800A88F4
:101AD00042F40042F5E74209C30600D1521E4EEA25
:101AE0008222EEE7B1F850201144227801EB021176
:101AF000A1F80C04628983B26169286803F06EFC66
:101B000021782A6832F8210048F6BF73184080F027
:101B1000300048F28003184322F821000020BDE87D
:101B2000F09F01F0070101EB810100EBC100D0F84B
:101B3000840170472DE9F04104460F0601F00700CB
:101B400000EB800104EBC1014FF001064FF00005EE
:101B500003D581F82960283103E081F8695101F546
:101B6000B47108700A61CB704A7802B1C881022B47
:101B700000D10D7194F8A802012809D084F8A86258
:101B8000206802F0A9FE284684F8A852BDE8F0813A
:101B90000220FBE770B50C4601F0070505EB850157
:101BA00000EBC101C1E95F230022C1F8842181F863
:101BB000692181F8685101F5B4716207006803F08A
:101BC000ABF8002070BD70B504460D4601F007006B
:101BD0006168884201D9012070BD29064FF00006D6
:101BE0004FF0010207D500EB800104EBC10181F841
:101BF0002920283107E005EB850104EBC10181F8BC
:101C0000696101F5B4718A70087094F8A80201281E
:101C100007D084F8A822206803F065F8680702D08E
:101C200006E0022070BD04F52C71206803F01DF859
:101C300084F8A862002070BD70B50C4601F007055D
:101C400005EB850100EBC101C1E90F23012281F8F9
:101C50004C208B6400234B6481F8292001F8285F15
:101C60006207006803F058F8002070BD1FB50446F5
:101C7000006803F067FB000402D5204601F052FC27
:101C8000206803F05FFB40050CD5206830F8441F46
:101C900021F480610180204600F01EF900212046D9
:101CA00000F035F9206803F04DFB400405D52068AD
:101CB00030F8441F21F480410180206803F042FB8A
:101CC000800405D5206830F8441F21F400510180BC
:101CD000206803F037FBC00414D5206830F8401F9B
:101CE00021F004010180206830F8401F21F0080134
:101CF0000180204600F003F9206830F8441F21F4E9
:101D000080510180206803F01DFB00053ED522684C
:101D10000020694632F8203021F81030401CC0B253
:101D20000828F7D332F8400F40F0010010802068F7
:101D300030F8402F22F0010202802068B0F84420E1
:101D40005205FBD530F8442F22F480620280002037
:101D5000236831F8102023F82020401CC0B2082846
:101D6000F6D3206830F8401F41F008010180206858
:101D700030F8441F21F400610180206830F8401FD2
:101D800041F004010180204600F0F6F8206803F0DD
:101D9000D9FA800508D5206830F8441F21F4007175
:101DA0000180204600F0AFF8206803F0CBFAC005B0
:101DB00005D5206830F8441F21F4807101801FBDD3
:101DC0002DE9F04186B0040004D094F8A902002562
:101DD00020B108E0012006B0BDE8F08184F8A852E7
:101DE000204600F05BF8032084F8A902206802F086
:101DF00035FF04F11001142288466846FEF7A4F965
:101E000094E80F0002F094FE0226D0BB0021206867
:101E100003F0DCFA002001270FE000BF00EB800197
:101E200004EBC10181F8297001F8280FC881CD7039
:101E30000D614D61401CC0B28D6161688142EDD879
:101E4000002011E000EB800104EBC10181F8695131
:101E500081F8680181F86B51C1F87851C1F87C5163
:101E6000401CC0B2C1F8805161688142EAD8142296
:101E700041466846FEF768F994E80F0002F0E5FE77
:101E800010B184F8A962A5E784F8245084F8A972F7
:101E9000206802F0D8FE00209DE7000008B5006829
:101EA0000B49884212D10B48C16941F40001C1615C
:101EB000C069002200F40000009011461420FFF7D2
:101EC0006DFBBDE808401420FFF75ABB08BD0000B9
:101ED000005C00400010024070B504468068012597
:101EE000022801D0FEF7B1FD2946D4F8E80202F03D
:101EF000CAFAD4F8E802BDE8704002F086BAD0F819
:101F0000E80202F0AABAD0F8E80202F0B0BA10B5BE
:101F1000044690F8A80201280BD0012084F8A802FA
:101F200084F82410206803F053FA002084F8A802F3
:101F300010BD022010BDD0F8E82200F52C7110462B
:101F400002F0ADBA10B5044690F8A802012810D0EE
:101F5000012084F8A802206803F0E4F9012120465A
:101F6000FFF76CFB206802F06CFE002084F8A802EA
:101F700010BD022010BD000010B50446D0F8E802E4
:101F800002F0CCFAA069002804D00348016841F0AF
:101F90000601016010BD000010ED00E010B529A49D
:101FA00001461DCC86B08DE81D002AA02A4C006891
:101FB00004900020012923D002293AD010291DD1F4
:101FC00061682268D20119D5C1F38342C9031DF8A3
:101FD000020009D5616804AAC1F34041515C1F4A5F
:101FE000B2FBF1F1484301E01D49484361684902F1
:101FF00004D440005FF00301B0FBF1F006B010BD67
:10200000226AC2F30121012903D1920701D5C80335
:10201000F4E7022905D1626A920702D549F64040E9
:10202000ECE70329EAD121688903E7D54FF2244080
:10203000E4E700F023F96168C1F38131491C4900EC
:10204000DAE7000002030405060708090A0B0C0D75
:102050000E0F1010010200000010024000127A0062
:1020600000093D002DE9F84305460078354CC007CE
:1020700054D0E0690026C00008D4E06940F08050E8
:10208000E061E069012600F0805000902E48016870
:10209000C90512D40168804641F480710160FFF7E0
:1020A00011FA074605E000BFFFF70CFAC01B6428D1
:1020B00023D8D8F80000C005F6D5206A10F4407087
:1020C00021D0A98801F4407181421CD0206A1F49A7
:1020D000012220F440700A6000220A602062C007DA
:1020E00011D0FFF7EFF9074641F2883808E000BF4A
:1020F000FFF7E8F9C11B414502D90320BDE8F88389
:10210000206A8007F4D5206A696820F4407008438B
:1021100020621EB1E06920F08050E06128788007DD
:1021200005D56068A96820F44040084360602878BD
:10213000C00605D56068E96820F480000843606047
:102140000020DBE7001002400070004040044242E3
:102150002DE9F0470F46050061D0434E306800F08E
:102160000700B84209D2306820F0070038433060D9
:10217000306800F00700B84251D128683B4C810715
:1021800012D5400703D5606840F4E06060602878AD
:10219000000703D5606840F4605060606068A9681B
:1021A00020F0F000084360602878C00728D06868F5
:1021B000012810D02168022810D0890700292EDAC2
:1021C000616821F0030101436160FFF77BF98046FC
:1021D00041F288390DE021688903EFE78901EDE7D5
:1021E000FFF770F9A0EB0801494502D90320BDE8CB
:1021F000F0876068696800F00C00B0EB810FEFD1E8
:10220000306800F00700B8420BD9306820F00700B2
:1022100038433060306800F00700B84201D0012038
:10222000E5E72878400705D56068E96820F4E060B4
:10223000084360602878000706D56068296920F4A3
:10224000605040EAC100606000F028F86168084A08
:10225000C1F30311515CC840064908600648006894
:10226000FFF750F90020C2E70020024000100240B2
:10227000607100087C0000208400002004480549AB
:1022800000684968044AC1F3C221515CC8407047E4
:102290007C000020001002407071000812A185B07F
:1022A0000FC98DE80F0014A0144A0068049051680B
:1022B000134801F00C03042B10D0082B0ED1C1F3EE
:1022C0008343C9031DF803000AD5516804AAC1F36A
:1022D0004041515C0A4A5043B0FBF1F005B07047F1
:1022E00008494843FAE70000020304050607080905
:1022F0000A0B0C0D0E0F101001020000001002401E
:1023000000127A0000093D002DE9F84F040070D05A
:102310002078C04DC00749D06868C0F3810001280B
:1023200007D06868C0F38100022809D16868C0033B
:1023300006D52868800339D560680028E7D035E0E5
:102340006068B0F5803F0BD010B1B0F5A02F11D070
:10235000286820F480302860286820F4802002E07B
:10236000286840F480302860606890B1FFF7AAF8D0
:1023700006460AE0286840F480202860F0E700BFA5
:10238000FFF7A0F8801B642873D828688003F7D56E
:102390000CE0FFF797F8064605E000BFFFF792F85C
:1023A000801B6428F0D828688003F7D420789A4EE0
:1023B00080074FF001094FF0000839D5686810F028
:1023C0000C0F07D06868C0F38100022809D1686843
:1023D000C00306D42868800714D52069012808D1D5
:1023E00010E02069B0B1C6F80090FFF76BF807461F
:1023F00005E00AE1FFF766F8C01B0228C4D8286888
:102400008007F7D52868616920F0F80040EAC1002C
:1024100028600DE0C6F80080FFF754F8074604E096
:10242000FFF750F8C01B022823D828688007F7D48C
:10243000207800072CD57948A169D9B1C0F800905F
:10244000FFF740F8074604E0FFF73CF8C01B0228FE
:102450000FD8686A8007F7D571484FF4FA510068C1
:10246000B0FBF1F0009000BF0098411E0091FAD23D
:102470000EE080E0C0F80080FFF724F8074604E093
:10248000FFF720F8C01B022875D8686A8007F7D4C8
:102490002078400760D5E8690027C00008D4E869C3
:1024A00040F08050E861E869012700F0805000901A
:1024B0005C480168C90513D40168834641F4807102
:1024C0000160FEF7FFFF824606E000BFFEF7FAFF5D
:1024D000A0EB0A0064284ED8DBF80000C005F5D553
:1024E000E06801280AD008B1052813D0286A20F036
:1024F00001002862286A20F0040002E0286A40F007
:1025000001002862E06841F2883B98B1FEF7DAFFEB
:1025100082460BE0286A40F004002862EEE700BF24
:10252000FEF7D0FFA0EB0A0159455AD8286A800768
:10253000F6D50CE0FEF7C6FF824605E0FEF7C2FFC7
:10254000A0EB0A0159454CD8286A8007F6D41FB180
:10255000E86920F08050E861E06988B36968C1F3F8
:102560008101022944D00228C6F8608004D0FEF719
:10257000A9FF044638E034E0FEF7A4FF074604E074
:10258000FEF7A0FFC01B02282BD828688001F7D4D3
:10259000206AB0F5803F05D16868A16820F400305A
:1025A00008436860D4E908010843696821F474119C
:1025B00008436860C6F86090FEF784FF044606E0B2
:1025C00025E000BFFEF77EFF001B022809D828681F
:1025D0008001F7D51BE000BFFEF774FF001B022847
:1025E00002D90320BDE8F88F28688001F4D40EE0FA
:1025F0000128F7D06868226A00F48031914204D142
:10260000616A00F47010884201D00120EAE70020DE
:10261000E8E700000010024000004242800442420D
:102620007C0000200070004070B5040009D0606A92
:10263000002540B125616561A56294F8510040B163
:102640000CE0012070BD6068B0F5827FF4D0E561D8
:10265000F2E784F85050204600F040F8022084F859
:1026600051002068016821F040010160A0882189A3
:1026700000F4827001F404410843A18901F400616F
:102680000843217C01F002010843217D01F0010192
:102690000843218B01F400710843217F01F03801C8
:1026A000084394F8201001F080010843218D01F4C3
:1026B0000051084321680860A069042101EA104024
:1026C000216848602068C16921F40061C1616565C5
:1026D000012084F85100002070BD000030B585B0A5
:1026E00000240094019402940394006814498842E1
:1026F00023D11448816941F480518161816901F4D9
:1027000080510491816941F00401816180690E4D1D
:1027100000F004000490A02000900220019003200B
:10272000039069462846FEF7CBFD4020CDE9000422
:10273000694628460294FEF7C3FD05B030BD00008F
:102740000030014000100240000801402DE9F84F20
:10275000044640680025984616460F464FF0040B85
:10276000B0F5827F01D1A06888B194F850000128AB
:1027700018D0012084F85000FEF7A4FE814694F89A
:1027800051004FF0000A01280ED0022582E084F8A3
:1027900051B013460A462046CDF8008000F036F9C5
:1027A000BDE8F88F0220FBE7002F72D0002E70D01A
:1027B00084F851B0C4F854A0A763A687E687C4F88C
:1027C00030A0A4F834A0A4F836A0C4F840A0C4F8FF
:1027D00044A0A068B0F5004F09D12068016821F03D
:1027E000400101602068016821F480410160206897
:1027F0000168490603D4016841F040010160E068C6
:10280000D8B139E020688168C90709D0007BA16B85
:102810000870A06B401CA063E08F401EE0870CE0B6
:10282000FEF750FEA0EB0901414503D3B8F1FF3F8D
:1028300003D036E0B8F1000F33D0E08F0028E1D1AB
:102840001DE020688168C90709D0C068A16B0880B5
:10285000A06B801CA063E08F401EE0870CE0FEF7B9
:1028600031FEA0EB0901414503D3B8F1FF3F03D08E
:1028700017E0B8F1000F14D0E08F0028E1D14A46EC
:102880004146204600F0D9FF08B120206065606D08
:1028900000B10125012084F8510084F850A0284699
:1028A0007EE70325F6E72DE9F84F044690F850003F
:1028B00000271D461646894601280DD04FF0010B12
:1028C00084F850B0FEF7FEFD804694F85100BA46F9
:1028D000012804D0022793E00220BDE8F88FB9F167
:1028E000000F73D0002E71D0032084F85100C4F87B
:1028F00054A0C4F83090A686E686C4F838A0A4F8A0
:102900003CA0A4F83EA0C4F844A0C4F840A0A0682D
:10291000B0F5004F09D12068016821F04001016045
:102920002068016841F4804101602068016849061F
:1029300003D4016841F040010160E068B0F5006F28
:10294000606803D030B3012E24D041E008B1012EDD
:102950001CD1206B21680088C86006E0206881686F
:10296000890709D5216B0988C160206B801C206311
:10297000E08E401EE08609E0FEF7A4FDA0EB080013
:10298000A84202D3681C01D031E07DB3E08E00285C
:10299000E4D120E0206B21680078087306E020680D
:1029A0008168890709D5216B09780173206B401C68
:1029B0002063E08E401EE0860AE0FEF783FDA0EB78
:1029C0000800A84203D3681C02D010E017E06DB1E4
:1029D000E08E0028E3D142462946204600F05BFF06
:1029E00008B120206065A06818B106E0FFE7032762
:1029F00006E02068C16880680090606D00B1012722
:102A000084F851B084F850A0384666E72DE9F84FB5
:102A1000044690F8500000270A9E1D4692468B46B9
:102A20004FF0010901280ED0012084F85000FEF774
:102A300049FD804694F85100616801280CD0B1F539
:102A4000827F07D102E00220BDE8F88FA16809B9B2
:102A5000042801D00227C2E0BBF1000F27D0BAF151
:102A6000000F24D01DB394F85100042802D0052093
:102A700084F8510000206065C4F838A0E587A58778
:102A8000C4F830B0E586A5862064606420680168DB
:102A9000490603D4016841F040010160E068B0F5E7
:102AA000006F606805D0E8B3012D46D07FE00127B4
:102AB00095E008B1012D39D1206B21680088C860EC
:102AC000206B801C2063E08E401EE0862EE0206894
:102AD000816889070FD5E18E69B1B9F1010F0AD17B
:102AE000216B0988C160206B801C2063E08E401E32
:102AF000E0864FF0000920688168C9070CD0E18F9B
:102B000051B1C068A16B0880A06B801CA063E08FEE
:102B1000401EE0874FF00109FEF7D4FCA0EB08004F
:102B2000B04200E009E001D3701C50D1E08E0028D3
:102B3000CDD1E08F0028CAD13FE0206B216800781A
:102B40000873206B401C2063E08E401EE0862EE060
:102B50002068816889070FD5E18E69B1B9F1010F4D
:102B60000AD1216B09780173206B401C2063E08E31
:102B7000401EE0864FF0000920688168C9070CD02C
:102B8000E18F51B1C068A16B0870A06B401CA063BD
:102B9000E08F401EE0874FF00109FEF793FCA0EBA9
:102BA0000800B04202D3701C01D010E07EB1E08E6C
:102BB0000028CDD1E08F0028CAD1424631462046B8
:102BC00000F069FE28B101272020606507E0032797
:102BD00005E0A06818B92068C168806800900120ED
:102BE00084F85100002084F8500038462CE710B5D6
:102BF000401EB0F1807F01D3012010BD4FF0E024D2
:102C000060610F21601702F017FC0020A06107200F
:102C10002061002010BD000070B590F83C20012A12
:102C200026D0012480F83C40022280F83D20036831
:102C30005A689D6822F070060A6832435A600D4B4C
:102C400002689A4208D0B2F1804F05D00A4B9A42EE
:102C500002D00A4B9A4204D1496825F080031943F7
:102C6000916080F83D40002180F83C10084670BD1E
:102C7000022070BD002C014000040040000800400C
:102C800000B585B000210091019102910391006887
:102C90000B49884212D10B48816941F008018161DA
:102CA0008069694600F0080004904FF4407000907D
:102CB0000220019003900448FEF702FB05B000BD1E
:102CC0000008004000100240000C014070B50446AE
:102CD00090F83C000D4601280AD0012084F83C0001
:102CE00042B1042A18D0082A2AD00C2A4DD139E042
:102CF000022070BD206800F0D9FE2068816941F093
:102D0000080181612068816921F0040181612068E6
:102D100081692A69114311E0206800F0EFFE206804
:102D2000816941F4006181612068816921F48061D9
:102D30008161206881692A6941EA0221816124E078
:102D4000206800F007FF2068C16941F00801C161F7
:102D50002068C16921F00401C1612068C1692A6944
:102D6000114311E0206800F021FF2068C16941F49F
:102D70000061C1612068C16921F48061C16120687E
:102D8000C1692A6941EA0221C161002084F83C003E
:102D900070BD10B5040003D094F83D0010B107E0F9
:102DA000012010BD002084F83C00204600F01EF8F1
:102DB000022084F83D00211D206800F033FE012030
:102DC00084F8460084F83E0084F83F0084F8400010
:102DD00084F8410084F8420084F8430084F84400F9
:102DE00084F8450084F83D00002010BD08B5006857
:102DF0000649884208D10648C16941F00401C16111
:102E0000C06900F00400009008BD00000008004008
:102E10000010024010B50446022249B1042912D024
:102E200008291CD094F84100012823D0012010BDAE
:102E300094F83E000128F9D184F83E202068C26849
:102E400042F0020209E094F83F000128EED184F834
:102E50003F202068C26842F00402C2600EE094F88D
:102E600040000128E2D184F840202068C26842F086
:102E70000802F2E784F841200C2922D001222068C0
:102E800000F006FE11492068884203D1426C42F4EA
:102E9000004242642068884208D0B0F1804F05D0DB
:102EA0000B49884202D00B49884204D1816801F065
:102EB0000701062903D0016841F0010101600020EB
:102EC00010BD2068C26842F01002C6E7002C014025
:102ED000000400400008004030B5044600680D00C2
:102EE00006D0042D08D0082D35D00C2D08D136E0A1
:102EF000C16821F0020102E0C16821F00401C16053
:102F000000222946206800F0C3FD1B4B41F211113D
:102F100020688A10984209D1036A0B4206D1036ADD
:102F2000134203D1436C23F4004343642068036AD3
:102F30000B4206D1016A114203D1016821F001015F
:102F4000016001207DB1042D10D0082D11D084F82E
:102F50004100002030BDC16821F00801CFE7C16801
:102F600021F01001CBE784F83E00F2E784F83F003F
:102F7000EFE784F84000ECE7002C0140FEE700009A
:102F8000F0B500230A24302537261F4611E000BF84
:102F9000B4EB107F02D905EB107C01E006EB107C4E
:102FA00001F813C001EB430C00015B1C8CF80170AD
:102FB000DBB29342ECD3F0BD2DE9F0410024074E83
:102FC00025464FF4FC770121002000F0F9F8355533
:102FD000641CBC42F7DBBDE8F0810000A0010020CA
:102FE00010B50C4640F08000002100F0E9F844F0F4
:102FF0004000BDE81040002100F0E2B810B5154CCB
:103000000022A1882068FEF758FAA18801222068D2
:10301000FEF753FA0021212000F0D2F80021B82059
:1030200000F0CEF80021042000F0CAF8002114209E
:1030300000F0C6F80021202000F0C2F800210C208A
:1030400000F0BEF8FFF7B8FFA4F5FE71002081F88C
:10305000F80110BD9C030020024900B1012081F855
:10306000F8017047A001002010B50B460446114638
:103070001846FFF7B5FF02E0641C00F005F8207861
:103080000028F9D110BD000070B50D490B4E00EBC2
:103090004000002401EB400596F8F801012805EBFB
:1030A000040010F8C00C01D1C043C0B2012100F0EF
:1030B00087F8641C062CEFDB70BD0000A001002027
:1030C000206F00082DE9F0410025104C074601262D
:1030D000C5F1070106FA01F0384201D0012200E0F3
:1030E0000022A18BA069FEF7E8F9A18C0122206AD9
:1030F000FEF7E3F9A18C0022206AFEF7DEF96D1CD1
:10310000EDB2082DE4D3BDE8F08100009C0300205F
:10311000014A9060918170479C030020014A10622F
:10312000918470479C030020014A1061918270478E
:103130009C030020014A9061918370479C0300200A
:10314000014A1060918070479C03002070B51E46B4
:103150001446FFF745FF0A25062E30D2DFE806F0B9
:103160002F261D130B0342F21070B4FBF0F0303029
:10317000C0B2FFF789FF4FF47A70B4FBF0F0303043
:10318000C0B2FFF781FF6420B4FBF0F0B0FBF5F1B3
:1031900005FB11003030FFF777FFB4FBF5F0B0FB13
:1031A000F5F105FB11003030FFF76EFFB4FBF5F0D1
:1031B00005FB1040BDE870403030FFF765BF70BDC3
:1031C00070B50C4C0A000546A18A206900D0012286
:1031D000FEF773F9A1890022A068FEF76EF9284670
:1031E000FFF770FFA189A068BDE870400122FEF7DB
:1031F00064B900009C0300203EB500241D480094E3
:1032000001941B490294016089158160047304755F
:103210004FF460214460C16106210161FDF70EFD9C
:10322000009401240194694612480294FDF77AFC47
:103230000094022469460F480194FDF773FC0820AE
:1032400000900320019069460A48FDF76BFC0920B5
:1032500000900420019069460648FDF763FC0520B4
:10326000CDE9004069460348FDF75CFC3EBD000027
:1032700000240140480400202DE9F04786B00024D6
:103280003A480094019402940394816941F010013A
:103290008161816901F010010491816941F020018F
:1032A0008161816901F020010491816941F004018B
:1032B0008161816901F004010491816941F0080193
:1032C0008161806900F00800049002F055F8DFF891
:1032D000A0804FF40055002229464046FEF7EDF845
:1032E000DFF890A048F21807002239465046FEF752
:1032F000E4F8DFF884900022FC214846FEF7DDF870
:1033000001AA11200226009582E851006946404634
:10331000FDF7D6FFA80001258DE83100694640463B
:10332000FDF7CEFF00970396CDE90154694650465C
:10333000FDF7C6FFFC20CDE90005CDE90246694650
:103340004846FDF7BDFFA8028DE8310069464846B2
:10335000FDF7B6FF4FF4C0608DE831006946504676
:10336000FDF7AEFF06B0BDE8F08700000010024098
:103370000010014000080140000C01400C480B49BE
:103380004FF4007201604FF482714160002181604E
:10339000C1600161C0E905121822C0E9072141623C
:1033A00081620A21C162FFF73FB90000003001408D
:1033B0007804002010B58AB0002407941C216846C8
:1033C0000894FCF7DAFE1448124901604821C0E96C
:1033D0000114FA21C0E903148461FFF7DAFC0794B1
:1033E00007A90D480894FFF717FC602000907D2086
:1033F000CDE901040822694607480494FFF766FCFA
:103400000C2269460448FFF761FC0348FFF738FCCB
:103410000AB010BD00080040D004002010B5002202
:103420000F49104800F0BCFE08B1FDF70EFB0E4935
:103430000C4801F099F808B1FDF707FB0B49094862
:1034400000F0BAFC08B1FDF700FB064801F0E2F815
:10345000002803D0BDE81040FDF7F7BA10BD00000A
:103460001C0000205C050020680100206C0000208A
:10347000FEE7704770B52A4C00252020E5702070CB
:10348000257105206070601D0570284602F044FC1F
:10349000012002F049FC0520FDF700FF0C2100206F
:1034A00003F0F2FC0F21052003F067FA032003F07C
:1034B0004FFA022003F026FA08B10120E07006203E
:1034C00003F022F80646002003F01CFA03F038FC53
:1034D00000211D2003F0D8FC00211C2003F0D4FCA7
:1034E00025717021072003F0CFFC4C2003F006FA71
:1034F000E22003F0FDFBE12003F0FAFB02F0B0FF55
:10350000002003F001F820F00101002003F0BCFCD2
:103510001EB1FF2E01D0012070BD002070BD000043
:10352000000000202DE9F84F044640F68F7B48F656
:103530000F7A4FF002094FF4806874E1B0F844103C
:1035400011F00F063AD030F8267039047DD530F8E6
:10355000261001EA0B0141F0800120F8261006EB4D
:10356000860004EBC00595F8740105F5B4750028D4
:103570006CD0E87802286AD02878226832F82010C7
:1035800048F68F73194048F2C003194322F82010FF
:103590002878D4F800C03CF82010BCF8502049042A
:1035A0007ED509EBC000111808EB41003CF8000083
:1035B0008005800D009074D02A89D8E0C9062DD4EA
:1035C000018801EA0A0141F400410180216804F107
:1035D0002805B1F850202B7809EBC300024408EB12
:1035E0004200085AC0F309006064E16B0844E063DC
:1035F00000212046FEF723F894F8240000289CD0F0
:10360000A869002899D194F82400216840F080002E
:10361000A1F84C00002084F8240004E1018804F59E
:10362000B4750A0521D5B0F850202B78062101EB9E
:10363000C3010A4408EB4201405A04F52C71C0F35F
:103640000903EB61EA88206802E0ACE068E07AE018
:1036500001F07CFE2168088800EA0B0040F0800041
:1036600008802046FEF767FCDDE00904D5D5018817
:1036700001EA0B0141F0800101802068B0F8502080
:103680002B78062101EBC3010A4408EB4201405AA2
:1036900083059B0DEB6110D0696971B1EA8801E087
:1036A00058E056E0206801F051FEE9696869084475
:1036B000686100212046FDF7CBFF206801880905DD
:1036C0002DD4B0F850100844296900F20C4051B1D3
:1036D0003E2910D84A08C90700D0521C4FF6FF7186
:1036E00001EA82210FE0018821F4F841018001887C
:1036F00041F4004107E04A09C90600D1521E4FF4C7
:10370000004141EA82210180206801884BF68F72D6
:10371000114081F4405148F280021143018082E05F
:10372000D4F800C0BCF850102A78062000EBC20084
:10373000014408EB41003CF800008005800D00903A
:103740001AD0EA8813E03A4629462046FDF7DEFF04
:10375000009011E0062101EBC000111808EB4100B8
:103760003CF800008005800D009005D06A89034672
:103770006046696901F0EAFDE96900980844E8617A
:103780006969009808446861A86918B129690098B6
:10379000814204D929782046FDF75AFF03E02946E3
:1037A000206801F0B9FA38063DD506EB860004EB37
:1037B000C001206830F8262002EA0A0242F40042E2
:1037C00020F8262091F82B002831032804D018B1C6
:1037D000022824D1F80522D42368B3F850200D78AC
:1037E00009EBC500024408EB4200185A8A69C0F38D
:1037F000090082420CD9121A8A610BD04A6902442C
:103800004A61CA691044C861206801F085FA0AE07B
:1038100000208861E9B22046FDF711FF03E03A4637
:103820002046FDF7E6FF2068B0F8441009043FF594
:1038300085AE0020BDE8F88F7047F8B504464068B3
:103840004FF48273984217D1A0684FF48065B0F5A9
:10385000004F01D0A8420FD12068066826F040062C
:1038600006606068984207D1A068A84204D100921F
:103870000B460022012103E000920B46002280212A
:10388000204600F019F8002804D0606D40F02000B8
:1038900060650320F8BD38B50B460092044600224F
:1038A000802100F009F8002804D0606D40F020006D
:1038B0006065032038BD00002DE9F8431E4691469F
:1038C00088460446089DFDF7FDFD401B351AFDF7AF
:1038D000F9FD074625480068C0F3CB30684338E05F
:1038E000701C37D0FDF7EEFDC01BA84203D215B106
:1038F000009860B32CE02068416821F0E00141604D
:103900006068B0F5827F0BD1A068B0F5004F02D09F
:10391000B0F5806F04D12068016821F0400101609A
:10392000A06AB0F5005F09D12068016821F4005158
:1039300001602068016841F400510160012084F8B1
:103940005100002084F850000320BDE8F8830025D2
:10395000401E00902068816838EA010004D00021F0
:103960004945BDD10020F0E70121F9E77C000020A6
:103970007047FDF7ADBD30B593B028216846FCF720
:10398000FCFB14210AA8FCF7F8FB002401200F948B
:1039900010941194010412948DE8130004904FF4D4
:1039A000E010CDE90810022507956846FEF7ACFC4B
:1039B0000F20CDE90A056802CDE90C4002210AA8D2
:1039C0000E94FEF7C5FB12200F90A803CDE9110459
:1039D0000FA8FEF747FB13B030BD00000D4801688B
:1039E00041F00101016041680B4A114041600168EA
:1039F0000A4A11400160016821F480210160416898
:103A000021F4FE0141604FF41F0181600449C003AD
:103A100008607047001002400000FFF8FFFFF6FE4C
:103A200008ED00E0F0B50268164B174C174D4FF04B
:103A30008047984205D0B84203D0A04201D0A842A6
:103A400003D122F070064A683243984205D0B8424A
:103A500003D0A04201D0A84203D122F44074CA6826
:103A600022434C6922F08002224302608A68C262CB
:103A70000A688262984201D10969016301214161AA
:103A8000F0BD0000002C0140000400400008004090
:103A900010B501F01F030121046A99408C430462B0
:103AA000016A9A401143016210BD000030B5026AFC
:103AB00022F001020262026A4368846924F07305FD
:103AC0000C682C4322F002058A682A430A4DA8425A
:103AD0000BD122F00805CA6823F440732A434D69CC
:103AE00022F004021D438B692B43436084614968C3
:103AF0004163026230BD0000002C014030B5026A13
:103B000022F010020262026A436884690D6824F49C
:103B1000E64444EA05248D6822F0200242EA0512B8
:103B20000B4DA8420ED1CD6822F0800242EA051268
:103B30004D6923F4406343EA85038D6922F0400216
:103B400043EA85034360846149688163026230BD52
:103B5000002C014030B5026A22F480720262036ACE
:103B60004268C46923F4007324F073050C682C4385
:103B70008D6843EA05230C4DA8420ED1CD6823F48D
:103B8000006343EA05234D6922F4405242EA0512DC
:103B90008D6923F4806342EA05124260C46149687A
:103BA000C163036230BD0000002C014030B5026AE1
:103BB00022F480520262046A4268C3690D6823F4E9
:103BC000E64343EA05238D6824F4005444EA0534AF
:103BD000064DA84204D14D6922F4804242EA851282
:103BE0004260C36149680164046230BD002C014039
:103BF0002DE9F041D0F8C032D0F8B822CAB101EBBB
:103C0000810500EB85040026E7693FB103EBC5039E
:103C10009B6BB7FBF3F503FB157323B1C2F814627A
:103C20000020BDE8F08100231A46E66100F07FFC29
:103C3000F6E70220F5E770B50546D0F8B84200F087
:103C40007AFBC4F80C02D5F8B80248B1D5F8BC121A
:103C5000D4F80402CA6804F503719047002070BDCF
:103C6000022070BD70B504460026812100F0B6FA2E
:103C7000002501212046E56200F0B0FA82212046AD
:103C8000C4F86C5100F0AAFA2564D4F8B80248B11F
:103C9000D4F8BC0204F52E7440688047206800F018
:103CA00016FE2560304670BD10B5D0E9AE4159B161
:103CB00094F80002FF2807D08B6894F8012221466F
:103CC0009847FF2084F80002002010BD0A210180DF
:103CD0000048704790000020432101800048704751
:103CE000E000002043210180004870479C00002034
:103CF0004321018000487047240100202DE9F04154
:103D000004460026007C4FF40077012590B3402341
:103D100002228121204600F063FB4023E56202225B
:103D20000121204600F05CFB08230322822120466B
:103D3000C4F86C5100F054FB4FF40770256400F098
:103D4000C7FDC4F8B802F8B10546D4F8BC02006853
:103D500080470020C5F81402C5F81802207CD5F869
:103D6000042298B140230121204600F045FB304653
:103D7000BDE8F081FFE73B4602228121204600F0AA
:103D80002FFB3B46E562CAE70126F0E73B46EAE740
:103D900010B5D0F8B81269B1027C002AD1F804221B
:103DA00005D04023012100F027FB002010BD4FF477
:103DB0000073F7E7022010BD02460220002902D05E
:103DC0000020C2F8BC127047D0F8B802C0F8041244
:103DD00000207047D0F8B802C0F81022C0F80812CE
:103DE000002070472DE9FC410546D0F8B87200204C
:103DF0008DF80000ADF80400064608780C4610F077
:103E0000600121D020293BD1E288AAB10006607868
:103E100007D5D5F8BC128B6839469847E2883946F1
:103E200026E087F80002A07987F80102E288394687
:103E3000284600F06AF828E0D5F8BC126078002225
:103E40008B682146984720E0607820B10A2809D085
:103E50000B2815D110E095F89C02032810D10222FE
:103E600001A905E095F89C02032809D101226946C1
:103E7000284600F064F808E095F89C02032804D076
:103E80002146284600F036F802263046BDE8FC817F
:103E900010B5D0F8B812A1B1D1F814220AB101209E
:103EA00010BD0122C1F81422D1F810220263B1F82A
:103EB000102293B2D1F80822812100F038FB0020B3
:103EC00010BD022010BD10B5D0F8B4225268904742
:103ED000002010BD134610B50A46002100F08CFAF0
:103EE000002010BD134610B50A46002100F01FFB4C
:103EF000002010BD10B50446802100F0FDFA2046D8
:103F0000BDE81040002100F0F7BA10B50323C0F857
:103F10005C21C0F89432C0F8602113460A460021A3
:103F200000F06AFA002010BD10B505210023C0F88A
:103F300094121A46194600F05FFA002010BD10B521
:103F40000223C261C0F89432026213460A4600217D
:103F500000F0EDFA002010BD10B504210023C0F8D8
:103F600094121A46194600F0E2FA002010BD000033
:103F700010B50A46024903A000F0E2F8004810BD5F
:103F80002C0D002043444320436F6E666967000098
:103F900012200880004870473C00002010B50A46F7
:103FA000024903A000F0CCF8004810BD2C0D002001
:103FB00043444320496E7465726661636500000086
:103FC00004200880004870473800002010B50A46D9
:103FD000024903A000F0B4F8004810BD2C0D0020E9
:103FE00053544D6963726F656C656374726F6E696B
:103FF0006373000010B50A46024903A000F0A0F860
:10400000004810BD2C0D002053544D33322056690A
:10401000727475616C20436F6D506F727400000094
:1040200010B51A2008800A480168001D0468001DA8
:104030000068081809D008220649FEF7A1FF0549C3
:10404000042210312046FEF79BFF0248801E10BD5F
:10405000E8F7FF1F52000020F8B504460020ADF835
:10406000000048880D46010A082948D2DFE801F01F
:104070004704091747473C45D4F8B012207C0A682A
:1040800019E0207C02260028D4F8B40205D0C16AC9
:1040900068468847014646703EE0816AF8E7C0B24C
:1040A00006282CD2DFE800F0030A1014181CD4F8FC
:1040B000B002426805E0694690471CE0D4F8B002BF
:1040C0008268E2B1207CF6E7D4F8B002C268F8E773
:1040D000D4F8B0020269F4E7D4F8B0024269F0E71C
:1040E000D4F8B0028269ECE7207C40B9D4F8B4027D
:1040F000416B6846884701460EE0207C20B1294686
:104100002046FFF7F7FEF8BDD4F8B402016B68460D
:104110008847014607204870BDF8000048B1EA888A
:1041200052B1824200D90246ADF800202046FFF786
:1041300006FFE8880028E6D12046FFF70DFFF8BD0E
:1041400070B5002300281ED00446002502E06D1C37
:10415000EDB2641C2678002EF9D1022404EB45044C
:1041600014801278CA545B1C0322CA5400245B1CBE
:1041700006E0CA545B1CDAB28C54521CD3B2401C09
:104180000278002AF5D170BD01004FF0000004D084
:10419000012901D0022901D0022070470120704777
:1041A00010B580B1D0F8B43213B10023C0F8B432E6
:1041B00009B1C0F8B012012180F89C12027000F021
:1041C000BFF8002010BD022010BD10B5D0F8C0020D
:1041D000FDF76EFABDE81040FFF7D6BF10B5D0F876
:1041E000C002FDF73FFABDE81040FFF7CDBF2DE953
:1041F000F0411746044651B1D4F8B40242691AB1ED
:1042000094F89C02032851D00220BDE8F081D4F834
:104210009432002504F11400022B03D0042B3AD071
:10422000C3B33CE0D0E903639E4207D9F11AC160F1
:104230008AB239462046FFF755FE12E08068B0FB8F
:10424000F3F103FB110199B9984211D3D4F89812F4
:1042500088420DD2002211462046FFF743FEC4F8E3
:10426000985200231A461946204600F0C5F816E079
:10427000D4F8B402C16829B194F89C02032801D192
:10428000204688478021204600F036F92046FFF777
:104290004BFE04E0FFE78021204600F02DF994F862
:1042A000A002012804D184F8A05201E020469047E2
:1042B0000020AAE770B51546044649B1D4F8B40207
:1042C00082691AB194F89C02032830D0022070BD94
:1042D000D4F8941204F5AA70032902D005291ED03F
:1042E00027E0D0E903218A420BD9531AC36008465C
:1042F000834200D303469AB229462046FFF7EAFDDF
:1043000017E0D4F8B402016929B194F89C0203289B
:1043100001D1204688472046FFF71EFE09E0002015
:104320000146C4F89402204600F0E6F801E0204679
:104330009047002070BDD0F8C002FDF7F2BB00002E
:1043400010B504461C481D49C0F8E842C4F8C00234
:104350000160082141600221816000218161C16109
:104360000162FDF72DFD08B1FCF76FFB0022D4F8C8
:10437000C0021823114604F53074FDF741F95823A3
:10438000002280212068FDF73BF9C0230022812113
:104390002068FDF735F94FF4887300220121206869
:1043A000FDF72EF94FF48073002282212068FDF77B
:1043B00027F9002010BD0000400A0020005C0040EA
:1043C0000A0601F07F01D0F8C00201EB810100EB89
:1043D000C10002D590F82A00704790F86A01704732
:1043E00010B51C461346D0F8C0022246FDF7A2FBCA
:1043F000BDE81040FFF7C8BE10B5D0F8C002FDF709
:10440000C9FBBDE81040FFF7BFBE70B500220446EF
:1044100040231146FFF7E4FF40260125C4F86461FC
:104420003346002280212046C4F85851FFF7D8FFB8
:104430006662A56184F89C520020C4F89402606012
:10444000C4F8A402D4F8B80228B1D4F8B402002108
:10445000426820469047002070BD90F89C120429C5
:1044600003D190F89D1280F89C120020704710B57F
:1044700090F89C12032904D1D0F8B412C96901B193
:104480008847002010BD01740020704710B5D0F897
:10449000C002FDF73CFDBDE81040FFF775BE70B5EA
:1044A000044600F52A70054600F04AF80120C4F8D9
:1044B0009402B4F8AE02C4F8980294F8A80210F07E
:1044C0001F010AD001290DD0022910D000F080016F
:1044D000204600F011F8002070BD2946204600F06B
:1044E0009EF8F8E72946204600F0CAF9F3E7294686
:1044F000204600F01DF9EEE710B5D0F8C002FDF738
:1045000062FBBDE81040FFF73FBE10B5D0F8C00217
:10451000FDF718FDBDE81040FFF736BE90F89C127D
:1045200080F89D12042180F89C120020704710B57D
:10453000D0F8C002FDF780FBBDE81040FFF724BEB5
:104540000A7802704A7842708A78CB7802EB0322AC
:1045500042800A794B7902EB032282808A79C979F9
:1045600002EB0121C18070470246002011B1C2F860
:10457000B41270470220704710B5D0F8B42202245C
:104580001AB11268904700B90024204610BD0000FF
:1045900070B50E461E4D897804462970012931D820
:1045A00094F89C0202280BD003280FD031462046F5
:1045B000FFF7A0FC29782046BDE87040FFF783BCD8
:1045C000D9B10320616084F89C0209E071B1606890
:1045D000884212D0C1B22046FFF775FC297861608D
:1045E0002046FFF7C9FF02280CD006E0022084F81D
:1045F0009C0220466160FFF766FC2046BDE87040E3
:10460000FFF7AABC31462046BDE87040FFF772BCF8
:104610008C00002010B5FFF778FF002010BD2DE9B9
:10462000F0410A78002612F0600208D0202A01D05A
:10463000402A70D1D0F8B422926890476DE04B7850
:10464000002201250A2B66D2DFE803F0405D6557A2
:10465000650805652C29FFF7FFFC5EE004468888A5
:10466000D8B9C888C8B94888802816D200F07F0712
:1046700094F89C02032810D084F89E723946204694
:10468000FFF704FF2046FFF767FC1FB1022084F804
:104690009C0242E084F89C523FE020463BE0FFF75A
:1046A00077FF3AE0CB88012B35D190F89C32012B73
:1046B00004D0022B02D0032B2DD104E08260012212
:1046C00000F1080116E00122011D13E090F89C2280
:1046D000012A03D0022A01D0032A1CD1CA88022A47
:1046E00019D1C560D0F8A41209B10321C16002221A
:1046F00000F10C01FFF723FC0FE0498801290CD1E0
:10470000C0F8A45211E090F89C32012B08D0022B83
:1047100006D0032B04D0FFF7EDFB3046BDE8F08157
:1047200049880129F9D1C0F8A422FFF715FCF4E764
:104730002DE9F0410A46044610780027097910F067
:1047400060030AD0202B01D0402B50D1D4F8B40202
:1047500011468368204698478FE0C0F34110012836
:1047600006D05078D0B301282AD003283FD107E0E3
:10477000D4F8B402114683682046BDE8F0411847DA
:1047800094F89C02022802D0032872D10AE071B387
:1047900080296ED02046FFF7AFFE80212046FFF72C
:1047A000ABFE6AE0508838B931B1802904D0D08896
:1047B00010B92046FFF7A0FE2046FFF7CDFB5CE0D6
:1047C00094F89C020228E2D0032852D1508898BB6A
:1047D0004806F1D02046FFF7F8FCEDE7FFE794F834
:1047E0009C020026022803D0032842D112E040E0B8
:1047F00009B180293DD1080601F07F0000EB80005F
:1048000004EB800101D5143101E001F5AA71022207
:104810000E602AE0080601F00F0000EB800004EBB8
:1048200080000AD5806920B301F07F0000EB800092
:1048300004EB800514350BE01FE0D0F85801C0B13F
:1048400001F07F0000EB800004EB800505F5AA7500
:1048500041B1802906D02046FFF7B2FD10B10120FA
:10486000286000E02E60022229462046FFF767FB01
:1048700003E011462046FFF73DFB3846BDE8F081D6
:1048800070B5054608780C4610F0600003D020286B
:1048900001D0402816D195F89C02012803D00228A7
:1048A00001D003280ED1207901280BD8D5F8B40205
:1048B000826828469047E188014306D12846FFF7E1
:1048C0004BFB02E02846FFF715FB002070BD704748
:1048D00000487047200800202DE9F0470C7800269A
:1048E00030F8243048F68F121340CA78002A7DD061
:1048F000012A7CD0022A02D0032A7FD0012648F266
:104900008002134320F824300D7830F8254048F613
:104910008F731C402C43144320F825400D7B48F234
:10492000C00C48F6BF744CF280074BF68F79EDB39C
:1049300091F80080C24630F8285048F280181D4097
:1049400045EA080520F82A50B0F8505091F8008048
:10495000054405EB0815B1F8088028F00108A5F812
:104960000084B0F8505091F80080054405EB08151C
:10497000B1F80A8028F00108A5F808844D78002DC8
:104980000D7830F825804FEA48487DD0B8F1000F07
:1049900007DA30F8258008EA030848EA070820F813
:1049A00025800F7830F827506D0600E02CE006D502
:1049B00030F827501D4045EA0C0520F82750CB78E9
:1049C0000D78012B30F8253003EA040301D083F081
:1049D0002003134320F825300B7830F8231001EA28
:1049E0000901114320F82310304602E003E008E0FB
:1049F00004E0BDE8F08743F4007380E743F4C0634C
:104A00007DE743F480637AE74D782DB3B0F85050DA
:104A10000F78054405EB0715CF8827F00107A5F8A7
:104A200000740F7830F827506D0606D530F82750FF
:104A30001D4045EA0C0520F82750CB78012B06D005
:104A40000B7830F82310214081F02001C9E70B7862
:104A500030F823102140C4E7B0F850400D780444EA
:104A600004EB0514CD8825F00105A4F80854B0F82E
:104A700050400D78044404EB05140D6904F20C4415
:104A800075B13E2D14D800E030E04FEA550CED072B
:104A900001D00CF1010C4FF6FF7505EA8C2511E0F1
:104AA000258825F4F8452580258845F4004509E04A
:104AB0004FEA551CED0601D1ACF1010C4FF4004555
:104AC00045EA8C2525800D7830F82540640405D50D
:104AD00030F825401C403C4320F825400B7830F846
:104AE000231001EA090181F440517AE7B8F1000F7F
:104AF00007DA30F8258008EA030848EA070820F8B2
:104B000025800F7830F827506D0606D530F82750ED
:104B10001D4045EA0C0520F827500D7830F8253067
:104B200003EA090383F44053134320F825308EE74A
:104B3000002070472DE9F04391F80C804F780A78F7
:104B400048F6BF7C4BF68F7948F2800348F2C005E7
:104B50004CF2800648F68F74B8F1000F28D0002F71
:104B600030F822704FEA474748D0002F05DA30F876
:104B700022702740374320F822700A7830F82270DC
:104B80007F0605D530F8227027402F4320F8227089
:104B90000D7830F825202240324320F825200C786B
:104BA00030F8242002EA0C021A4320F824201AE0EC
:104BB0007FB130F82260760605D530F822602640B5
:104BC0002E4320F822600A7830F8221001EA0C0106
:104BD0000EE030F822506D0405D530F82250254003
:104BE000354320F822500A7830F8221001EA0901F2
:104BF000194320F822100020BDE8F083002F05DAC9
:104C000030F822702740374320F822700A7830F8B5
:104C10002260760605D530F8226026402E4320F823
:104C200022600E7830F8262022402A4320F82620E1
:104C30000C7830F8242002EA09021A4320F82420D4
:104C4000C1E70020704700207047012120F8401F75
:104C500000210180818001820846704730F8401FA2
:104C600021F43F410180002070470020704730B59B
:104C70000A7BB2BB4A7848F68F7548F28004C2B10D
:104C80000B7830F82320520607D530F823202A402D
:104C900048F2C0052A4320F82320CA78012A20D0F0
:104CA0000A7830F8221048F6BF73194081F02001CD
:104CB00014E00A7830F822305B0407D530F822304F
:104CC0002B404CF280052B4320F822300A7830F834
:104CD00022104BF68F73194081F44051214320F884
:104CE0002210002030BD10B54A780978002A48F219
:104CF000800330F8212005D048F6BF74224082F0AE
:104D0000100204E04BF68F74224082F480521A4362
:104D100020F82120002010BD2DE9F0470E464B78E9
:104D2000097B04464FF0000948F68F7248F2800A6A
:104D30004FF6FF774FF40048012B09D000296ED0C1
:104D4000F07802286CD001286BD00120BDE8F087F4
:104D5000B5693069854200D90546C9B1F17848F294
:104D60008013022923D0317834F8210010401843F1
:104D700024F82100306A401B3062307834F820106B
:104D8000490671787ED500297DD001297CD03FE18C
:104D9000ABB2F2882046716900F020FBB4F85000F5
:104DA0003178204400EB0110A0F80454EAE0316AA5
:104DB00081426AD9317834F821001040184324F830
:104DC0002100306A401B3062307834F820104906E8
:104DD00071786CD511B1012924D02AE0B4F85010B3
:104DE000214401EB001000F20C404DB13E2D0FD8D4
:104DF0006908EA0700D0491C07EA8121018018E010
:104E0000018821F4F8410180018841F40041F5E76F
:104E10006909EA0600D1491E48EA8121EEE79CE1D2
:104E2000BCE126E2B4F85020111901EB0010A0F803
:104E30000C547289ABB22046716900F0CFFA7069E8
:104E4000284470613169306A884202D9401B30625F
:104E500002E00546C6F82090707800287CD1B4F8AE
:104E600050003178204400EB011000F204406DB195
:104E70003E2D13D86908EA0700D0491C07EA8121B2
:104E8000018012E001E19BE0BBE084E0018821F4B5
:104E9000F8410180018841F40041F1E76909EA061F
:104EA00000D1491E48EA8121EAE7328965E011B163
:104EB000012921D027E0B4F85010214401EB001063
:104EC00000F204404DB13E2D0FD86908EA0700D02A
:104ED000491C07EA8121018015E0018821F4F8418D
:104EE0000180018841F40041F5E76909EA0600D133
:104EF000491E48EA8121EEE7B4F85010214401EB45
:104F00000010A0F804543289ABB22046716900F059
:104F100065FA7069284470613169306A884202D943
:104F2000401B306202E00546C6F8209070780028E9
:104F30007ED1B4F850003178204400EB011000F22B
:104F40000C4055B13E2D10D86908EA0700D0491C25
:104F500007EA812101800FE072E0018821F4F84125
:104F60000180018841F40041F4E76909EA0600D1B3
:104F7000491E48EA8121EDE77289ABB2204671698A
:104F800000F02CFA317834F8210048F6BF72104056
:104F900080F03000C0E1327834F8220048F68F63A8
:104FA000184040EA0A0024F82200B4F85000327891
:104FB000204400EB02108BB2A0F804343289DDE704
:104FC000B4F85010214401EB001000F20C404DB138
:104FD0003E2D0FD86908EA0700D0491C07EA812155
:104FE000018015E0018821F4F8410180018841F435
:104FF0000041F5E76909EA0600D1491E48EA812126
:10500000EEE7B4F85020111901EB0010A0F80C5491
:105010007289ABB22046716900F0E0F970692844EA
:1050200070613169306A884203D9401B306203E005
:105030006EE00546C6F82090002DA3D0707858B1D8
:1050400001287FF41EAFB4F850003178204400EB03
:105050000110A0F8045428E7B4F850003178204437
:1050600000EB011101F204413E2D06D86808EA0761
:1050700000D0401C07EA802005E06809EA0600D15C
:10508000401E48EA802008800FE711B1012921D095
:1050900027E0B4F85010214401EB001000F2044066
:1050A0004DB13E2D0FD86908EA0700D0491C07EA28
:1050B0008121018015E0018821F4F84101800188F7
:1050C00041F40041F5E76909EA0600D1491E48EAC2
:1050D0008121EEE7B4F85010214401EB0010A0F854
:1050E00004543289ABB22046716900F077F97069D7
:1050F000284470613169306A884202D9401B3062AD
:1051000002E00546C6F82090002D96D0707858B180
:1051100001287FF420AFB4F850100819317800EB63
:105120000110A0F80C5427E7B4F85000317820445F
:1051300000EB011101F20C413E2D06D86808EA0788
:1051400000D0401C07EA802005E06809EA0600D18B
:10515000401E48EA802008800EE7B169306981422C
:1051600002D9091AB161B5E00846C6F81890B1E055
:10517000088820F4F8400880088840F400400BE0DC
:105180003E2875D84208C00700D0521C07EA82208A
:1051900002E000BF48EA82200880B5E093B9B4F885
:1051A00050003178204400EB0110316900F20440D6
:1051B00069B13E2913D84B08C90700D05B1C07EA28
:1051C00083210180707888B1012832D03AE00188CB
:1051D00021F4F8410180018841F40041F1E74B09D5
:1051E000C90600D15B1E48EA8321EAE7B4F8500003
:1051F0003178204400EB0110316900F20C4049B1D4
:105200003E290FD84B08C90700D05B1C07EA832151
:10521000018017E0018821F4F8410180018841F400
:105220000041F5E74B09C90600D15B1E48EA83211E
:10523000EEE7B4F850100819317800EB0110318A0C
:10524000A0F80C14F069A8B3317834F821004304B5
:1052500001D5430603D444F24003184254D134F834
:105260002100104048F2C002104324F821004BE016
:105270003CE0B1693069814202D9091AB16102E0AA
:105280000846C6F818908BB9B4F85010327821440B
:1052900001EB021101F2044168B13E2813D8420823
:1052A000C30700D0521C07EA82220A80717889B1B4
:1052B000012921D028E00A8822F4F8420A800A88CD
:1052C00042F40042F1E74209C30600D1521E48EA07
:1052D0008222EAE7B4F850103278214401EB02113F
:1052E00001F20C4100287FF44BAF41E74209C006B0
:1052F0007FF450AF521E4DE7B4F8502011193278A8
:1053000001EB0211A1F80C04317834F821004BF6BE
:105310008F72104080F4405040EA0A0024F82100C7
:10532000002013E50021A0F844104FF43F41A0F8FD
:1053300040100020704700000148FCF797BC0000B7
:10534000400A0020B0F844007047000010B500EBA0
:1053500042005C0800F5806009D000BF30F8042BE3
:1053600001F8012B120A01F8012B641EF6D1DA07AD
:1053700001D00088087010BD7FB54FF4805500241F
:1053800001200095CDE9010402200F4E03906946EB
:105390003046FBF795FF002229463046FCF78DF892
:1053A00000214FF4FA65491C89B2A942FBD301944C
:1053B000694630460294FBF783FF0020401C80B210
:1053C000A842FBD37FBD00000008014000207047C9
:1053D00011B98021A0F84C100020704710B55B1C5B
:1053E00000EB42005B0800F5806009D011F8012B4A
:1053F00011F8014B42EA042220F8042B5B1EF5D180
:1054000010BDFEE70FB47CB50C0009AD01D0611EE4
:1054100000E00021CDE90001064B6A4629460898C4
:1054200000F0ECF8002C02D0009A002111707CBC36
:105430005DF814FB035D00080907090E002804DB72
:1054400000F1E02080F80014704700F00F0000F138
:10545000E02080F8141D704702E008C8121F08C140
:10546000002AFAD170477047002001E001C1121FE5
:10547000002AFBD1704700002DE9FF5F82B00021B8
:10548000DDE90430020DDDF840B0034318D044F6E6
:105490001050A2F2FF3242431514119801281FD078
:1054A000A5EB0B00401C5FEA000A4FF000064E4FD0
:1054B000DFF83891B046504615D5CAF1000413E024
:1054C000119801244AA3012801D16FEA0B01029827
:1054D000119AC0E90031C0E9024206B0BDE8F09F70
:1054E000CBF10000DFE704460021404A491842EBB7
:1054F0000450CDE9001012E0E00707D032463B46E9
:1055000040464946FAF7F2FE8046894632463B4617
:1055100010461946FAF7EAFE06460F466410002CBC
:10552000EAD1DDE90401DDE90023BAF1000F06DA72
:10553000FAF7DCFE42464B46FAF7D8FE05E0FAF7EA
:1055400047FF42464B46FAF743FF04460E46002209
:10555000284BFBF71BF903D84FF0FF30014607E05B
:105560000022254B20463146FAF719FEFBF7F6F8E4
:10557000102409E0002C0ADB0A220023FBF708F8BC
:10558000039B30321A55641E50EA0102F2D1641CAA
:10559000039AC4F111031444119A012A03D0012281
:1055A00008430DD10AE0084304D000204FF0110B4E
:1055B000119072E7A3EB0B056D1E0DE05B4504DD5A
:1055C0004FF0000205F1010504E003DA4FF000029C
:1055D000A5F10105002AECD002981199C0E9023129
:1055E000C0E9004579E70000000014400000F03FEA
:1055F000300000000000F0430000E03F2DE9FF4FC5
:1056000095B09A46884606460025EEE1252877D1D2
:1056100000242746F94A0121039400E0044316F8C8
:10562000013F203B01FA03F01042F7D130782A28DD
:1056300011D06FF02F033078A0F13002092A16D86C
:10564000039A44F0020402EB820203EB420210448C
:10565000761C0390EFE758F8042B0392002A03DA34
:10566000504244F40054039044F00204761C307815
:105670002E2816D116F8010F44F004042A280DD064
:105680006FF02F023078A0F13003092B09D807EB17
:10569000870302EB4303C718761CF3E758F8047B33
:1056A000761C30786C280FD006DC4C2817D0682880
:1056B0000DD06A2814D104E0742810D07A280FD1B4
:1056C0000DE044F400140AE044F4801401E044F4D2
:1056D00040147278824202D104F58014761C761C44
:1056E000307866280BD013DC582877D009DC0028E6
:1056F00075D04528F6D04628F4D047281AD193E132
:1057000018E0632835D0642879D0652812D18BE160
:10571000702873D008DC6728F1D069286FD06E2814
:105720000DD06F2806D1ACE073282CD0752874D02A
:10573000782853D05246179990476D1C54E1C4F312
:105740000250022809D003280DD0D8F800100428F0
:105750000DD00D6008F1040846E1D8F80010EA17F2
:10576000C1E90052F6E7D8F800100D80F2E70D709D
:10577000F0E718F8041B8DF8001000208DF80100E8
:10578000EB46012003E058F804BB4FF0FF306107FF
:105790004FF0000102D40DE009F101018946B94240
:1057A0000FDA8145F8DB1BF809100029F4D108E075
:1057B00009F1010189468142FADB1BF80910002931
:1057C000F6D103985346A0EB090721463846179AAD
:1057D00000F080FA284400EB090507E044E008E106
:1057E0000DE01BF8010B524617999047B9F10109DA
:1057F000F7D2534621463846179AF2E039E00A219B
:10580000C4F302524FF0000B0091022A06D058F860
:10581000040BC117032A09D00AE023E008F10700AE
:1058200020F00702F2E80201904605E000B2C1173D
:10583000042A01D140B2C117002906DA0A46002124
:10584000404261EB02012D2202E0220504D52B2209
:105850008DF80420012203E0E20701D02022F7E7BF
:10586000914657E00A2100E010214FF0000B009113
:105870000BE010214FF0000B44F0040408270091C6
:1058800003E008204FF0000B0090C4F30252022AFC
:1058900005D058F8040B0021032A08D008E008F1CD
:1058A000070020F00702F2E80201904603E080B210
:1058B000042A00D1C0B24FF0000922072AD532785D
:1058C000702A07D0DDF800C08CF0100C5CEA0B0CDD
:1058D00005D00EE040228DF80420012208E050EAB5
:1058E000010306D030238DF804308DF80520022204
:1058F0009146009B83F0080353EA0B030AD150EA58
:10590000010201D1620705D530228DF804204FF045
:1059100001097F1E3278582A04D039A20C920CAAB1
:1059200002920BE03BA2F9E75B46009AFAF730FEE1
:105930000C9B9B5C029A521E0292137050EA010269
:10594000F2D1029804A9081A00F1200B600702D5D1
:1059500024F4803400E001275F4502DDA7EB0B0053
:1059600000E0002000EB0B01009003984944401A2E
:105970000390E00306D453462146179A039800F09B
:10598000A9F90544002706E001A85246C05D179911
:1059900090476D1C7F1C4F45F6DBE0030CD553464A
:1059A0002146179A039800F095F9054404E0302049
:1059B0005246179990476D1C0099481E0090002987
:1059C000F5DC08E00298029952460078491C0291E1
:1059D000179990476D1CBBF10001ABF1010BF1DC95
:1059E0005BE100F065F90544761C307800287FF40F
:1059F0000DAE19B02846BDE8F08F0000092801005F
:105A00003031323334353637383961626364656634
:105A100000000000303132333435363738394142F6
:105A20004344454600000000600700D4062708F103
:105A3000070020F00700F0E80223804603F0004C46
:105A40005FEA0C0001D097A009E0200501D596A0DF
:105A500005E0E00701D095A001E0AFF24C00139003
:105A6000307823F0004365280CD006DC452809D0A7
:105A700046281DD047287FD13BE0662818D06728EC
:105A80007AD136E00021112F01DB112000E0781CD3
:105A9000CDE9000104A90CA8FFF7EEFCDDE90D013A
:105AA0000C9A4FF0000B07F10109109200914EE0A3
:105AB0004FF000400097CDE9011004A90CA8FFF7B2
:105AC000DBFCDDE90D020C9B0F994FF0000B9146BA
:105AD0001093009211B9791C00EB0109B7EB090092
